:08000000121C040000000000C6
:100200003220EF00C3102000008041001040BA00EF
:100210000160EF0000000600280C0000010600004D
:100220003220EF00C3112000008041001040BA00CE
:100230000160EF00000006000C0000003220EF001B
:10024000A3122000008041001040BA000160EF00BE
:1002500000000600415400002B43000050490000FC
:100260004E3F00000D0A0000000000003220EF00A9
:1002700023142000008041001040BA000160EF000C
:10028000000006000C4300004D440000204F000019
:100290004B0000003220EF00631520000080410079
:1002A0001040BA000160EF00000006000C4300009F
:1002B0004D440000204200004144000000000000C6
:1002C0003220EF008302200083015000050031003E
:1002D000C3172000008041001040BA000160EF0009
:1002E00000000600C017200083814100808141008A
:1002F0001380BA0000000600415473002B417400C3
:1003000049506100444372004F4E2200543D2C007E
:10031000226922006E746D0065726F006E65760052
:10032000742E69006D6F73007669740073746100D8
:10033000617272002E6D220078220D002C220A00BC
:100340006D6F0000766900003220EF00031B200073
:10035000008041001040BA000160EF00000006007C
:10036000415400002B41000049500000413D000075
:10037000310D00000A0000003220EF0023022000AF
:100380008301500005003100831D200000804100E2
:100390001040BA000160EF0000000600801D200040
:1003A00083814100808141001380BA000000060073
:1003B00041546F002B416D00495022004F3D2C00ED
:1003C000312C38002C22300077772C00772E30002B
:1003D00073652C0072762C006572310064652C0008
:1003E000757332002E730D006F6D0A006565000095
:1003F0002E6300003220EF006320200000804100C7
:100400001040BA000160EF000000060041540000F7
:100410002B41000049500000433D000025640000CE
:100420000D0A0000000000003220EF00030320004E
:1004300083015000050031000323200000804100AB
:100440001040BA000160EF00000006000023200009
:1004500083814100808141001380BA0000000600C2
:1004600047457600542065002F547200494D6400C2
:100470004547650050527500532F73004E4F2E00B4
:1004800057547300494D6F00452F6D00256465007A
:100490002048650054542E00502F6300312E6F0009
:1004A000310D6D000A480D006F730A00743A0D009B
:1004B00020770A00777700002E7300006572000035
:1004C0003220EF00C3262000008041001040BA0017
:1004D0000160EF00000006002B2B00002B0D000038
:1004E0000A0000003220EF000303200083015000C7
:1004F00005003100E3282000008041001040BA00D0
:100500000160EF0000000600E02820008381410028
:10051000808141001380BA00000006004745650055
:10052000542072002F4476004556650049437200FE
:100530004547640050526500532F750047457300CE
:10054000544D2E004F447300452F6F0025646D00FD
:100550002048650054546500502F2E00312E630052
:10056000310D6F000A486D006F730D00743A0A0078
:1005700020770D0077770A002E7300003220EF00FD
:10058000230320008301500005003100A32D20002B
:10059000008041001040BA000160EF00000006003A
:1005A000A02D200083814100808141001380BA008A
:1005B0000000060047456500542072002F44760075
:1005C0004556650049437200454764005052650036
:1005D000532F75004745730054532E005441730048
:1005E00054556F00532F6D00256465002048650049
:1005F00054542E00502F6300312E6F00310D6D00CA
:100600000A480D006F730A00743A0D0020770A0043
:10061000777700002E7300003220EF00E304200003
:10062000830150000500310083322000008041002A
:100630001040BA000160EF00000006008032200088
:1006400083814100808141001380BA0000000600D0
:100650004745310054200D002F4D0A004F4E4800F1
:1006600049546F004F527300494E740047473A0097
:1006700050522000532F77004352770045417700B6
:1006800054452E003F497300443D650025647200C7
:10069000265376005441650054557200533D640062
:1006A00025646500264375005552730052452E009F
:1006B0004E5473003D256F00362E6D003366650085
:1006C000265665004F4C2E005441630047456F008D
:1006D0003D256D00362E0D0033660A0020480D00C2
:1006E00054540A00502F0000312E00003220EF0039
:1006F00023382000008041001040BA000160EF0064
:10070000000006000C540000656C000065670000E6
:1007100065730000746900006F6E000020550000D2
:1007200054430000480000003220EF00033A20004C
:10073000008041001040BA000160EF000000060098
:100740004461000074650000746900006D6500007C
:100750003A0A0000000000003220EF00833B200036
:10076000008041001040BA000160EF000000060068
:100770000C47000065740000746900006E6700009B
:100780002064000061740000610A000066720000CD
:100790006F6D000020730000657200007665000038
:1007A000722E00002B2E0000000000003220EF000F
:1007B000233E2000008041001040BA000160EF009D
:1007C000000006004D6F0000646500003A20000044
:1007D000256400000A530000746100007475000075
:1007E000733A000020250000640000003220EF0072
:1007F00023402000008041001040BA000160EF005B
:100800000000060042610000747400006572000080
:10081000793D000020250000362E000033660000E0
:10082000760000003220EF00E3412000008041000C
:100830001040BA000160EF000000060043750000A0
:1008400072720000656E0000743A000020250000FE
:10085000362E000033660000410A00005465000097
:100860006D70000065720000617400007572000018
:10087000653A000020250000362E00003366000097
:10088000000000003220EF00E3442000008041001F
:100890001040BA000160EF00000006005265000041
:1008A00066650000726500006E630000653D000033
:1008B00020250000362E00003366000000000000F6
:1008C0003220EF00C3462000008041001040BA00F3
:1008D0000160EF0000000600533100003A200000E4
:1008E000253600002E330000666D0000410A00002E
:1008F000533200003A200000253600002E3300005D
:10090000666D0000410000000000E0004220AF00E2
:1009100004003700C31C0900000000000000E900CB
:10092000F9FF370000000600BD09AF0002003700E4
:10093000D602A90001003700D602A800D202A90001
:10094000BD29AF0002003700D622A9000100370000
:10095000D622A800D222A900BD49AF00020037006C
:10096000D642A90001003700D642A800D242A90011
:10097000BD69AF0002003700D662A9000100370050
:10098000D662A800D262A90000000000CB82A800B5
:10099000E4072000341688000C0009000000000065
:1009A000CB82A900E407200034168800000006006E
:1009B000851F7800BD69EF00D202A8000040EB005F
:1009C000D402AF000000E800BD69B700D222A80041
:1009D0000040EB00D422AF000000E8004100DD0041
:1009E000BD69B700D242A8000040EB00D442AF007E
:1009F0000000E8004200DD00BD69B700D262A80037
:100A00000040EB00D462AF000000E8004300DD00CE
:100A1000BD69B700BDC9BF00CF0278000000060065
:100A2000851F7800D202A800D222A800D242A800D6
:100A3000D262A800CB62A800E40720003416880028
:100A400000000000CB82A800E407200034168800D4
:100A500000000000D804020000000000BCE9B7005C
:100A6000CB82A900E40720003416880000000000B3
:100A7000CB82A800E4072000341688000500090096
:100A800000000000D804020000000000BBE9B7002D
:100A9000CB82A900E407200034168800D202A90006
:100AA000D222A900D242A900D262A900BCC9BF00CB
:100AB0004400DD00BB49B700CF027800000006000B
:100AC000851F7800CB42A900E40720003416880077
:100AD0001005020000000000804278000570A700A9
:100AE000FBFF3700B749E20002003A00CB42A90001
:100AF00001003700CB42A800E4072000341688002C
:100B000000000000CB62A900E40720003416880032
:100B100000000000CB82A900E40720003416880002
:100B2000C54D80000B60EF00C42ADE000540780050
:100B3000BDE9B7009404020000000000B8C9BF007E
:100B4000EF42600005407800BDE9B7009404020060
:100B500000000000CF02780000000600851F78002A
:100B6000D202A900D222A900D242A900D262A900D1
:100B7000E407200034168800E407200034168800BB
:100B8000E407200034168800CB42A900E4072000C7
:100B900034168800CB62A900E407200034168800D0
:100BA000CB82A900E407200034168800F000200062
:100BB000840402000000000010C0B3009DE9B700EB
:100BC000E44C80004822DE006324E1000C003E007B
:100BD00030C0B300BDE9B70094040200000000007B
:100BE000F00F090000000000FF3F090000000000B6
:100BF000FF3F0900000000009D69EC00F0FF370096
:100C000020C0B300BDE9B70094040200000000005A
:100C10009D69EF00E44C80004822DE006324E1007F
:100C20000D003E009DC9BF000160EF000001020001
:100C30000000000080427800B769EF00B809F800B2
:100C4000E5FF9F00B809F900600502000000000000
:100C50009D69EC00EFFF3700CF027800000006002E
:100C6000B069EF00844D80006724E1000D003E0074
:100C70004200A900AFE9D70002003100D6C2A900A6
:100C800001003700D6C2A800D2C2A900D2A2A90092
:100C9000D6A2A800D2A2A900D6A2A900B069EC00F1
:100CA000F0FF370000000600D282A900D682A8001B
:100CB000ABC9BF00AFE9B70030060200000000007A
:100CC000ACC9BF00AFE9B700300602000000000069
:100CD000D282A900D682A90000000600D282A90013
:100CE000D682A800A1C9BF00AFE9B7003006020054
:100CF00000000000D2C2A8000500090000000000AA
:100D0000A269EF00144D80006724E10011003E004D
:100D1000D2C2A800D4C2AF00020037004200A9002E
:100D2000010037004200A800A3E9D700D2A2A90021
:100D3000D6A2A8000C00090000000000D2A2A90061
:100D4000D6A2A9000C00090000000000A269EC0076
:100D5000ECFF3700D282A900D682A900A3C9BF0048
:100D600000000600851F7800D282A900D682A90063
:100D70000C00090000000000D2A2A900D6A2A90020
:100D8000E0C8B300ABE9B700AC69EF00540602005D
:100D90000000000000C9B300ABE9B70040CAB300CF
:100DA000ACE9B700540602000000000010C8B30010
:100DB000A1E9B7006E060200000000009DE9B7003F
:100DC0009DC9BF000048B2000004E00005003200E9
:100DD00000C8B300ABE9B700AC69EF0054060200ED
:100DE00000000000CF02780000000600851F780098
:100DF000944D80006124E1000300320000C4B30080
:100E0000B3E9B70001003700B369EF00844D8000FB
:100E10004822DE0061405200B369B400954D800065
:100E2000C82ADE000548B300B769EF00B809F8002A
:100E3000E5FF9F00B809F90060050200000000000E
:100E4000CF02780000000600AFC9BF000160EF00CC
:100E5000C080B200050032006080B2000B0032009A
:100E60002080B2001000320015003700B769EF0093
:100E700010C0B300B8E9B700600502000000000030
:100E800092390900000000001400370010C0B300C0
:100E9000B1E9B70020C0B300B2E9B700F60602001E
:100EA000000000000D003700B769EF0000C1B3007B
:100EB000B8E9B70060050200000000000700370035
:100EC00010C0B300B7E9B700AFC9BF00B8E9B700B9
:100ED000600502000000000000003700000006006E
:100EE000851F7800CC29EF00CC29EF00604E8000F0
:100EF000544E80000020E10007003400404E800086
:100F0000CC09B40080027800C7C9BF00804A7800CD
:100F1000CC29EC00F5FF3700CF0278000000060076
:100F2000851F7800CA29EF0000C1B3000EE2B700A8
:100F30000E02AE00FEFF3700901080006A04E10050
:100F4000FBFF3A00404E8000CA09B40080027800DE
:100F50000E02AE00FEFF370090108000804A78003D
:100F6000CA29EC00544E8000E31520000418E1006B
:100F700007003400404E8000CA09B40080027800A7
:100F800061805200104278006D24E100EDFF3A00CC
:100F9000D722A800D322A900400620008404020022
:100FA00000000000D722A900D322A90000C1B3008D
:100FB0000EE2B700CF02780000000600851F78001F
:100FC000050020000500780010010200000000006C
:100FD0000040B3004220AF00050037008502E80062
:100FE000AFE9B7002407020000000000F5FF37005A
:100FF000214D80001104E00008003200811F7800BC
:1010000011407800AFE9B70024070200000000009B
:10101000CF0078008100E800F6FF3700304D8000F7
:101020008404020000000000CF02780000000600E7
:10103000851F7800B429EF0014002000B44D88000B
:10104000B429EF00A04D8000944D80000020E10005
:1010500010003400804D8000B409B40010427800C4
:1010600054C4B20009003A00A44D8000610242005D
:1010700004007800844D8000040040001042780095
:1010800024C5B20001003A00B629EF00B429EC00F3
:10109000ECFF3700B609F8000000F900CF02780035
:1010A00000000600851F78009E29EF00A029EF00B0
:1010B0009E09E20022013A00044D80006520E10013
:1010C0001F013D00C769EF0004802000444E8800E6
:1010D000E4152000544E8800700702000000000054
:1010E00001002000010078001E0102000000000045
:1010F0008100E800811F78000F22AF00FEFF37005B
:1011000080108800CF007800900020000008E600E2
:10111000F4FF370004802000444E8800900702004E
:101120000000000044062000344D880004802000A8
:10113000244D8800DE07020000000000E4012000CA
:10114000944D880004802000844D88001808020017
:1011500000000000F04C8800F44C80006120E100A9
:101160000D003A000500200005007800360102005D
:10117000000000000040B3004220AF00050037002F
:101180008502E800AFE9B700240702000000000074
:10119000F5FF37000D00370005002000050078003E
:1011A0004A010200000000000040B3004220AF00EE
:1011B000050037008502E800AFE9B7002407020008
:1011C00000000000F5FF37009E29EF00401F2000BF
:1011D0008404020000000000F44C80006120E10063
:1011E00045003A00C769EF0004802000444E8800A3
:1011F000E4152000544E8800700702000000000033
:1012000001002000010078006001020000000000E1
:101210008100E800811F78000F22AF00FEFF370039
:1012200080108800CF007800900320000008E600BE
:10123000F4FF370004802000444E8800900702002D
:101240000000000004802000244D8800843E20001F
:10125000344D8800DE07020000000000E401200099
:10126000944D880004802000844D880018080200F6
:1012700000000000F04C8800F44C80006120E10088
:101280000D003A000500200005007800360102003C
:10129000000000000040B3004220AF00050037000E
:1012A0008502E800AFE9B700240702000000000053
:1012B000F5FF37000D00370005002000050078001D
:1012C0004A010200000000000040B3004220AF00CD
:1012D000050037008502E800AFE9B70024070200E7
:1012E00000000000F5FF37009E29EF00401F20009E
:1012F0008404020000000000F44C80006120E10042
:1013000045003A00C769EF0004802000444E880081
:10131000E4152000544E8800700702000000000011
:101320000100200001007800A4010200000000007C
:101330008100E800811F78000F22AF00FEFF370018
:1013400080108800CF007800A00020000008E60090
:10135000F4FF370004802000444E8800900702000C
:101360000000000004802000244D8800843E2000FE
:10137000344D8800DE07020000000000E401200078
:10138000944D880004802000844D880018080200D5
:1013900000000000F04C8800F44C80006120E10067
:1013A0000D003A000500200005007800360102001B
:1013B000000000000040B3004220AF0005003700ED
:1013C0008502E800AFE9B700240702000000000032
:1013D000F5FF37000D0037000500200005007800FC
:1013E0004A010200000000000040B3004220AF00AC
:1013F000050037008502E800AFE9B70024070200C6
:1014000000000000F5FF37009E29EF00401F20007C
:101410008404020000000000F44C80006120E10020
:1014200045003A00C769EF0004802000444E880060
:10143000E4152000544E88007007020000000000F0
:101440000100200001007800BC0102000000000043
:101450008100E800811F78000F22AF00FEFF3700F7
:1014600080108800CF007800000320000008E6000C
:10147000F4FF370004802000444E880090070200EB
:101480000000000004802000244D8800843E2000DD
:10149000344D8800DE07020000000000E401200057
:1014A000944D880004802000844D880018080200B4
:1014B00000000000F04C8800F44C80006120E10046
:1014C0000D003A00050020000500780036010200FA
:1014D000000000000040B3004220AF0005003700CC
:1014E0008502E800AFE9B700240702000000000011
:1014F000F5FF37000D0037000500200005007800DB
:101500004A010200000000000040B3004220AF008A
:10151000050037008502E800AFE9B70024070200A4
:1015200000000000F5FF37009E29EF00401F20005B
:101530008404020000000000A029EC00DCFE37005B
:10154000CF02780000000600851F7800C50020004B
:1015500003000900B51F780000F0A6000C0037005A
:101560000000EA000480A00004F0A6000800370094
:10157000801F7800D00220000F22AF00FEFF37004E
:10158000801088004F0078000480A1000860ED0002
:101590008002EB00800378008404780004F0A1004E
:1015A0000404E00006003A0009F0A700020037003A
:1015B000050020000F003700050020000D00370057
:1015C000E64252000A0039000003200009F0A6009C
:1015D000000220000F22AF00FEFF370080108800BD
:1015E0008502E900FBFF3B005500200001003700A9
:1015F00084027800640020000580A7000402E8004F
:1016000005E0A00009F0A70005F0A0000871220085
:10161000110009008883D800500B02000000000070
:1016200081037800883E2000110009008883D800DB
:10163000500B0200000000008103780048062000E3
:10164000110009008883D800500B02000000000040
:1016500081037800A8002000110009008883D800C9
:10166000500B0200000000000980A60005003700B2
:10167000D00220000F22AF00FEFF3700801088004C
:101680000980A1000003200000C040005001880034
:101690000F22AF00FEFF37008010880022003700C5
:1016A000060320000000E0000E003A0005E0A6005E
:1016B000160037000402E9000524E10002003200B0
:1016C0004200AF00000006000000E00005003A0004
:1016D00005E0A6000D00370005F0A6000602200078
:1016E0000A00370005E0A1000980A60007003700C6
:1016F00000057800D00220000F22AF00FEFF370067
:10170000801088000980A1000A0078000040430092
:10171000811F78000F22AF00FEFF37008010880085
:10172000CF0078000000060025012000030009001A
:10173000CF127800CF02780000000600851F7800E5
:10174000B829EF00BAA9EF00C04D8000A44D800079
:101750000020E10030003400904D8000B809B40052
:101760001042780044C2B2002B003200904D80003D
:10177000B809B40010407800B149E30024003A00F1
:10178000C44D80006102420004007800944D800046
:101790000400400010407800B649E3001C003A0005
:1017A000C44D800062024200C44D8800BA29EF0097
:1017B000904D8000B809B400F40220001024E1002C
:1017C00013003100904D8000B809B4001042780039
:1017D000A3032000041CE1000D003600D44D80005E
:1017E0006A20B800D04D8800904D8000B809B40040
:1017F000104278000443B1000440780000E0B700D4
:101800000080FB00BA29B400B829EC00E8FF3700DB
:10181000B829EC00CCFF3700BA09F8000000F90045
:10182000CF02780000000600851F7800861F780030
:10183000A229EF00A429EF00C769EF00048020006F
:10184000444E8800E4152000544E880070070200C2
:1018500000000000010020000100780014020200D6
:10186000000000008100E800811F78000F22AF0017
:10187000FEFF370080108800CF0078005001200064
:101880000008E600F4FF3700F04C80000400200060
:10189000A40A02000000000081012000010078007D
:1018A00014020200000000008100E800811F78009F
:1018B0000F22AF00FEFF370080108800CF007800B5
:1018C000400420000008E600F4FF370004802000F8
:1018D000234D8000848241000E02AE00FEFF3700DF
:1018E00090108000804A7800A429EC00244D8000EC
:1018F000E31520000418E10007003400244D8000A7
:10190000E10252000480200004804200104278006E
:1019100044C2B200EDFF3A0020032000840402001C
:1019200000000000010020000100780060020200B9
:10193000000000008100E800811F78000F22AF0046
:10194000FEFF370080108800CF00780040002000A4
:101950000008E600F4FF370000C1B3000EE2B70054
:1019600004802000844D8800A409F800B209F90021
:101970001808020000000000800278006128E100E1
:101980005D003A00050020000500780036010200E5
:10199000000000000040B3004220AF000500370007
:1019A0008502E800AFE9B70024070200000000004C
:1019B000F5FF3700F04A80008404020000000000B8
:1019C000054D800040C6B300B1E9B70090C7B30031
:1019D000B6E9B70004802000944D8800A409F800FF
:1019E000B409F9009E0B020000000000804A780054
:1019F000044D8000610242000400780080027800FB
:101A0000D0C6B300B1E9B70040C7B300B6E9B7002C
:101A100004802000944D8800A409F800B409F9005E
:101A20009E0B020000000000804A7800044D8000F8
:101A300062024200040078008002780090C7B30080
:101A4000B1E9B70020C7B300B6E9B70004802000B1
:101A5000944D8800A409F800B409F9009E0B020017
:101A60000000000000037800047D20000400530003
:101A7000804A7800044D8000630242000400780030
:101A80008002780080C6B300B1E9B70020C7B30078
:101A9000B6E9B70004802000944D8800A409F8003E
:101AA000B409F9009E0B020000000000804A780093
:101AB000044D800064024200040078008002780037
:101AC000D0C6B300B1E9B700E0C6B300B6E9B700CD
:101AD00004802000944D8800A409F800B409F9009E
:101AE0009E0B020000000000804A780014002000D5
:101AF000144D880001003700A229EF00A209F80068
:101B00000000F9004F037800CF02780000000600C3
:101B1000851F7800A9C9BF000160EF000160EF00D8
:101B2000A4002000110009000480D800AAE9B70031
:101B3000544D80000960EF006A20B800444D8000D9
:101B40004822DE0000405200ABE9B700AAC9BF003E
:101B50004400DD00AB49B700CF027800000006006A
:101B6000851F78009DC9BF00A9E9B700880D020054
:101B7000000000008042780060C8B300ABE9B70005
:101B8000AC09F800E5FF9F00AC09F900540602001B
:101B9000000000009EC9BF00A9E9B700880D02003F
:101BA000000000008042780080C8B300ABE9B700B5
:101BB000AC09F800E5FF9F00AC09F90054060200EB
:101BC000000000009FC9BF00A9E9B700880D02000E
:101BD0000000000080427800C0C8B300ABE9B70045
:101BE000AC09F800E5FF9F00AC09F90054060200BB
:101BF00000000000A0C9BF00A9E9B700880D0200DD
:101C00000000000080427800A0C8B300ABE9B70034
:101C1000AC09F800E5FF9F00AC09F900540602008A
:101C200000000000A1C9BF00A9E9B700880D0200AB
:101C3000000000008042780040C8B300ABE9B70064
:101C4000AC09F800E5FF9F00AC09F900540602005A
:101C500000000000A2C9BF00A9E9B700880D02007A
:101C6000000000008042780020C8B300ABE9B70054
:101C7000AC09F800E5FF9F00AC09F900540602002A
:101C800000000000A969EF00880D020000000000BC
:101C90008042780000C8B300ABE9B700AC09F80097
:101CA000E5FF9F00AC09F9005406020000000000A7
:101CB000CF02780000000600851F7800C5002000D4
:101CC00003000900B51F780000F0A6000C003700E3
:101CD0000000EA000480A00004F0A600080037001D
:101CE000801F7800D0022000AFE9B700240702006F
:101CF000000000004F0078000480A1000860ED00A3
:101D00008002EB00800378008404780004F0A100D6
:101D10000404E00006003A0009F0A70002003700C2
:101D2000050020000F003700050020000D003700DF
:101D3000E64252000A0039000003200009F0A60024
:101D400000022000AFE9B7002407020000000000F5
:101D50008502E900FBFF3B00550020000100370031
:101D600084027800640020000580A7000402E800D7
:101D700005E0A00009F0A70005F0A000087122000E
:101D8000110009008883D800080F0200000000003D
:101D900081037800883E2000110009008883D80064
:101DA000080F0200000000008103780048062000B0
:101DB000110009008883D800080F0200000000000D
:101DC00081037800A8002000110009008883D80052
:101DD000080F0200000000000980A600050037007F
:101DE000D0022000AFE9B700240702000000000085
:101DF0000980A1000003200000C0400050018800BD
:101E0000AFE9B700240702000000000022003700FD
:101E1000060320000000E0000E003A0005E0A600E6
:101E2000160037000402E9000524E1000200320038
:101E30004200AF00000006000000E00005003A008C
:101E400005E0A6000D00370005F0A6000602200000
:101E50000A00370005E0A1000980A600070037004E
:101E600000057800D0022000AFE9B7002407020087
:101E7000000000000980A1000A0078000040430033
:101E8000811F7800AFE9B7002407020000000000BE
:101E9000CF007800000006002501200003000900A3
:101EA000CF127800CF02780000000600C769EF006B
:101EB00004802000444E8800E4152000544E880021
:101EC00070070200000000000100200001007800FF
:101ED000FA010200000000008100E800811F780084
:101EE0000F22AF00FEFF370080108800CF0078007F
:101EF000700020000008E600F4FF3700104E80005C
:101F000004002000A40A0200000000000F22AF001D
:101F1000FEFF3700D4002000841088000F22AF009D
:101F2000FEFF3700A40020008410880004802000F9
:101F3000444E8800900702000000000000000600E8
:101F4000851F7800A429EF00A629EF00C769EF00DC
:101F500004802000444E8800E4152000544E880080
:101F6000700702000000000001002000010078005E
:101F7000A4010200000000008100E800811F780039
:101F80000F22AF00FEFF370080108800CF007800DE
:101F9000A00020000008E600F4FF370004802000C5
:101FA000444E88009007020000000000F04A8000C4
:101FB0008404020000000000C769EF0004802000D4
:101FC000444E8800E4152000544E8800700702003B
:101FD000000000000100200001007800BC010200A8
:101FE000000000008100E800811F78000F22AF0090
:101FF000FEFF370080108800CF007800000320002B
:102000000008E600F4FF370004802000444E8800FA
:102010009007020000000000F04A800084040200E3
:1020200000000000C769EF0004802000444E8800D3
:10203000E4152000544E88007007020000000000E4
:102040000100200001007800720202000000000080
:102050008100E800811F78000F22AF00FEFF3700EB
:1020600080108800CF007800700120000008E60092
:10207000F4FF3700F04C800004002000A40A0200A6
:1020800000000000A101200001007800720202009F
:10209000000000008100E800811F78000F22AF00DF
:1020A000FEFF370080108800CF0078006004200019
:1020B0000008E600F4FF37000E02AE00FEFF370016
:1020C000901080006A04E100FBFF3A0004802000C9
:1020D000334D8000848241000E02AE00FEFF3700C7
:1020E00090108000804A7800A629EC00344D8000D2
:1020F000E31520000418E10007003400344D80008F
:10210000E102520004802000048042001042780066
:1021100044C2B200EDFF3A0000C1B3000EE2B700C6
:1021200004802000844D8800A609F800B209F90057
:102130001808020000000000800278006128E10019
:102140000E003A00054D8000D0C6B300B1E9B700DB
:1021500040C6B300B6E9B70004802000944D880063
:10216000A609F800B409F9009E0B02000000000067
:10217000800A780014002000244D8800C769EF0011
:1021800004802000444E8800E4152000544E88004E
:102190007007020000000000A629EF0001002000E7
:1021A00001007800BE020200000000008100E8008B
:1021B000811F78000F22AF00FEFF370080108800DB
:1021C000CF007800900120000008E600F4FF3700FF
:1021D000F04C800004002000A40A0200000000006F
:1021E000C101200001007800BE02020000000000D2
:1021F0008100E800811F78000F22AF00FEFF37004A
:1022000080108800CF007800800420000008E600DD
:10221000F4FF37000E02AE00FEFF37009010800082
:102220006A04E100FBFF3A0004802000334D800087
:10223000848241000E02AE00FEFF37009010800045
:10224000804A7800A629EC00344D8000E315200078
:102250000418E10007003400344D8000E102520010
:1022600004802000048042001042780044C2B20082
:10227000EDFF3A0004802000844D8800A609F80094
:10228000B209F9001808020000000000800278007E
:102290006128E1000E003A00154D800030C7B30000
:1022A000B1E9B70040C7B300B6E9B7000480200029
:1022B000944D8800A609F800B409F9009E0B0200AD
:1022C00000000000804A780014002000244D88009F
:1022D0002003200084040200000000000F22AF0051
:1022E000FEFF3700B4022000841088000F22AF00E8
:1022F000FEFF3700B4022000841088000F22AF00D8
:10230000FEFF3700B40220008410880000C1B30033
:102310000EE2B70004802000444E880090070200BF
:1023200000000000200320008404020000000000E0
:1023300014002000144E8800560F02000000000018
:10234000CF02780000000600851F7800A3C9BF00F7
:10235000A4E9B700A4C9BF000160EF004400DE009B
:10236000004278000960EF006A20B800A3E9B700D6
:10237000A4C9BF004400DD000160EF004400DE009E
:10238000A369B400A3C9BF00CF0278000000060013
:10239000851F7800861F7800E10820000000E0001B
:1023A0001200320000F0A700040037004200A9002C
:1023B0000080D2008100E900FAFF37000180FD00B3
:1023C0004200A9008180D30000F0A1000080FD0040
:1023D000814068000040B2000700370001407800EB
:1023E0000170A0000140B200030037000000EB00C4
:1023F0008000EB00000037004F037800CF02780028
:1024000000000600851F7800C500200003000900B9
:10241000B51F78008004EB00080028004300AF00DF
:1024200083016C00010578008A856900010378004A
:1024300083037800030678004220A9004200A90027
:102440000683D2000680FD00F60FB2000600E00011
:10245000A10032004220A9004200A9008783D200D7
:102460000780FD00F70FB2000700E0009F00320078
:102470004220A9004200A9000638E1009C00320079
:10248000A30033000900A1000910A0000684530036
:1024900007037800F10FB2000170A000F30FB20043
:1024A0000370A000870220000838E100110033000B
:1024B0004220A9004200A9008180D3000080D300FF
:1024C0000804E900FAFF3A000D00370087022000F7
:1024D0000838E100090033004220A9004200A900A9
:1024E0008381D3000281D3000804E900FAFF3A0097
:1024F0000F003700020078008300780043003700A7
:102500000BF0A600110037000940A7008C057800E9
:102510000000EA000200320081C0EA00010037003A
:102520008100EA000940A7002B00370007003700B0
:102530000BF0A600050037000201EA00020032009D
:1025400083C1EA00010037008301EA00F50FB20001
:102550004220A9004200A9000200400083C04800B8
:102560004200AF000930A0000900A70009003700B1
:102570000910A700010037000B0037000BF0A7007F
:10258000150037000930A700290037000960A000B6
:102590001E0037000BF0A7000F0037000930A7001E
:1025A00023003700190037000920A1000BF0A70015
:1025B000040037008A0578000930A7001C003700A6
:1025C000360037000940A00001C8B2000170A70022
:1025D000CDFF37008A057800F10FB200810370004B
:1025E0000A0032000170A700080037004220A9004D
:1025F0004200A9000080D2008180D2000603E900D9
:102600004220AF0031003700F6FF37000900A70075
:102610008A0578000910A7008C0578000950A600EB
:102620001A0037000AF0A7000080A0001B00370046
:102630004200A80081C0D3000080D3004200AF0058
:102640000950A0000603E800200032000950A6004F
:10265000080037000000E80006003A008140E8006A
:1026600004003A0081C0D3000080D3000603E800D4
:10267000160032000900A7008A0578000910A7009B
:102680008C0578004220AF00100037000960A700D9
:102690008A0578000970A7008C0578000101700098
:1026A000230032000170A1000680FD004220A90035
:1026B0004200A9000683D30081006B0001F0A00056
:1026C0000BF0A60001F0A100190037000000200067
:1026D00001002000160037000AF0A70083016C00FB
:1026E00002007800830078001100370010003700E6
:1026F000F30FB2000370A000F10FB2000170A00050
:102700000BF0A7000370A1000920A00088FF37008C
:1027100007045300F10FB2000170A000F30FB200E4
:102720000370A0000910A1000900A00067FF370096
:102730002501200003000900CF127800CF027800A5
:1027400000000600851F7800C50020000400090075
:10275000B51F78008004EB008384680001037800D3
:102760008002780003047800820378008180D20020
:102770000180FD008180FB000100E0004E0032007E
:102780008381D2000380FD008381FB000300E00011
:10279000490032000000EB0003C050000300390084
:1027A000F047B00044003100030037001048B1008A
:1027B00041003900400032008500780006017800B1
:1027C0000270A000F20FB200F80FB2000870A00073
:1027D0009A0120008001EB000002EB00878050008E
:1027E00008015900020033000400310004003A00DF
:1027F0008780400008014900010037000400A00064
:102800000A05E900070032004200A9008180D200D9
:102810000281D2004200A9000482D2008381D2004A
:10282000EEFF37000005EB000380A7000100370032
:10283000060037004200A9008381D3000370A10085
:102840000482D3000A85D200020037000000E900AC
:10285000190032000AF0A700050039008180D2007B
:102860000281D20087805000080159000900390018
:102870000402E80007003A008301E80005003A007E
:102880000000E8000C003200020037000000E90000
:10289000090032000080FD008080D30001F0A0001C
:1028A00009F0A60001F0A1000370A10081C0690039
:1028B0000400780003003700000020000100200021
:1028C000000037004501200004000900CF12780005
:1028D000CF02780000000600851F7800C5002000A8
:1028E00004000900B51F780000027800810278001A
:1028F00083037800020378004200A9004220A90067
:102900008180D2000180FD00F10FB2000100E000E3
:10291000480032004200A9004220A9008381D20071
:102920000380FD00F30FB2000300E000410032001D
:102930000080FB0001C0410004003100F007B1003D
:102940003C0032003B003900020037001048B00064
:102950003800310007856A004200A9004220A90022
:10296000F50FB2000570A0004200A900F70FB200F9
:102970000770A0000621B800062CB80083014C00A7
:1029800089007800043CB80083014C0081804C0031
:10299000072CB80081004C000000E8000100E000B6
:1029A0004220AF0001003700030037000300E000C1
:1029B0004220AF000500370001F0A70003003700F8
:1029C0008381D2008180D2000000E90001017800FB
:1029D0004200A9000370A6000900370007F02F008D
:1029E000878161000310B000600149000200E0002F
:1029F00003003A000300E00001003A000000E80094
:102A00000080FD004200A9004220A9008080D30080
:102A10000AF0A70001F0A00002F0A1000280FD0072
:102A2000814069000380FD000341780002007800C6
:102A300003003700000020000100200000003700E4
:102A40004501200004000900CF127800CF02780071
:102A500000000600851F780082017800820278005D
:102A60004200A9008381D2000380FD00F30FB20071
:102A700003003A006000B8006011B800160037008B
:102A80000338B000F207B200360020000002EB006D
:102A90004200A9000281D3008180D3000080D300CE
:102AA0004200AF000402E8000603E900F8FF3A0024
:102AB0000270A100C419DD0003F0A10005F0A70019
:102AC00003F0A00083016900010178008000780014
:102AD000810042000000EB00CF02780000000600F9
:102AE000881F78002801200004000900B81F780022
:102AF0008005EB006066B800030478008704780066
:102B0000FA7F20004200A9004220A90044C4DE0050
:102B1000080465000800E000700032004200A900CF
:102B20004220A900C4CCDE00890465000900E00051
:102B30006A0032000884440009B0A700040037008E
:102B4000F83FB1006500320064003900030037002F
:102B50001A402000854245006000310087866900E8
:102B60004200A9004220A900F300B2000340A000E7
:102B7000F700B2000740A000881F78000124B800C9
:102B8000002DB8000A0544008B854C000C80B00075
:102B90000224B8008B0544000C864C00012CB800C0
:102BA0008B0544000C864C000034B8000005EB0097
:102BB0008B0544000C864C000A80B0008005EB00B9
:102BC0000324B8000C0644000A854C000B80B000BA
:102BD000022CB8000C0644000A854C000B80B000A3
:102BE0000134B8000C0644000A854C000B80B0008C
:102BF000003CB8000C0644000A854C000B80B00075
:102C00000C0078000006EB00032CB8000A05440015
:102C10008B854C000C80B0000234B8000A054400DB
:102C20008B854C000C80B0000334B8008B05440049
:102C30000C864C00013CB8000A0544008B854C0012
:102C40000C80B000023CB8008B0544000C864C00A0
:102C5000033CB8000C0644008A0078000B017800A1
:102C60008C017800540020004200A9008381D30029
:102C70000281D3008180D3000080D3000402E900E8
:102C8000F9FF3A004F0478000804E80001037000DF
:102C90000100320002003700030371000800320017
:102CA0000340A700060037004200A9000080D200C0
:102CB0008180D2000281D2008381D2000804E90021
:102CC0004444DD0003F0A1000DF0A70003F0A000D4
:102CD0000340A10083016C00030037006000B800CE
:102CE0006001B80000003700A801200004000900BE
:102CF0004F1478004F04780000000600851F78000C
:102D0000C500200005000900B51F78000304780005
:102D10008203780001037800800278008304780041
:102D20003B472000C499DE00FA7F20008301650044
:102D300083855500F801B2000840A0000000EB00B8
:102D40008000EB000001EB008001EB004200A900D5
:102D50000884D3008783D3000683D3008582D30001
:102D60008381D3000281D3008180D3000080D3000F
:102D70008B05E900F5FF3A0009F0A60005003700D1
:102D80000000EA008180EA000281EA008381EA0013
:102D9000000037006501200005000900CF1278000F
:102DA000CF027800000006008C1F78008D1F78008D
:102DB0000004EB008004EB000005EB008005EB0055
:102DC0000006EB008006EB00E80020000900200070
:102DD0001000FA000C377C000884E900FDFF3B007E
:102DE00005046A0002003A0007046B002F0032005D
:102DF0000004EB000D0420000D0420004200A90097
:102E00000080D2008180D2000281D2008381D20072
:102E10000884D2008984D2000A85D2008B85D20032
:102E20000758E10005003A0006D0E10003003A002F
:102E300005C8E10001003A0004C0E10005003900C6
:102E40000404540085845C0006055D0087855D00F0
:102E50004200A800080F7800190798002A07980078
:102E60003B0798004E049000DE0490006E05900031
:102E7000FE0590000884D2008984D2000A85D20021
:102E80008B85D20048079800590798006A07980078
:102E90007B0798001E0478009E0490002E05900089
:102EA000BE0590008D06E900D4FF3A004E00900068
:102EB000DE0090006E019000FE0190000080FA009C
:102EC00000003700CF0678004F06780000000600AB
:102ED000851F7800C500200007000900B51F780095
:102EE0002A00FA00880220000006EB000C377C0064
:102EF0000884E900FDFF3B000900E0000E003200FD
:102F0000391798004A179800470224000003EB0085
:102F10006022B80029179800470224000003EB0044
:102F20006022B8007015020000000000AE1490008E
:102F30008904E900F7FF3A00BE1490004001200028
:102F400020179800D71C240056D62C006022B80009
:102F5000000F9800110F9800220F9800330F98006F
:102F6000480120000817980004002000859E2800D2
:102F70004630220077AC2800440F9800550F980087
:102F8000660F9800770F980003F0A6000400370042
:102F90004E1490000804E90008D0A00048179800DB
:102FA00003F0A1007E160200000000004E14900005
:102FB000BE1490000900E0004220AF000844E80081
:102FC000481798009E1490008004EB001917980091
:102FD0004E0A9000DE0A90006E0B9000FE0B9000EF
:102FE000D4160200000000009E1690000D00A700FD
:102FF00062003700080F9800190F98002A0F9800F8
:103000003B0F98009E1690000D00A2001D1798001F
:103010000000E00012003A00BE1490008904E800AD
:103020002E159000090455000D003200CE159000B9
:103030000B00E0000E0032007F846500080455009C
:1030400001003200410031000BF0A7003F003700C3
:103050000BE0A70006003700000220003700370011
:10306000CE1590000C0022008B0566004B179800CF
:10307000CE1590000BD0A6000F0037000BD0A1009A
:10308000BE1490000900E0004220AE008B05E9006C
:103090008005EB004B17980000057800D0C2B30004
:1030A000AFE9B70024070200000000000A00780022
:1030B0008005EB004B179800BE1490002E15900071
:1030C000090455000C003A008005EB004B179800EE
:1030D00000057800E0C2B300AFE9B70024070200A2
:1030E00000000000CE1590000C0022008B05660049
:1030F0004B1798000A00780001032000CE159000BD
:103100000BD0A6000D0037000BD0A100BE1490001C
:103110000900E0004220AE008B05E9008005EB00CD
:103120004B179800D0C2B300AFE9B70024070200E4
:10313000000000000000EB000103200000804000C0
:10314000AFE9B7002407020000000000AE169000AF
:103150008D06E900190032002D1798004E089000E6
:10316000DE0890006E099000FE099000A400200087
:103170008002EB006033B80099FF3700400F9800E1
:10318000510F9800620F9800730F980000027800AA
:103190008102780002037800830378000E08900013
:1031A0009E0890002E099000BE0990009E16900087
:1031B0000D00A2001D17980089FF37000080FA005B
:1031C000A501200007000900CF127800CF02780087
:1031D00000000600851F7800C500200007000900D8
:1031E000B51F78002A00FA00880220000006EB00D4
:1031F0000C377C000884E900FDFF3B000900E0007B
:103200000E003200391798004A1798004702240030
:103210000003EB006022B800291798004702240041
:103220000003EB006022B8007015020000000000EF
:10323000AE1490008904E900F7FF3A00BE14900034
:103240004001200020179800D71C240056D62C00DF
:103250006022B800000F9800110F9800220F98000C
:10326000330F980048012000081798000400200040
:10327000859E28004630220077AC2800440F980035
:10328000550F9800660F9800770F980003F0A6007E
:10329000040037004E1490000804E90008D0A00094
:1032A0004817980003F0A1007E16020000000000FD
:1032B0004E149000BE1490000900E0004220AF00C0
:1032C0000844E800481798009E1490008004EB0022
:1032D000191798004E0A9000DE0A90006E0B9000BD
:1032E000FE0B9000D4160200000000009E16900015
:1032F0000D00A70062003700080F9800190F980012
:103300002A0F98003B0F98009E1690000D00A20017
:103310001D1798000000E00012003A00BE14900053
:103320008904E8002E159000090455000D003200B4
:10333000CE1590000B00E0000E0032007F84650087
:103340000804550001003200410031000BF0A700D5
:103350003F0037000BE0A700060037000002200006
:1033600037003700CE1590000C0022008B05660058
:103370004B179800CE1590000BD0A6000F00370019
:103380000BD0A100BE1490000900E0004220AE0066
:103390008B05E9008005EB004B17980000057800CD
:1033A0000F22AF00FEFF3700D402200084108800F7
:1033B0000A0078008005EB004B179800BE149000BF
:1033C0002E159000090455000C003A008005EB0012
:1033D0004B179800000578000F22AF00FEFF370062
:1033E000E402200084108800CE1590000C0022001A
:1033F0008B0566004B1798000A0078000103200037
:10340000CE1590000BD0A6000D0037000BD0A10008
:10341000BE1490000900E0004220AE008B05E900D8
:103420008005EB004B1798000F22AF00FEFF37001E
:10343000D4022000841088000000EB00010320006B
:10344000008040000F22AF00FEFF37008010880090
:10345000AE1690008D06E900190032002D17980075
:103460004E089000DE0890006E099000FE09900062
:10347000A40020008002EB006033B80099FF370001
:10348000400F9800510F9800620F9800730F98003A
:10349000000278008102780002037800830378003C
:1034A0000E0890009E0890002E099000BE09900022
:1034B0009E1690000D00A2001D17980089FF37008E
:1034C0000080FA00A501200007000900CF12780053
:1034D000CF02780000000600851F7800B429EF00B5
:1034E000C769EF0004802000444E8800E4152000E6
:1034F000544E880070070200000000000100200008
:1035000001007800A4010200000000008100E80032
:10351000811F78000F22AF00FEFF37008010880067
:10352000CF007800A00020000008E600F4FF37007C
:1035300004802000444E8800900702000000000034
:10354000F04A80008404020000000000C769EF0018
:1035500004802000444E8800E4152000544E88006A
:103560007007020000000000010020000100780048
:10357000BC010200000000008100E800811F78000B
:103580000F22AF00FEFF370080108800CF007800C8
:10359000000320000008E600F4FF3700048020004C
:1035A000444E88009007020000000000F04A8000AE
:1035B0008404020000000000C769EF0004802000BE
:1035C000444E8800E4152000544E88007007020025
:1035D0000000000001002000010078000C03020040
:1035E000000000008100E800811F78000F22AF007A
:1035F000FEFF370080108800CF007800D001200047
:103600000008E600F4FF3700404D80000400200071
:10361000A40A02000000000001022000010078005E
:103620000C030200000000008100E800811F780008
:103630000F22AF00FEFF370080108800CF00780017
:10364000700220000008E600F4FF3700504D8000B3
:1036500004002000A40A020000000000A1022000D3
:10366000010078000C030200000000008100E80067
:10367000811F78000F22AF00FEFF37008010880006
:10368000CF007800200320000008E600F4FF370098
:10369000724D8000614D8000000020002A1502005C
:1036A00000000000390020005A002000EA18020043
:1036B0000000000081032000010078000C030200DC
:1036C000000000008100E800811F78000F22AF0099
:1036D000FEFF370080108800CF0078000004200033
:1036E0000008E600F4FF3700924D8000814D800015
:1036F000000020002A150200000000003900200010
:103700005A002000EA1802000000000061042000B6
:10371000010078000C030200000000008100E800B6
:10372000811F78000F22AF00FEFF37008010880055
:10373000CF007800200720000008E600F4FF3700E3
:103740000E02AE00FEFF3700901080006A04E10018
:10375000FBFF3A0004802000A34D800084824100DA
:103760000E02AE00FEFF370090108000804A780005
:10377000B429EC00A44D8000E31520000418E100FA
:1037800007003400A44D8000E102520004802000B4
:10379000048042001042780044C2B200EDFF3A00BB
:1037A0002003200084040200000000000F22AF006C
:1037B000FEFF3700B4022000841088000F22AF0003
:1037C000FEFF3700B4022000841088000F22AF00F3
:1037D000FEFF3700B40220008410880000C1B3004F
:1037E0000EE2B70004802000444E880090070200DB
:1037F00000000000200320008404020000000000FC
:1038000014002000144E8800560F02000000000033
:10381000803821008404020000000000CF027800FC
:103820000000060081E0A800040028006410880061
:10383000044020007410880034002000A410880088
:1038400044062000F44A88006029EF00140020009C
:10385000144B880014002000244B88006629EF00D8
:103860006829EF006A29EF0094002000644B88006B
:103870006E29EF007029EF007229EF007429EF0024
:103880007629EF007829EF007A29EF007C29EF00F4
:103890007E29EF008029EF008229EF008429EF00C4
:1038A0008629EF008829EF009C69EF00A8A2EF00AD
:1038B0000FF82000F0FF200020A0B700000000005B
:1038C0000028EF000228EF000428EF000628EF0090
:1038D0000828EF000A28EF000C28EF000E28EF0060
:1038E0001028EF001228EF001428EF001628EF0030
:1038F0001828EF001A28EF001C28EF001E28EF0000
:103900002028EF002228EF002428EF002628EF00CF
:103910002828EF002A28EF002C28EF002E28EF009F
:103920003028EF003228EF003428EF003628EF006F
:103930003828EF003A28EF003C28EF003E28EF003F
:103940004028EF004228EF004428EF004628EF000F
:103950004828EF004A28EF004C28EF004E28EF00DF
:103960005028EF005228EF005428EF005628EF00AF
:103970005828EF005A28EF005C28EF005E28EF007F
:103980006028EF006228EF006428EF006628EF004F
:103990006828EF006A28EF006C28EF006E28EF001F
:1039A0007028EF007228EF007428EF007628EF00EF
:1039B0007828EF007A28EF007C28EF007E28EF00BF
:1039C0008028EF008228EF008428EF008628EF008F
:1039D0008828EF008A28EF008C28EF008E28EF005F
:1039E0009028EF009228EF009428EF009628EF002F
:1039F0009828EF009A28EF009C28EF009E28EF00FF
:103A0000A028EF00A228EF00A428EF00A628EF00CE
:103A1000A828EF00AA28EF00AC28EF00AE28EF009E
:103A2000B028EF00B228EF00B428EF00B628EF006E
:103A3000B828EF00BA28EF00BC28EF00BE28EF003E
:103A4000C028EF00C228EF00C428EF00C628EF000E
:103A5000C828EF00CA28EF00CC28EF00CE28EF00DE
:103A6000D028EF00D228EF00D428EF00D628EF00AE
:103A7000D828EF00DA28EF00DC28EF00DE28EF007E
:103A8000E028EF00E228EF00E428EF00E628EF004E
:103A9000E828EF00EA28EF00EC28EF00EE28EF001E
:103AA000F028EF00F228EF00F428EF00F628EF00EE
:103AB000F828EF00FA28EF00FC28EF00FE28EF00BE
:103AC0000029EF000229EF000429EF000629EF008A
:103AD0000829EF000A29EF000C29EF000E29EF005A
:103AE0001029EF001229EF001429EF001629EF002A
:103AF0001829EF001A29EF001C29EF001E29EF00FA
:103B00002029EF002229EF002429EF002629EF00C9
:103B10002829EF002A29EF002C29EF002E29EF0099
:103B20003029EF003229EF003429EF003629EF0069
:103B30003829EF003A29EF003C29EF003E29EF0039
:103B40004029EF004229EF004429EF004629EF0009
:103B50004829EF004A29EF004C29EF004E29EF00D9
:103B60005029EF005229EF005429EF005629EF00A9
:103B70005829EF005A29EF005C29EF0004202000AB
:103B8000544C8800D4802000644C8800E40120005C
:103B9000744C880094212000844C8800D43021008B
:103BA000944C8800B4012000A44C8800942120008B
:103BB000B44C8800D4302100C44C8800D4012000CB
:103BC000D44C8800AE05020000000000B2060200DE
:103BD00000000000050020000500780076030200C8
:103BE000000000000040B3004220AF000500370095
:103BF0008502E800AFE9B7002407020000000000DA
:103C0000F5FF370040062000840402000000000099
:103C100004F82F0044158800A222EF0004082000B9
:103C200024158800040E280004158800F4072000DD
:103C30003416880000C1B3000EE2B700520802003B
:103C4000000000006C09F8009E09F900A49820000B
:103C5000044D8800140C0200000000000080B20037
:103C6000030032001080B2000E00320068003700FE
:103C700005002000050078004A0102000000000055
:103C80000040B3004220AF00050037008502E80085
:103C9000AFE9B7002407020000000000F5FF37007D
:103CA000680037008AC9BF009DE9B7008BC9BF0013
:103CB0009EE9B7008CC9BF009FE9B7009CC9BF004F
:103CC000A0E9B7008DC9BF00A1E9B7008EC9BF0048
:103CD000A2E9B700B00D02000000000005002000BE
:103CE0000500780010010200000000000040B30051
:103CF0004220AF00050037008502E800AFE9B700B9
:103D00002407020000000000F5FF37000500200036
:103D10000500780094030200000000000040B3009A
:103D20004220AF00050037008502E800AFE9B70088
:103D30002407020000000000F5FF37008AC9BF0019
:103D40000000FB00040020005C0E020000000000E8
:103D5000F0C2B300AFE9B700240702000000000082
:103D60008BC9BF000000FB00040020005C0E0200B5
:103D700000000000F0C2B300AFE9B7002407020062
:103D80000000000020C3B300AFE9B7002407020021
:103D90000000000000C3B300AFE9B7002407020031
:103DA000000000008CC9BF000000FB0004002000E0
:103DB0005C0E02000000000000C2B300AFE9B700D3
:103DC00024070200000000008DC9BF000000FB00B6
:103DD000240028005C0E020000000000A0C3B30015
:103DE000AFE9B70024070200000000008EC9BF0041
:103DF0000000FB00240028005C0E02000000000010
:103E0000803E200084040200000000000D00370006
:103E100005002000050078004A01020000000000B3
:103E20000040B3004220AF00050037008502E800E3
:103E3000AFE9B7002407020000000000F5FF3700DB
:103E40000000370014002000144E8800560F0200B6
:103E5000000000006E29EF00744B80006420E10038
:103E600080023D006609E20002003A00D722A90064
:103E700001003700D722A800D322A90005002000A6
:103E800005007800AC030200000000000040B30011
:103E90004220AF00050037008502E800AFE9B70017
:103EA0002407020000000000F5FF37006C09F8004D
:103EB0009E09F90004962000044D880044962000D5
:103EC000144D8800A00F020000000000C05D20001B
:103ED0008404020000000000004B80002080B2003B
:103EE000030032003080B2000800320023003700A7
:103EF0006409F8006209F9006209F8006809F9002C
:103F00006209F8006A09F9001D0037008AC9BF007C
:103F10009049E30008003A008DC9BF009349E300CF
:103F200005003A0094C9BF00744C80000024E100F1
:103F3000010039006229EF008AC9BF009649E300F9
:103F400009003A008DC9BF009949E30006003A0014
:103F50009AC9BF00744C80000024E10002003900BF
:103F600014002000144B88006209F8006809F90069
:103F70006209F8006A09F900010037000000370003
:103F80006809E20002003A00CAE2A9000100370015
:103F9000CAE2A800E4072000341688006A09E2009B
:103FA00002003A00CB02A90001003700CB02A800B2
:103FB000E407200034168800050020000500780082
:103FC00010010200000000000040B3004220AF00DA
:103FD000050037008502E800AFE9B70024070200BA
:103FE00000000000F5FF3700050020000500780004
:103FF00094030200000000000040B3004220AF0024
:10400000050037008502E800AFE9B7002407020089
:1040100000000000F5FF370070C8B300A1E9B70049
:104020006E06020000000000804278000540780023
:10403000A3E9B700A4110200000000008AE9B7005C
:1040400090C8B300A1E9B7006E06020000000000AE
:104050008042780005407800A3E9B700A41102006F
:10406000000000008BE9B700D0C8B300A1E9B70099
:104070006E060200000000008042780005407800D3
:10408000A3E9B700A4110200000000008CE9B7000A
:10409000B0C8B300A1E9B7006E060200000000003E
:1040A0008042780005407800A3E9B700A41102001F
:1040B000000000009CE9B70050C8B300A1E9B700B8
:1040C0006E06020000000000804278000540780083
:1040D000A3E9B700A4110200000000008DE9B700B9
:1040E00030C8B300A1E9B7006E060200000000006E
:1040F0008042780005407800A3E9B700A4110200CF
:10410000000000008EE9B70010C8B300A1E9B700B5
:104110006E06020000000000804278000540780032
:10412000A3E9B700A4110200000000008FE9B70066
:104130008AC9BF000000FB00040020005C0E0200E2
:1041400000000000F0C2B300AFE9B700240702008E
:10415000000000008BC9BF000000FB00040020002D
:104160005C0E020000000000F0C2B300AFE9B7002F
:10417000240702000000000020C3B300AFE9B7002D
:10418000240702000000000000C3B300AFE9B7003D
:1041900024070200000000008CC9BF000000FB00E3
:1041A000040020005C0E02000000000000C2B3000A
:1041B000AFE9B70024070200000000008DC9BF006E
:1041C0000000FB00240028005C0E0200000000003C
:1041D000A0C3B300AFE9B70024070200000000004D
:1041E0008EC9BF000000FB00240028005C0E020006
:1041F00000000000007D2000840402000000000098
:1042000005002000050078001001020000000000F9
:104210000040B3004220AF00050037008502E800EF
:10422000AFE9B7002407020000000000F5FF3700E7
:104230000100200001007800D60302000000000009
:104240008100E800811F7800AFE9B7002407020071
:1042500000000000CF007800500020000008E600B9
:10426000F4FF3700004B8000040020005C0E0200C9
:10427000000000008100200001007800D603020049
:10428000000000008100E800811F7800AFE9B7005E
:104290002407020000000000CF0078000001200089
:1042A0000008E600F4FF3700104B800004002000F7
:1042B0005C0E020000000000007D2000840402006B
:1042C00000000000A622EF00A002A900A022A80082
:1042D000A002AE00FEFF370000148000C8110200EB
:1042E00000000000D04B8800E14B8800DF0209008D
:1042F000000000001400200034158800A002A9006E
:10430000A022A800A002AE00FEFF3700001480002B
:10431000C811020000000000904B8800A14B8800EB
:10432000DF0209000000000054002000341588005E
:10433000A002A900A022A800A002AE00FEFF370044
:1043400000148000C811020000000000B04B88007B
:10435000C14B8800DF02090000000000340020008B
:1043600034158800A002A900A022A800A002AE0077
:10437000FEFF370000148000C8110200000000009A
:10438000F04B8800014C8800DF02090000000000AB
:104390004400200034158800A002A900A022A80033
:1043A000A002AE00FEFF370000148000C81102001A
:1043B00000000000104C8800214C8800DF0209003A
:1043C000000000007029EF00844B80006A20E100AB
:1043D00016003D006400200034158800A002A900EA
:1043E000A022A800A002AE00FEFF3700001480004B
:1043F000C8110200000000004300A900000178007D
:1044000081017800304C8000414C80000212020093
:1044100000000000304C8800414C88006E0109000B
:10442000000000007029EC00E7FF3700A0702D00AD
:1044300031082400324C8000434C8000A21302005B
:1044400000000000304C8800414C8800D04B8000B8
:10445000E14B8000324C8000434C80006C14020021
:1044600000000000D04B8800E14B8800B04B80007A
:10447000C14B8000324C8000434C80006C14020021
:104480000000000080027800010378000500780039
:1044900086007800D2A32000730424006C1402006C
:1044A00000000000B04B8800C14B8800F04B80003A
:1044B000014C8000324C8000434C80006C140200A0
:1044C00000000000800278000103780005007800F9
:1044D00086007800325C2F0083E22300A2130200E2
:1044E00000000000F04B8800014C8800104C800058
:1044F000214C8000324C8000434C80006C14020040
:1045000000000000800278000103780005007800B8
:1045100086007800325C2F0083E22300A2130200A1
:1045200000000000104C8800214C8800050020008D
:104530000500780010010200000000000040B300F8
:104540004220AF00050037008502E800AFE9B70060
:104550002407020000000000F5FF370001002000E2
:1045600001007800F6030200000000008100E8006E
:10457000811F7800AFE9B7002407020000000000A7
:10458000CF007800800020000008E600F4FF37002C
:10459000C24B8000B14B8000000020002A150200B1
:1045A00000000000390020005A00200068170200B7
:1045B0000000000060C7B300AFE9B70024070200A5
:1045C00000000000007D20008404020000000000C4
:1045D0000500200005007800100102000000000026
:1045E0000040B3004220AF00050037008502E8001C
:1045F000AFE9B7002407020000000000F5FF370014
:1046000001002000010078001204020000000000F8
:104610008100E800811F7800AFE9B700240702009D
:1046200000000000CF007800800020000008E600B5
:10463000F4FF3700A24B8000914B80000000200067
:104640002A15020000000000390020005A00200056
:104650006817020000000000E1002000010078005F
:1046600012040200000000008100E800811F7800B1
:10467000AFE9B7002407020000000000CF00780077
:10468000C00120000008E600F4FF3700E24B800084
:10469000D14B8000000020002A150200000000001D
:1046A000390020005A0020006817020000000000B6
:1046B000007D2000840402000000000005002000AE
:1046C0000500780010010200000000000040B30067
:1046D0004220AF00050037008502E800AFE9B700CF
:1046E0002407020000000000F5FF37000100200051
:1046F0000100780042040200000000008100E80090
:10470000811F7800AFE9B700240702000000000015
:10471000CF007800A00020000008E600F4FF37007A
:10472000424C8000314C8000000020002A1502001D
:1047300000000000390020005A0020006817020025
:1047400000000000007D2000840402000000000042
:1047500005002000050078001001020000000000A4
:104760000040B3004220AF00050037008502E8009A
:10477000AFE9B7002407020000000000F5FF370092
:104780000100200001007800600402000000000029
:104790008100E800811F7800AFE9B700240702001C
:1047A00000000000CF007800300020000008E60084
:1047B000F4FF3700024C8000F14B80000000200025
:1047C0002A15020000000000390020005A002000D5
:1047D000681702000000000091002000010078002E
:1047E00060040200000000008100E800811F7800E2
:1047F000AFE9B7002407020000000000CF007800F6
:10480000F00020000008E600F4FF3700224C800092
:10481000114C8000000020002A150200000000005A
:10482000390020005A002000681702000000000034
:10483000D0C6B300AFE9B7002407020000000000B3
:1048400010C4B300AFE9B700240702000000000065
:104850000071220084040200000000006E29EC00B8
:104860007DFD37004300A900904B8000A14B8000E4
:1048700002002000832C240002120200000000002D
:1048800080027800010378004300A900D04B80002B
:10489000E14B800002002000832C24000212020061
:1048A0000000000080037800010478006C09F80023
:1048B000A809F9006209F800AA09F900654D880005
:1048C000764D8800874D8800984D88006C1A02004C
:0C48D000000000005FFD37000040FE000B
:0200000401F009
:1000000001C700003F000000330700000F3100006F
:0C0010000F3300000700000003C00000D8
:00000001FF
;DSPIC30F5015
;CRC=1F63  CREATED="04-Aug-15 18:17"
