:080000002820040000000000AC
:100200003220EF00C3102000008041001040BA00EF
:100210000160EF0000000600280C0000010600004D
:100220003220EF00C3112000008041001040BA00CE
:100230000160EF00000006000C0000003220EF001B
:10024000A3122000008041001040BA000160EF00BE
:1002500000000600415400002B43000050490000FC
:100260004E3F00000D0A0000000000003220EF00A9
:1002700023142000008041001040BA000160EF000C
:10028000000006000C4300004D440000204F000019
:100290004B0000003220EF00631520000080410079
:1002A0001040BA000160EF00000006000C4300009F
:1002B0004D440000204200004144000000000000C6
:1002C0003220EF008302200083015000050031003E
:1002D000C3172000008041001040BA000160EF0009
:1002E00000000600C017200083814100808141008A
:1002F0001380BA0000000600415473002B417400C3
:1003000049506100444372004F4E2200543D2C007E
:10031000226922006E746D0065726F006E65760052
:10032000742E69006D6F73007669740073746100D8
:10033000617272002E6D220078220D002C220A00BC
:100340006D6F0000766900003220EF00031B200073
:10035000008041001040BA000160EF00000006007C
:10036000415400002B41000049500000413D000075
:10037000310D00000A0000003220EF0023022000AF
:100380008301500005003100831D200000804100E2
:100390001040BA000160EF0000000600801D200040
:1003A00083814100808141001380BA000000060073
:1003B00041546F002B416D00495022004F3D2C00ED
:1003C000312C38002C22300077772C00772E30002B
:1003D00073652C0072762C006572310064652C0008
:1003E000757332002E730D006F6D0A006565000095
:1003F0002E6300003220EF006320200000804100C7
:100400001040BA000160EF000000060041540000F7
:100410002B41000049500000433D000025640000CE
:100420000D0A0000000000003220EF00030320004E
:1004300083015000050031000323200000804100AB
:100440001040BA000160EF00000006000023200009
:1004500083814100808141001380BA0000000600C2
:1004600047457600542065002F547200494D6400C2
:100470004547650050527500532F73004E4F2E00B4
:1004800057547300494D6F00452F6D00256465007A
:100490002048650054542E00502F6300312E6F0009
:1004A000310D6D000A480D006F730A00743A0D009B
:1004B00020770A00777700002E7300006572000035
:1004C0003220EF00E30220008301500005003100DC
:1004D000C3272000008041001040BA000160EF00F7
:1004E00000000600C0272000838141008081410078
:1004F0001380BA00000006004745720054207600C1
:100500002F546500494D7200454764005052650004
:10051000532F75004F4E730054492E004D45730004
:100520002F256F0064206D0048546500545065000D
:100530002F312E002E3163000D0A6F00486F6D00C1
:1005400073740D003A200A0077770D00772E0A00A9
:10055000736500003220EF00030320008301500088
:1005600005003100632C2000008041001040BA00DB
:100570000160EF0000000600602C20008381410034
:10058000808141001380BA000000060047457600D4
:10059000542065002F547200494D640045476500A2
:1005A00050527500532F73004F462E00465473006F
:1005B000494D6F00452F6D0025646500204865009A
:1005C00054542E00502F6300312E6F00310D6D00FA
:1005D0000A480D006F730A00743A0D0020770A0074
:1005E000777700002E730000657200003220EF0064
:1005F0000303200083015000050031002331200057
:10060000008041001040BA000160EF0000000600C9
:100610002031200083814100808141001380BA0095
:100620000000060047456500542072002F44760004
:1006300045566500494372004547640050526500C5
:10064000532F750047457300544D2E004F447300DF
:10065000452F6F0025646D002048650054546500E7
:10066000502F2E00312E6300310D6F000A486D00AF
:100670006F730D00743A0A0020770D0077770A0037
:100680002E7300003220EF0023032000830150006E
:1006900005003100E3352000008041001040BA0021
:1006A0000160EF0000000600E0352000838141007A
:1006B000808141001380BA000000060047456500B4
:1006C000542072002F44760045566500494372005D
:1006D0004547640050526500532F7500474573002D
:1006E00054532E005441730054556F00532F6D0026
:1006F000256465002048650054542E00502F630087
:10070000312E6F00310D6D000A480D006F730A0025
:10071000743A0D0020770A00777700002E730000EE
:100720003220EF00E3042000830150000500310077
:10073000C33A2000008041001040BA000160EF0081
:1007400000000600C03A2000838141008081410002
:100750001380BA00000006004745310054200D0008
:100760002F4D0A004F4E480049546F004F527300FE
:10077000494E740047473A0050522000532F7700EB
:10078000435277004541770054452E003F4973009E
:10079000443D65002564720026537600544165008F
:1007A00054557200533D640025646500264375006E
:1007B0005552730052452E004E5473003D256F0074
:1007C000362E6D0033666500265665004F4C2E00B0
:1007D0005441630047456F003D256D00362E0D00E6
:1007E00033660A0020480D0054540A00502F0000C0
:1007F000312E00003220EF006340200000804100D5
:100800001040BA000160EF00000006000C54000028
:10081000656C000065670000657300007469000086
:100820006F6E000020550000544300004800000097
:100830003220EF0043422000008041001040BA0007
:100840000160EF00000006004461000074650000D4
:10085000746900006D6500003A0A000000000000A5
:100860003220EF00C3432000008041001040BA0056
:100870000160EF00000006000C47000065740000F6
:10088000746900006E67000020640000617400005D
:10089000610A0000667200006F6D000020730000A6
:1008A0006572000076650000722E00002B2E00009D
:1008B000000000003220EF0063462000008041006D
:1008C0001040BA000160EF00000006004D6F00000C
:1008D000646500003A200000256400000A5300000F
:1008E0007461000074750000733A00002025000058
:1008F000640000003220EF006348200000804100C7
:100900001040BA000160EF000000060042610000E4
:100910007474000065720000793D0000202500001D
:10092000362E000033660000760000003220EF0013
:10093000234A2000008041001040BA000160EF000F
:10094000000006004375000072720000656E000032
:10095000743A000020250000362E000033660000A7
:100960006D5600000A540000656D000070650000BF
:100970007261000074750000726500003A2000008A
:10098000253600002E330000666D00005600000082
:100990003220EF00434D2000008041001040BA009B
:1009A0000160EF000000060052650000666500006F
:1009B000726500006E630000653D000020250000A8
:1009C000362E000033660000000000003220EF00E9
:1009D000234F2000008041001040BA000160EF006A
:1009E00000000600533100003A20000025360000C8
:1009F0002E330000666D0000410A000053320000F3
:100A00003A200000253600002E330000666D0000FD
:100A1000410000000000E0004220AF000400370069
:100A2000C31C0900000000000000E900F9FF3700C6
:100A300000000600BA09AF0002003700D602A90084
:100A400001003700D602A800D202A900BA29AF00DF
:100A500002003700D622A90001003700D622A800E4
:100A6000D222A900BA49AF0002003700D642A9003D
:100A700001003700D642A800D242A900BA69AF00EF
:100A800002003700D662A90001003700D662A80034
:100A9000D262A90000000000CB82A800E407200079
:100AA000341688000C00090000000000CB82A90069
:100AB000E40720003416880000000600851F780037
:100AC000BA69EF00D202A8000040EB00D402AF00E8
:100AD0000000E800BA69B700D222A8000040EB008D
:100AE000D422AF000000E8004100DD00BA69B70081
:100AF000D242A8000040EB00D442AF000000E80062
:100B00004200DD00BA69B700D262A8000040EB00E5
:100B1000D462AF000000E8004300DD00BA69B7000E
:100B2000BAC9BF0000E0B700CF027800000006009D
:100B3000851F7800D202A800D222A800D242A800C5
:100B4000D262A800CB62A800E40720003416880017
:100B500000000000CB82A800E407200034168800C3
:100B6000000000005E05020000000000B9E9B700C7
:100B7000CB82A900E40720003416880000000000A2
:100B8000CB82A800E4072000341688000500090085
:100B9000000000005E05020000000000B8E9B70098
:100BA000CB82A900E407200034168800D202A900F5
:100BB000D222A900D242A900D262A900B9C9BF00BD
:100BC0004400DD00B849B700CF02780000000600FD
:100BD000851F7800CB42A900E40720003416880066
:100BE0009805020000000000804278000570A70010
:100BF000FBFF3700B449E20002003A00CB42A900F3
:100C000001003700CB42A800E4072000341688001A
:100C100000000000CB62A900E40720003416880021
:100C200000000000CB82A900E407200034168800F1
:100C3000A54D8000C82ADE000B60EF00C42ADE004C
:100C4000BA09F800E5FF9F00BA09F9001A05020089
:100C500000000000B5C9BF00EF426000BA09F8000B
:100C6000E5FF9F00BA09F9001A0502000000000024
:100C7000CF02780000000600851F7800D202A9008C
:100C8000D222A900D242A900D262A900E407200022
:100C900034168800E407200034168800E40720009A
:100CA00034168800CB42A900E407200034168800DF
:100CB000CB62A900E407200034168800CB82A9008B
:100CC000E407200034168800F00020000A05020026
:100CD0000000000010C0B3009CE9B700E44C8000A5
:100CE0006324E1000C003E0030C0B300BAE9B70055
:100CF0001A05020000000000F00F090000000000CB
:100D0000FF3F090000000000FF3F09000000000055
:100D10009C69EC00F1FF370020C0B300BAE9B700CE
:100D20001A050200000000009C69EF00E44C8000FE
:100D30006324E1000C003E009CC9BF000160EF008D
:100D4000000102000000000080427800B469EF005A
:100D500005407800B5E9B700E80502000000000092
:100D60009C69EC00F1FF3700CF027800000006001C
:100D7000AF69EF00744D80004822DE006724E10077
:100D80000D003E004200A900AEE9D700020031008C
:100D9000D6C2A90001003700D6C2A800D2C2A9005D
:100DA000D2A2A900D6A2A800D2A2A900D6A2A900C8
:100DB000AF69EC00EFFF370000000600D282A90007
:100DC000D682A800AAC9BF00AEE9B700B8060200E3
:100DD00000000000ABC9BF00AEE9B700B8060200D2
:100DE00000000000D282A900D682A90000000600FF
:100DF000D282A900D682A800A0C9BF00AEE9B70080
:100E0000B806020000000000D2C2A80005000900D8
:100E100000000000A169EF00044D80004822DE00C0
:100E20006724E10011003E00D2C2A800D4C2AF0086
:100E3000020037004200A900010037004200A8006C
:100E4000A2E9D700D2A2A900D6A2A8000C000900EE
:100E500000000000D2A2A900D6A2A9000C0009003F
:100E600000000000A169EC00EBFF3700D282A9006E
:100E7000D682A900A2C9BF0000E0B70000000600AA
:100E8000851F7800D282A900D682A9000C00090033
:100E900000000000D2A2A900D6A2A900E0C8B300B9
:100EA000AAE9B700AB69EF00DE060200000000000F
:100EB00000C9B300AAE9B70040CAB300ABE9B70064
:100EC000DE0602000000000010C8B300A0E9B70071
:100ED000F8060200000000009CE9B7009CC9BF00B2
:100EE0000048B2000004E0000500320000C8B30072
:100EF000AAE9B700AB69EF00DE06020000000000BF
:100F0000CF02780000000600851F7800744D800035
:100F10004822DE006124E1000300320000C4B30077
:100F2000B0E9B70001003700B069EF00744D8000F0
:100F300061405200B069B400854D80000548B3009F
:100F4000B469EF0005407800B5E9B700E805020094
:100F500000000000CF02780000000600ACC9BF000E
:100F60000160EF00C080B200050032006080B20076
:100F70000B0032002080B200100032001500370054
:100F8000B469EF0010C0B300B5E9B700E80502008E
:100F90000000000092390900000000001400370032
:100FA00010C0B300AEE9B70020C0B300AFE9B7008E
:100FB00084070200000000000D003700B469EF0054
:100FC00000C1B300B5E9B700E80502000000000069
:100FD0000700370010C0B300B4E9B700ACC9BF00C8
:100FE000B5E9B700E8050200000000000000370086
:100FF00000000600851F7800CA29EF00CA29EF000B
:10100000504E8000344E80000020E1000700340084
:10101000204E8000CA09B40080027800C8C9BF0011
:1010200080429800CA29EC00F5FF3700CF02780013
:1010300000000600851F7800C629EF0000C1B3003C
:101040000EE2B7000E02AE00FEFF370090108000E7
:101050006A04E100FBFF3A00204E8000C609B4009C
:10106000800278000E02AE00FEFF37009010800074
:10107000804A7800C629EC00344E8000E315200039
:101080000418E10007003400204E8000C609B400B7
:101090008002780061805200104278006D24E100E7
:1010A000EDFF3A00800C20000A050200000000005D
:1010B00000C1B3000EE2B700CF02780000000600C6
:1010C000851F78000500200005007800100102004F
:1010D000000000000040B3004220AF0005003700D0
:1010E0008502E800ACE9B700AE070200000000008E
:1010F000F5FF3700014D80001104E00008003200C8
:10110000811F780001409000ACE9B700AE070200F3
:1011100000000000CF0078008100E800F6FF3700F3
:10112000104D80000A05020000000000CF02780088
:1011300000000600851F7800B029EF001400200091
:10114000944D8800B029EF00804D8000744D8000E0
:101150000020E10010003400604D8000B009B400B0
:101160001042780054C4B20009003A00844D800057
:101170006102420004007800644D800004004000D9
:101180001042780024C5B20001003A00B229EF00F5
:10119000B029EC00ECFF3700B209F8000000F900BC
:1011A000CF02780000000600851F78009C29EF0020
:1011B0009E29EF009C09E20022013A00F44C8000D5
:1011C0006520E1001F013D00C869EF000480200098
:1011D000244E8800E4152000344E8800FA070200EF
:1011E0000000000001002000010078001E01020044
:1011F000000000008100E800811F78000F22AF008E
:10120000FEFF370080108800CF007800900020009B
:101210000008E600F4FF370004802000244E880018
:101220001A0802000000000044062000144D880047
:1012300004802000044D88006008020000000000C7
:10124000E4012000744D880004802000644D880073
:101250009A08020000000000E04C8800E44C800086
:101260006120E1000D003A00050020000500780033
:1012700036010200000000000040B3004220AF0031
:10128000050037008502E800ACE9B700AE070200B0
:1012900000000000F5FF37000D00370005002000BA
:1012A000050078004A010200000000000040B30081
:1012B0004220AF00050037008502E800ACE9B70026
:1012C000AE07020000000000F5FF37009C29EF0088
:1012D000802520000A05020000000000E44C800088
:1012E0006120E10045003A00C869EF000480200059
:1012F000244E8800E4152000344E8800FA070200CE
:1013000000000000010020000100780060010200E0
:10131000000000008100E800811F78000F22AF006C
:10132000FEFF370080108800CF0078009003200077
:101330000008E600F4FF370004802000244E8800F7
:101340001A0802000000000004802000044D8800FC
:10135000843E2000144D8800600802000000000058
:10136000E4012000744D880004802000644D880052
:101370009A08020000000000E04C8800E44C800065
:101380006120E1000D003A00050020000500780012
:1013900036010200000000000040B3004220AF0010
:1013A000050037008502E800ACE9B700AE0702008F
:1013B00000000000F5FF37000D0037000500200099
:1013C000050078004A010200000000000040B30060
:1013D0004220AF00050037008502E800ACE9B70005
:1013E000AE07020000000000F5FF37009C29EF0067
:1013F000802520000A05020000000000E44C800067
:101400006120E10045003A00C869EF000480200037
:10141000244E8800E4152000344E8800FA070200AC
:10142000000000000100200001007800A40102007B
:10143000000000008100E800811F78000F22AF004B
:10144000FEFF370080108800CF007800A000200049
:101450000008E600F4FF370004802000244E8800D6
:101460001A0802000000000004802000044D8800DB
:10147000843E2000144D8800600802000000000037
:10148000E4012000744D880004802000644D880031
:101490009A08020000000000E04C8800E44C800044
:1014A0006120E1000D003A000500200005007800F1
:1014B00036010200000000000040B3004220AF00EF
:1014C000050037008502E800ACE9B700AE0702006E
:1014D00000000000F5FF37000D0037000500200078
:1014E000050078004A010200000000000040B3003F
:1014F0004220AF00050037008502E800ACE9B700E4
:10150000AE07020000000000F5FF37009C29EF0045
:10151000401F20000A05020000000000E44C80008B
:101520006120E10045003A00C869EF000480200016
:10153000244E8800E4152000344E8800FA0702008B
:10154000000000000100200001007800BC01020042
:10155000000000008100E800811F78000F22AF002A
:10156000FEFF370080108800CF00780000032000C5
:101570000008E600F4FF370004802000244E8800B5
:101580001A0802000000000004802000044D8800BA
:10159000843E2000144D8800600802000000000016
:1015A000E4012000744D880004802000644D880010
:1015B0009A08020000000000E04C8800E44C800023
:1015C0006120E1000D003A000500200005007800D0
:1015D00036010200000000000040B3004220AF00CE
:1015E000050037008502E800ACE9B700AE0702004D
:1015F00000000000F5FF37000D0037000500200057
:10160000050078004A010200000000000040B3001D
:101610004220AF00050037008502E800ACE9B700C2
:10162000AE07020000000000F5FF37009C29EF0024
:10163000401F20000A050200000000009E29EC0067
:10164000DCFE3700CF02780000000600851F78001E
:10165000C500200003000900B51F780000F0A600B7
:101660000C0037000000EA000480A00004F0A6008F
:1016700008003700801F7800D00220000F22AF0042
:10168000FEFF3700801088004F0078000480A10022
:101690000860ED008002EB0080037800840478008D
:1016A00004F0A1000404E00006003A0009F0A700DD
:1016B00002003700050020000F0037000500200061
:1016C0000D003700E64252000A00390000032000F6
:1016D00009F0A600000220000F22AF00FEFF370035
:1016E000801088008502E900FBFF3B0055002000C8
:1016F0000100370084027800640020000580A70004
:101700000402E80005E0A00009F0A70005F0A00031
:1017100008712200110009008883D800D20B020052
:101720000000000081037800883E200011000900BD
:101730008883D800D20B02000000000081037800EB
:1017400048062000110009008883D800D20B02004F
:101750000000000081037800A800200011000900AB
:101760008883D800D20B0200000000000980A60088
:1017700005003700D00220000F22AF00FEFF370027
:10178000801088000980A1000003200000C04000F4
:10179000500188000F22AF00FEFF37008010880044
:1017A00022003700060320000000E0000E003A008F
:1017B00005E0A600160037000402E9000524E10058
:1017C000020032004200AF00000006000000E0000E
:1017D00005003A0005E0A6000D00370005F0A60060
:1017E000060220000A00370005E0A1000980A600DB
:1017F0000700370000057800D00220000F22AF005C
:10180000FEFF3700801088000980A1000A007800E0
:1018100000404300811F78000F22AF00FEFF370019
:1018200080108800CF00780000000600250120000D
:1018300003000900CF127800CF02780000000600F4
:10184000851F7800B629EF00B8A9EF00B04D8000E1
:10185000944D80000020E10030003400804D800075
:10186000B609B4001042780044C2B2002B00320026
:10187000804D8000B609B40010407800B449E30000
:1018800024003A00B44D8000610242000400780058
:10189000844D80000400400010407800B549E3000A
:1018A0001C003A00B44D800062024200B44D880032
:1018B000B829EF00804D8000B609B400F402200082
:1018C0001024E10013003100804D8000B609B400FF
:1018D00010427800A3032000041CE1000D00360034
:1018E000C44D80006A20B800C04D8800804D800043
:1018F000B609B400104278000443B10004407800F7
:1019000000E0B7000080FB00B829B400B629EC0065
:10191000E8FF3700B629EC00CCFF3700B809F80023
:101920000000F900CF02780000000600C869EF004F
:1019300004802000244E8800E4152000344E8800E6
:10194000FA070200000000000100200001007800FA
:10195000FA010200000000008100E800811F780009
:101960000F22AF00FEFF370080108800CF00780004
:10197000700020000008E600F4FF3700004E8000F1
:1019800004002000260B0200000000000F22AF0020
:10199000FEFF3700D4002000841088000F22AF0023
:1019A000FEFF3700A400200084108800048020007F
:1019B000244E88001A080200000000000000060003
:1019C000851F7800861F7800A029EF00A229EF006C
:1019D000C869EF0004802000244E8800E415200030
:1019E000344E8800FA0702000000000001002000C9
:1019F0000100780014020200000000008100E800ED
:101A0000811F78000F22AF00FEFF37008010880092
:101A1000CF007800500120000008E600F4FF3700F6
:101A2000E04C800004002000260B020000000000B3
:101A30008101200001007800140202000000000073
:101A40008100E800811F78000F22AF00FEFF370001
:101A500080108800CF007800400420000008E600D5
:101A6000F4FF370004802000134D80008482410081
:101A70000E02AE00FEFF370090108000804A780012
:101A8000A229EC00144D8000E31520000418E100A9
:101A900007003400144D8000E10252000480200051
:101AA000048042001042780044C2B200EDFF3A00C8
:101AB00004802000644D8800A209F800AE09F900F6
:101AC0009A08020000000000800278006128E1000E
:101AD0005D003A0005002000050078003601020094
:101AE000000000000040B3004220AF0005003700B6
:101AF0008502E800ACE9B700AE0702000000000074
:101B0000F5FF3700F04A80000A05020000000000DF
:101B1000F54C800040C6B300B4E9B70090C7B300ED
:101B2000B5E9B70004802000844D8800A209F800C0
:101B3000B209F900200C020000000000804A780081
:101B4000F44C8000610242000400780080027800BA
:101B5000D0C6B300B4E9B70040C7B300B5E9B700D9
:101B600004802000844D8800A209F800B209F90021
:101B7000200C020000000000804A7800F44C800035
:101B800062024200040078008002780090C7B3002F
:101B9000B4E9B70020C7B300B5E9B700048020005E
:101BA000844D8800A209F800B209F900200C020057
:101BB0000000000000037800047D200004005300B2
:101BC000804A7800F44C80006302420004007800F0
:101BD0008002780080C6B300B4E9B70020C7B30024
:101BE000B5E9B70004802000844D8800A209F80000
:101BF000B209F900200C020000000000804A7800C1
:101C0000F44C8000640242000400780080027800F6
:101C1000D0C6B300B4E9B700E0C6B300B5E9B70079
:101C200004802000844D8800A209F800B209F90060
:101C3000200C020000000000804A78001400200000
:101C4000044D880001003700A029EF002003200088
:101C50000A050200000000000F22AF00FEFF37005F
:101C6000B4022000841088000F22AF00FEFF37006E
:101C7000B4022000841088000F22AF00FEFF37005E
:101C8000B40220008410880000C1B3000EE2B70047
:101C900004802000244E88001A0802000000000082
:101CA000200320000A0502000000000014002000AC
:101CB000044E8800960C020000000000A009F80005
:101CC0000000F9004F037800CF0278000000060002
:101CD000851F7800444D80000960EF00A3002000BC
:101CE000110009000382D800A9E9B700444D800023
:101CF0004822DE006A20B800444D800000405200B7
:101D0000AAE9B700A9C9BF004400DD00AA49B7008D
:101D1000CF02780000000600851F78009CC9BF0034
:101D2000A8E9B700680E02000000000080427800B9
:101D300060C8B300AAE9B70005407800ABE9B70076
:101D4000DE060200000000009DC9BF00A8E9B70040
:101D5000680E0200000000008042780080C8B300D6
:101D6000AAE9B70005407800ABE9B700DE0602003B
:101D7000000000009EC9BF00A8E9B700680E02007D
:101D80000000000080427800C0C8B300AAE9B70094
:101D900005407800ABE9B700DE0602000000000055
:101DA0009FC9BF00A8E9B700680E0200000000004C
:101DB00080427800A0C8B300AAE9B70005407800C7
:101DC000ABE9B700DE06020000000000A0C9BF00BA
:101DD000A8E9B700680E0200000000008042780009
:101DE00040C8B300AAE9B70005407800ABE9B700E6
:101DF000DE06020000000000A1C9BF00A8E9B7008C
:101E0000680E0200000000008042780020C8B30085
:101E1000AAE9B70005407800ABE9B700DE0602008A
:101E200000000000A869EF00680E0200000000003A
:101E30008042780000C8B300AAE9B70005407800E6
:101E4000ABE9B700DE06020000000000CF02780018
:101E500000000600851F7800C5002000030009006F
:101E6000B51F780000F0A6000C0037000000EA0063
:101E70000480A00004F0A60008003700801F78004E
:101E8000D0022000ACE9B700AE070200000000005D
:101E90004F0078000480A1000860ED008002EB0094
:101EA000800378008404780004F0A1000404E000BA
:101EB00006003A0009F0A7000200370005002000E4
:101EC0000F003700050020000D003700E6425200E9
:101ED0000A0039000003200009F0A60000022000DB
:101EE000ACE9B700AE070200000000008502E9007F
:101EF000FBFF3B0055002000010037008402780002
:101F0000640020000580A7000402E80005E0A000AE
:101F100009F0A70005F0A0000871220011000900D7
:101F20008883D800D60F02000000000081037800EB
:101F3000883E2000110009008883D800D60F0200D7
:101F4000000000008103780048062000110009000D
:101F50008883D800D60F02000000000081037800BB
:101F6000A8002000110009008883D800D60F0200C5
:101F7000000000000980A60005003700D002200004
:101F8000ACE9B700AE070200000000000980A10024
:101F90000003200000C0400050018800ACE9B700F9
:101FA000AE070200000000002200370006032000F8
:101FB0000000E0000E003A0005E0A6001600370021
:101FC0000402E9000524E100020032004200AF00F3
:101FD000000006000000E00005003A0005E0A60051
:101FE0000D00370005F0A600060220000A003700A9
:101FF00005E0A1000980A600070037000005780071
:10200000D0022000ACE9B700AE07020000000000DB
:102010000980A1000A00780000404300811F780079
:10202000ACE9B700AE07020000000000CF00780066
:10203000000006002501200003000900CF127800EF
:10204000CF02780000000600851F7800A229EF006B
:10205000A429EF00C869EF0004802000244E880006
:10206000E4152000344E8800FA070200000000004A
:102070000100200001007800A4010200000000001F
:102080008100E800811F78000F22AF00FEFF3700BB
:1020900080108800CF007800A00020000008E60033
:1020A000F4FF370004802000244E88001A08020044
:1020B00000000000F04A80000A0502000000000055
:1020C000C869EF0004802000244E8800E415200039
:1020D000344E8800FA0702000000000001002000D2
:1020E00001007800BC010200000000008100E8004F
:1020F000811F78000F22AF00FEFF3700801088009C
:10210000CF007800000320000008E600F4FF37004D
:1021100004802000244E88001A08020000000000FD
:10212000F04A80000A05020000000000C869EF00C4
:1021300004802000244E8800E4152000344E8800DE
:10214000FA070200000000000100200001007800F2
:10215000F6020200000000008100E800811F780004
:102160000F22AF00FEFF370080108800CF007800FC
:10217000700120000008E600F4FF3700E04C80000A
:1021800004002000260B020000000000A101200036
:1021900001007800F6020200000000008100E80063
:1021A000811F78000F22AF00FEFF370080108800EB
:1021B000CF007800600420000008E600F4FF37003C
:1021C0000E02AE00FEFF3700901080006A04E100AE
:1021D000FBFF3A0004802000234D800084824100F0
:1021E0000E02AE00FEFF370090108000804A78009B
:1021F000A429EC00244D8000E31520000418E10020
:1022000007003400244D8000E102520004802000C9
:10221000048042001042780044C2B200EDFF3A0050
:1022200000C1B3000EE2B70004802000644D8800B6
:10223000A409F800AE09F9009A08020000000000A5
:10224000800278006128E1000E003A00F54C800021
:10225000D0C6B300B4E9B70040C6B300B5E9B700D3
:1022600004802000844D8800A409F800B209F90018
:10227000200C020000000000800A780014002000FA
:10228000144D8800C869EF0004802000244E8800A7
:10229000E4152000344E8800FA0702000000000018
:1022A000A429EF0001002000010078004203020091
:1022B000000000008100E800811F78000F22AF00BD
:1022C000FEFF370080108800CF00780090012000CA
:1022D0000008E600F4FF3700E04C80000400200016
:1022E000260B020000000000C10120000100780060
:1022F00042030200000000008100E800811F780016
:102300000F22AF00FEFF370080108800CF0078005A
:10231000800420000008E600F4FF37000E02AE0043
:10232000FEFF3700901080006A04E100FBFF3A00D6
:1023300004802000234D8000848241000E02AE0004
:10234000FEFF370090108000804A7800A429EC003E
:10235000244D8000E31520000418E100070034003C
:10236000244D8000E10252000480200004804200DD
:102370001042780044C2B200EDFF3A000480200011
:10238000644D8800A409F800AE09F9009A0802001B
:1023900000000000800278006128E1000E003A0091
:1023A000054D800030C7B300B4E9B70040C7B300A3
:1023B000B5E9B70004802000844D8800A409F80026
:1023C000B209F900200C020000000000804A7800E9
:1023D00014002000144D8800200320000A0502008C
:1023E000000000000F22AF00FEFF3700B402200003
:1023F000841088000F22AF00FEFF3700B4022000D7
:10240000841088000F22AF00FEFF3700B4022000C6
:102410008410880000C1B3000EE2B70004802000E1
:10242000244E88001A08020000000000200320004B
:102430000A0502000000000014002000044E88007D
:10244000960C020000000000CF0278000000060099
:10245000851F7800A029EF00C869EF0004802000E4
:10246000244E8800E4152000344E8800FA0702004C
:10247000000000000100200001007800A40102001B
:10248000000000008100E800811F78000F22AF00EB
:10249000FEFF370080108800CF007800A0002000E9
:1024A0000008E600F4FF370004802000244E880076
:1024B0001A08020000000000F04A80000A0502002D
:1024C00000000000C869EF0004802000244E88004E
:1024D000E4152000344E8800FA07020000000000D6
:1024E0000100200001007800BC0102000000000093
:1024F0008100E800811F78000F22AF00FEFF370047
:1025000080108800CF007800000320000008E6005B
:10251000F4FF370004802000244E88001A080200CF
:1025200000000000F04A80000A05020000000000E0
:10253000C869EF0004802000244E8800E4152000C4
:10254000344E8800FA07020000000000010020005D
:102550000100780060020200000000008100E80035
:10256000811F78000F22AF00FEFF37008010880027
:10257000CF007800400120000008E600F4FF37009B
:10258000E04C800004002000260B02000000000048
:1025900071012000010078006002020000000000CC
:1025A0008100E800811F78000F22AF00FEFF370096
:1025B00080108800CF007800300420000008E6007A
:1025C000F4FF370004802000034D80008482410026
:1025D0000E02AE00FEFF370090108000804A7800A7
:1025E000A029EC00044D8000E31520000418E10050
:1025F00007003400044D8000E102520004802000F6
:10260000048042001042780044C2B200EDFF3A005C
:1026100004802000644D8800A009F800AE09F9008C
:102620009A08020000000000800278006128E100A2
:102630001E003A00F44C800063024200040078005F
:102640008002780080C6B300B4E9B70020C7B300A9
:10265000B5E9B70004802000844D8800A009F80087
:10266000B209F900200C020000000000804A780046
:10267000F44C80006402420004007800800278007C
:10268000D0C6B300B4E9B700E0C6B300B5E9B700FF
:1026900004802000844D8800A009F800B209F900E8
:1026A000200C020000000000804A78002003200077
:1026B0000A050200000000000F22AF00FEFF3700F5
:1026C000B4022000841088000F22AF00FEFF370004
:1026D000B4022000841088000F22AF00FEFF3700F4
:1026E000B40220008410880000C1B3000EE2B700DD
:1026F00004802000244E88001A0802000000000018
:1027000014002000044E8800960C02000000000017
:10271000CF02780000000600851F7800A029EF0096
:10272000C869EF0004802000244E8800E4152000D2
:10273000344E8800FA07020000000000010020006B
:1027400001007800A4010200000000008100E80000
:10275000811F78000F22AF00FEFF37008010880035
:10276000CF007800A00020000008E600F4FF37004A
:1027700004802000244E88001A0802000000000097
:10278000F04A80000A05020000000000C869EF005E
:1027900004802000244E8800E4152000344E880078
:1027A000FA0702000000000001002000010078008C
:1027B000BC010200000000008100E800811F7800D9
:1027C0000F22AF00FEFF370080108800CF00780096
:1027D000000320000008E600F4FF3700048020001A
:1027E000244E88001A08020000000000F04A800011
:1027F0000A05020000000000C869EF000480200004
:10280000244E8800E4152000344E8800FA070200A8
:10281000000000000100200001007800AA02020070
:10282000000000008100E800811F78000F22AF0047
:10283000FEFF370080108800CF0078005001200094
:102840000008E600F4FF3700E04C800004002000A0
:10285000260B02000000000081012000010078002A
:10286000AA020200000000008100E800811F780039
:102870000F22AF00FEFF370080108800CF007800E5
:10288000400420000008E600F4FF37000480200028
:10289000034D8000848241000E02AE00FEFF37002F
:1028A00090108000804A7800A029EC00044D800040
:1028B000E31520000418E10007003400044D8000F7
:1028C000E10252000480200004804200104278009F
:1028D00044C2B200EDFF3A0004802000644D88003D
:1028E000A009F800AE09F9009A08020000000000F3
:1028F000800278006128E1001E003A00F44C80005C
:1029000063024200040078008002780080C6B300B1
:10291000B4E9B70020C7B300B5E9B70004802000D0
:10292000844D8800A009F800B209F900200C0200CB
:1029300000000000804A7800F44C800064024200ED
:102940000400780080027800D0C6B300B4E9B70074
:10295000E0C6B300B5E9B70004802000844D8800CC
:10296000A009F800B209F900200C020000000000E4
:10297000804A7800200320000A05020000000000C1
:102980000F22AF00FEFF3700B40220008410880041
:102990000F22AF00FEFF3700B40220008410880031
:1029A0000F22AF00FEFF3700B40220008410880021
:1029B00000C1B3000EE2B70004802000244E88005E
:1029C0001A08020000000000200320000A0502008F
:1029D0000000000014002000044E8800960C020045
:1029E00000000000CF02780000000600851F78007C
:1029F000A2C9BF00A3E9B700A3C9BF000160EF00EF
:102A00004400DE00004278000960EF006A20B80050
:102A1000A2E9B700A3C9BF004400DD000160EF00D8
:102A20004400DE00A269B400A2C9BF0000E0B70004
:102A3000CF027800000006004000DE000000E00049
:102A40004220AF00040037003400090000000000FD
:102A50000000E900F9FF370000000600A229EF009E
:102A6000A429EF009C09F800A602F900A229EF00B2
:102A7000104D8000044D80000020E1000B00340068
:102A8000A002A900A022A800A002AE00FEFF37000D
:102A900000148000A429B400F04C80001C15020032
:102AA00000000000A229EC00F1FF3700244D800057
:102AB000034D8000110009000302D800204D88005A
:102AC000A409F8000000F90000000600851F780046
:102AD000861F7800E10820000600A10000F0A60093
:102AE000030037000600A0000000EA0000003700E5
:102AF0000000E0001400320000F0A70004003700DE
:102B00004200A9000080D2008100E900FAFF3700EE
:102B10000180FD004200A9008180D30000F0A100E7
:102B20000080FD00814068000040B2000600A70060
:102B300001F0A00007003700014078000170A000FC
:102B40000140B200030037000000EB008000EB0002
:102B5000000037004F037800CF0278000000060025
:102B6000851F7800C500200004000900B51F78000B
:102B70008004EB0083846800010378008002780001
:102B800003047800820378008180D2000180FD0078
:102B90008180FB000100E0004E0032008381D20002
:102BA0000380FD008381FB000300E0004900320048
:102BB0000000EB0003C0500003003900F047B000F4
:102BC00044003100030037001048B10041003900D3
:102BD0004000320085007800060178000270A000F5
:102BE000F20FB200F80FB2000870A0009A012000A6
:102BF0008001EB000002EB008780500008015900C3
:102C0000020033000400310004003A0087804000D5
:102C100008014900010037000400A0000A05E9008E
:102C2000070032004200A9008180D2000281D20058
:102C30004200A9000482D2008381D200EEFF370057
:102C40000005EB000380A7000100370006003700F5
:102C50004200A9008381D3000370A1000482D30045
:102C60000A85D200020037000000E9001900320096
:102C70000AF0A700050039008180D2000281D2004D
:102C80008780500008015900090039000402E8005B
:102C900007003A008301E80005003A000000E80060
:102CA0000C003200020037000000E9000900320089
:102CB0000080FD008080D30001F0A00009F0A60094
:102CC00001F0A1000370A10081C069000400780038
:102CD0000300370000002000010020000000370042
:102CE0004501200004000900CF127800CF027800CF
:102CF00000000600851F7800C500200004000900C0
:102D0000B51F780000027800810278008303780004
:102D1000020378004200A9004220A9008180D2006D
:102D20000180FD00F10FB2000100E0004800320018
:102D30004200A9004220A9008381D2000380FD0047
:102D4000F30FB2000300E000410032000080FB00FE
:102D500001C0410004003100F007B1003C00320026
:102D60003B003900020037001048B0003800310045
:102D700007856A004200A9004220A900F50FB200B1
:102D80000570A0004200A900F70FB2000770A00074
:102D90000621B800062CB80083014C008900780099
:102DA000043CB80083014C0081804C00072CB80023
:102DB00081004C000000E8000100E0004220AF006C
:102DC00001003700030037000300E0004220AF009D
:102DD0000500370001F0A700030037008381D2000F
:102DE0008180D2000000E900010178004200A900C2
:102DF0000370A6000900370007F02F0087816100EB
:102E00000310B000600149000200E00003003A0036
:102E10000300E00001003A000000E8000080FD002F
:102E20004200A9004220A9008080D3000AF0A70038
:102E300001F0A00002F0A1000280FD0081406900C5
:102E40000380FD0003417800020078000300370092
:102E50000000200001002000000037004501200094
:102E600004000900CF127800CF02780000000600AD
:102E7000851F780082017800820278004200A90054
:102E80008381D2000380FD00F30FB20003003A00FB
:102E90006000B8006011B800160037000338B000B9
:102EA000F207B200360020000002EB004200A90049
:102EB0000281D3008180D3000080D3004200AF00A4
:102EC0000402E8000603E900F8FF3A000270A100DE
:102ED000C419DD0003F0A10005F0A70003F0A00075
:102EE00083016900010178008000780081004200C0
:102EF0000000EB00CF02780000000600881F780079
:102F00002801200004000900B81F78008005EB00AC
:102F10006066B8000304780087047800FA7F200018
:102F20004200A9004220A90044C4DE000804650054
:102F30000800E000700032004200A9004220A90011
:102F4000C4CCDE00890465000900E0006A0032009C
:102F50000884440009B0A70004003700F83FB1001E
:102F60006500320064003900030037001A40200079
:102F70008542450060003100878669004200A90053
:102F80004220A900F300B2000340A000F700B20005
:102F90000740A000881F78000124B800002DB80069
:102FA0000A0544008B854C000C80B0000224B80058
:102FB0008B0544000C864C00012CB8008B054400A6
:102FC0000C864C000034B8000005EB008B05440073
:102FD0000C864C000A80B0008005EB000324B8008A
:102FE0000C0644000A854C000B80B000022CB8008F
:102FF0000C0644000A854C000B80B0000134B80078
:103000000C0644000A854C000B80B000003CB80060
:103010000C0644000A854C000B80B0000C007800C0
:103020000006EB00032CB8000A0544008B854C0019
:103030000C80B0000234B8000A0544008B854C00B7
:103040000C80B0000334B8008B0544000C864C00A3
:10305000013CB8000A0544008B854C000C80B00090
:10306000023CB8008B0544000C864C00033CB800C1
:103070000C0644008A0078000B0178008C0178006F
:10308000540020004200A9008381D3000281D300B4
:103090008180D3000080D3000402E900F9FF3A00E8
:1030A0004F0478000804E8000103700001003200BA
:1030B0000200370003037100080032000340A7003C
:1030C000060037004200A9000080D2008180D200B3
:1030D0000281D2008381D2000804E9004444DD006B
:1030E00003F0A1000DF0A70003F0A0000340A10031
:1030F00083016C00030037006000B8006001B80075
:1031000000003700A8012000040009004F147800D7
:103110004F04780000000600851F7800C5002000DD
:1031200005000900B51F78000304780082037800C9
:103130000103780080027800830478003B47200078
:10314000C499DE00FA7F2000830165008385550065
:10315000F801B2000840A0000000EB008000EB0086
:103160000001EB008001EB004200A9000884D300BD
:103170008783D3000683D3008582D3008381D30065
:103180000281D3008180D3000080D3008B05E90049
:10319000F5FF3A0009F0A600050037000000EA003C
:1031A0008180EA000281EA008381EA0000003700A2
:1031B0006501200005000900CF127800CF027800D9
:1031C000000006008C1F78008D1F78000004EB00C3
:1031D0008004EB000005EB008005EB000006EB002F
:1031E0008006EB00E8002000090020001000FA0033
:1031F0000C377C000884E900FDFF3B0005046A00F1
:1032000002003A0007046B002F0032000004EB00BC
:103210000D0420000D0420004200A9000080D2000F
:103220008180D2000281D2008381D2000884D20042
:103230008984D2000A85D2008B85D2000758E1002C
:1032400005003A0006D0E10003003A0005C8E1009D
:1032500001003A0004C0E1000500390004045400F4
:1032600085845C0006055D0087855D004200A8003E
:10327000080F7800190798002A0798003B07980064
:103280004E049000DE0490006E059000FE05900054
:103290000884D2008984D2000A85D2008B85D200AE
:1032A00048079800590798006A0798007B0798001C
:1032B0001E0478009E0490002E059000BE0590002C
:1032C0008D06E900D4FF3A004E009000DE00900029
:1032D0006E019000FE0190000080FA0000003700AF
:1032E000CF0678004F06780000000600851F7800A2
:1032F000C500200007000900B51F78002A00FA0069
:10330000880220000006EB000C377C000884E900EE
:10331000FDFF3B000900E0000E0032003917980065
:103320004A179800470224000003EB006022B8000F
:1033300029179800470224000003EB006022B80020
:103340007E17020000000000AE1490008904E9001E
:10335000F7FF3A00BE1490004001200020179800AB
:10336000D71C240056D62C006022B800000F98000D
:10337000110F9800220F9800330F98004801200089
:103380000817980004002000859E2800463022007F
:1033900077AC2800440F9800550F9800660F9800EE
:1033A000770F980003F0A600040037004E14900039
:1033B0000804E90008D0A0004817980003F0A10015
:1033C0008C180200000000004E149000BE14900003
:1033D0000900E0004220AF000844E80048179800C8
:1033E0009E1490008004EB00191798004E0A90007C
:1033F000DE0A90006E0B9000FE0B9000E2180200B7
:10340000000000009E1690000D00A700620037002B
:10341000080F9800190F98002A0F98003B0F98008A
:103420009E1690000D00A2001D1798000000E000FD
:1034300012003A00BE1490008904E8002E15900096
:10344000090455000D003200CE1590000B00E0007D
:103450000E0032007F846500080455000100320030
:10346000410031000BF0A7003F0037000BE0A70040
:10347000060037000002200037003700CE1590000C
:103480000C0022008B0566004B179800CE159000AB
:103490000BD0A6000F0037000BD0A100BE14900087
:1034A0000900E0004220AE008B05E9008005EB003A
:1034B0004B17980000057800D0C2B300ACE9B70004
:1034C000AE070200000000000A0078008005EB0053
:1034D0004B179800BE1490002E159000090455005B
:1034E0000C003A008005EB004B17980000057800AF
:1034F000E0C2B300ACE9B700AE0702000000000074
:10350000CE1590000C0022008B0566004B1798002A
:103510000A00780001032000CE1590000BD0A60011
:103520000D0037000BD0A100BE1490000900E00090
:103530004220AE008B05E9008005EB004B17980098
:10354000D0C2B300ACE9B700AE0702000000000033
:103550000000EB000103200000804000ACE9B70050
:10356000AE07020000000000AE1690008D06E900D4
:10357000190032002D1798004E089000DE089000C8
:103580006E099000FE099000A40020008002EB006C
:103590006033B80099FF3700400F9800510F980032
:1035A000620F9800730F9800000278008102780083
:1035B00002037800830378000E0890009E089000B4
:1035C0002E099000BE0990009E1690000D00A200EA
:1035D0001D17980089FF37000080FA00A501200020
:1035E00007000900CF127800CF0278000000060023
:1035F000851F7800861F7800871F78000382680087
:1036000004F0A600060037004200A9004220A900ED
:1036100001F0A600260037004200A8002400370071
:1036200001027800800278000303780082037800AA
:103630008180D2000180FD008381D2000380FD00E3
:1036400081C051000500320004F0A60018003700C8
:103650001000200042E0B6001500370084407800DA
:10366000864178000170A1000370A10081C0510063
:103670000500320004F0A6000D0037001000200005
:1036800042E0B6000A003700858053000500320092
:1036900004F0A600060037001000200042E0B6004B
:1036A000030037004200A900010037000000370086
:1036B000CF0378004F037800CF02780000000600A7
:1036C000851F7800C500200003000900B51F7800A1
:1036D0008004EB00080028004300AF0083016C0069
:1036E000010578008A85690001037800830378006A
:1036F000030678004220A9004200A9000683D200F8
:103700000680FD00F60FB2000600E000A1003200C6
:103710004220A9004200A9008783D2000780FD0053
:10372000F70FB2000700E0009F0032004220A9001E
:103730004200A9000638E1009C003200A3003300DB
:103740000900A1000910A0000684530007037800B7
:10375000F10FB2000170A000F30FB2000370A000DF
:10376000870220000838E100110033004220A90040
:103770004200A9008180D3000080D3000804E90042
:10378000FAFF3A000D003700870220000838E100F8
:10379000090033004220A9004200A9008381D30020
:1037A0000281D3000804E900FAFF3A000F00370055
:1037B0000200780083007800430037000BF0A60079
:1037C000110037000940A7008C0578000000EA00CE
:1037D0000200320081C0EA00010037008100EA00E7
:1037E0000940A7002B003700070037000BF0A600A8
:1037F000050037000201EA000200320083C1EA003E
:10380000010037008301EA00F50FB2004220A90051
:103810004200A9000200400083C048004200AF00FF
:103820000930A0000900A700090037000910A7000F
:10383000010037000B0037000BF0A7001500370020
:103840000930A700290037000960A0001E003700DA
:103850000BF0A7000F0037000930A7002300370046
:10386000190037000920A1000BF0A7000400370061
:103870008A0578000930A7001C00370036003700A1
:103880000940A00001C8B2000170A700CDFF3700B9
:103890008A057800F10FB200810370000A0032003F
:1038A0000170A700080037004220A9004200A900CB
:1038B0000080D2008180D2000603E9004220AF00E0
:1038C00031003700F6FF37000900A7008A057800AD
:1038D0000910A7008C0578000950A6001A003700CF
:1038E0000AF0A7000080A0001B0037004200A800DB
:1038F00081C0D3000080D3004200AF000950A00077
:103900000603E800200032000950A6000800370036
:103910000000E80006003A008140E80004003A0098
:1039200081C0D3000080D3000603E80016003200F7
:103930000900A7008A0578000910A7008C05780007
:103940004220AF00100037000960A7008A05780008
:103950000970A7008C057800010170002300320077
:103960000170A1000680FD004220A9004200A900CC
:103970000683D30081006B0001F0A0000BF0A600CD
:1039800001F0A10019003700000020000100200014
:10399000160037000AF0A70083016C0002007800CF
:1039A000830078001100370010003700F30FB200D9
:1039B0000370A000F10FB2000170A0000BF0A7008F
:1039C0000370A1000920A00088FF370007045300FE
:1039D000F10FB2000170A000F30FB2000370A0005D
:1039E0000910A1000900A00067FF37002501200091
:1039F00003000900CF127800CF0278000000060013
:103A0000851F7800C500200007000900B51F780059
:103A10002A00FA00880220000006EB000C377C0028
:103A20000884E900FDFF3B000900E0000E003200C1
:103A3000391798004A179800470224000003EB004A
:103A40006022B80029179800470224000003EB0009
:103A50006022B8007E17020000000000AE14900043
:103A60008904E900F7FF3A00BE14900040012000ED
:103A700020179800D71C240056D62C006022B800CE
:103A8000000F9800110F9800220F9800330F980034
:103A9000480120000817980004002000859E280097
:103AA0004630220077AC2800440F9800550F98004C
:103AB000660F9800770F980003F0A6000400370007
:103AC0004E1490000804E90008D0A00048179800A0
:103AD00003F0A1008C180200000000004E149000BA
:103AE000BE1490000900E0004220AF000844E80046
:103AF000481798009E1490008004EB001917980056
:103B00004E0A9000DE0A90006E0B9000FE0B9000B3
:103B1000E2180200000000009E1690000D00A700B1
:103B200062003700080F9800190F98002A0F9800BC
:103B30003B0F98009E1690000D00A2001D179800E4
:103B40000000E00012003A00BE1490008904E80072
:103B50002E159000090455000D003200CE1590007E
:103B60000B00E0000E0032007F8465000804550061
:103B700001003200410031000BF0A7003F00370088
:103B80000BE0A700060037000002200037003700D6
:103B9000CE1590000C0022008B0566004B17980094
:103BA000CE1590000BD0A6000F0037000BD0A1005F
:103BB000BE1490000900E0004220AE008B05E90031
:103BC0008005EB004B179800000578000F22AF002E
:103BD000FEFF3700D4022000841088000A0078001D
:103BE0008005EB004B179800BE1490002E15900036
:103BF000090455000C003A008005EB004B179800B3
:103C0000000578000F22AF00FEFF3700E40220001D
:103C100084108800CE1590000C0022008B056600F1
:103C20004B1798000A00780001032000CE15900081
:103C30000BD0A6000D0037000BD0A100BE149000E1
:103C40000900E0004220AE008B05E9008005EB0092
:103C50004B1798000F22AF00FEFF3700D402200060
:103C6000841088000000EB00010320000080400069
:103C70000F22AF00FEFF370080108800AE169000C4
:103C80008D06E900190032002D1798004E089000AB
:103C9000DE0890006E099000FE099000A40020004C
:103CA0008002EB006033B80099FF3700400F9800A6
:103CB000510F9800620F9800730F9800000278006F
:103CC0008102780002037800830378000E089000D8
:103CD0009E0890002E099000BE0990009E1690004C
:103CE0000D00A2001D17980089FF37000080FA0020
:103CF000A501200007000900CF127800CF0278004C
:103D000000000600851F7800B229EF00C869EF00A7
:103D100004802000244E8800E4152000344E8800E2
:103D2000FA070200000000000100200001007800F6
:103D3000A4010200000000008100E800811F78005B
:103D40000F22AF00FEFF370080108800CF00780000
:103D5000A00020000008E600F4FF370004802000E7
:103D6000244E88001A08020000000000F04A80007B
:103D70000A05020000000000C869EF00048020006E
:103D8000244E8800E4152000344E8800FA07020013
:103D9000000000000100200001007800BC010200CA
:103DA000000000008100E800811F78000F22AF00B2
:103DB000FEFF370080108800CF007800000320004D
:103DC0000008E600F4FF370004802000244E88003D
:103DD0001A08020000000000F04A80000A050200F4
:103DE00000000000C869EF0004802000244E880015
:103DF000E4152000344E8800FA070200000000009D
:103E00000100200001007800900302000000000083
:103E10008100E800811F78000F22AF00FEFF37000D
:103E200080108800CF007800D00120000008E60054
:103E3000F4FF3700304D800004002000260B020004
:103E40000000000001022000010078009003020041
:103E5000000000008100E800811F78000F22AF0001
:103E6000FEFF370080108800CF007800700220002D
:103E70000008E600F4FF3700404D800004002000F9
:103E8000260B020000000000A102200001007800C3
:103E900090030200000000008100E800811F78000C
:103EA0000F22AF00FEFF370080108800CF0078009F
:103EB000200320000008E600F4FF3700624D800078
:103EC000514D800000002000381702000000000063
:103ED000390020005A002000001D020000000000F0
:103EE0008103200001007800900302000000000020
:103EF0008100E800811F78000F22AF00FEFF37002D
:103F000080108800CF007800000420000008E60040
:103F1000F4FF3700824D8000714D800000002000CA
:103F20003817020000000000390020005A0020006D
:103F3000001D020000000000610420000100780064
:103F400090030200000000008100E800811F78005B
:103F50000F22AF00FEFF370080108800CF007800EE
:103F6000200720000008E600F4FF37000E02AE0034
:103F7000FEFF3700901080006A04E100FBFF3A006A
:103F800004802000934D8000848241000E02AE0028
:103F9000FEFF370090108000804A7800B229EC00C4
:103FA000944D8000E31520000418E1000700340060
:103FB000944D8000E1025200048020000480420001
:103FC0001042780044C2B200EDFF3A002003200006
:103FD0000A050200000000000F22AF00FEFF3700BC
:103FE000B4022000841088000F22AF00FEFF3700CB
:103FF000B4022000841088000F22AF00FEFF3700BB
:10400000B40220008410880000C1B3000EE2B700A3
:1040100004802000244E88001A08020000000000DE
:10402000200320000A050200000000001400200008
:10403000044E8800960C0200000000008038210029
:104040000A05020000000000CF0278000000060010
:1040500081E0A800040028006410880004402000CB
:104060007410880034002000A4108800440620004A
:10407000F44A88006029EF0014002000144B8800E7
:1040800014002000244B88006629EF006829EF0007
:104090006A29EF0054012000644B88006E29EF006C
:1040A0007029EF007229EF007429EF007629EF00E4
:1040B0007829EF007A29EF007C29EF007E29EF00B4
:1040C0008029EF008229EF008429EF008629EF0084
:1040D0008E69EF00A8A2EF000FF82000F0FF20008B
:1040E00020A0B700000000000028EF000228EF0029
:1040F0000428EF000628EF000828EF000A28EF0048
:104100000C28EF000E28EF001028EF001228EF0017
:104110001428EF001628EF001828EF001A28EF00E7
:104120001C28EF001E28EF002028EF002228EF00B7
:104130002428EF002628EF002828EF002A28EF0087
:104140002C28EF002E28EF003028EF003228EF0057
:104150003428EF003628EF003828EF003A28EF0027
:104160003C28EF003E28EF004028EF004228EF00F7
:104170004428EF004628EF004828EF004A28EF00C7
:104180004C28EF004E28EF005028EF005228EF0097
:104190005428EF005628EF005828EF005A28EF0067
:1041A0005C28EF005E28EF006028EF006228EF0037
:1041B0006428EF006628EF006828EF006A28EF0007
:1041C0006C28EF006E28EF007028EF007228EF00D7
:1041D0007428EF007628EF007828EF007A28EF00A7
:1041E0007C28EF007E28EF008028EF008228EF0077
:1041F0008428EF008628EF008828EF008A28EF0047
:104200008C28EF008E28EF009028EF009228EF0016
:104210009428EF009628EF009828EF009A28EF00E6
:104220009C28EF009E28EF00A028EF00A228EF00B6
:10423000A428EF00A628EF00A828EF00AA28EF0086
:10424000AC28EF00AE28EF00B028EF00B228EF0056
:10425000B428EF00B628EF00B828EF00BA28EF0026
:10426000BC28EF00BE28EF00C028EF00C228EF00F6
:10427000C428EF00C628EF00C828EF00CA28EF00C6
:10428000CC28EF00CE28EF00D028EF00D228EF0096
:10429000D428EF00D628EF00D828EF00DA28EF0066
:1042A000DC28EF00DE28EF00E028EF00E228EF0036
:1042B000E428EF00E628EF00E828EF00EA28EF0006
:1042C000EC28EF00EE28EF00F028EF00F228EF00D6
:1042D000F428EF00F628EF00F828EF00FA28EF00A6
:1042E000FC28EF00FE28EF000029EF000229EF0074
:1042F0000429EF000629EF000829EF000A29EF0042
:104300000C29EF000E29EF001029EF001229EF0011
:104310001429EF001629EF001829EF001A29EF00E1
:104320001C29EF001E29EF002029EF002229EF00B1
:104330002429EF002629EF002829EF002A29EF0081
:104340002C29EF002E29EF003029EF003229EF0051
:104350003429EF003629EF003829EF003A29EF0021
:104360003C29EF003E29EF004029EF004229EF00F1
:104370004429EF004629EF004829EF004A29EF00C1
:104380004C29EF004E29EF005029EF005229EF0091
:104390005429EF005629EF005829EF005A29EF0061
:1043A0005C29EF0004202000444C8800D4802000C9
:1043B000544C8800E4012000644C880094212000C3
:1043C000844C8800D4302100944C8800B401200033
:1043D000A44C880094212000B44C8800D4302100E3
:1043E000C44C8800D4012000D44C88003C06020054
:1043F000000000004007020000000000050020004F
:1044000005007800FA030200000000000040B3003D
:104410004220AF00050037008502E800ACE9B70094
:10442000AE07020000000000F5FF37004006200044
:104430000A0502000000000004F82F00441588005F
:10444000A222EF000408200024158800040E280092
:1044500004158800F40720003416880000C1B3005A
:104460000EE2B700D4080200000000006C09F8005A
:104470009C09F90084982000F44C8800E00C0200AC
:10448000000000000080B200030032001080B20083
:104490000E0032006800370005002000050078009B
:1044A0004A010200000000000040B3004220AF00BB
:1044B000050037008502E800ACE9B700AE0702004E
:1044C00000000000F5FF37006800370088C9BF0012
:1044D0009CE9B70089C9BF009DE9B7008AC9BF0040
:1044E0009EE9B7008EC9BF009FE9B7008BC9BF0026
:1044F000A0E9B7008CC9BF00A1E9B7008C0E02008B
:1045000000000000050020000500780010010200F6
:10451000000000000040B3004220AF00050037005B
:104520008502E800ACE9B700AE0702000000000019
:10453000F5FF370005002000050078001804020090
:10454000000000000040B3004220AF00050037002B
:104550008502E800ACE9B700AE07020000000000E9
:10456000F5FF370088C9BF000000FB0004002000F1
:104570002A0F020000000000F0C2B300ACE9B7004F
:10458000AE0702000000000089C9BF000000FB0068
:10459000040020002A0F020000000000F0C2B30057
:1045A000ACE9B700AE0702000000000020C3B30072
:1045B000ACE9B700AE0702000000000000C3B30082
:1045C000ACE9B700AE070200000000008AC9BF00D6
:1045D0000000FB00040020002A0F02000000000081
:1045E00000C2B300ACE9B700AE0702000000000053
:1045F0008BC9BF000000FB00240028002A0F020026
:1046000000000000A0C3B300ACE9B700AE07020091
:10461000000000008CC9BF000000FB00240028003F
:104620002A0F020000000000803E20000A05020060
:10463000000000000D003700050020000500780094
:104640004A010200000000000040B3004220AF0019
:10465000050037008502E800ACE9B700AE070200AC
:1046600000000000F5FF3700000037006E29EF0062
:10467000744B80006420E100B6023D006609E20050
:1046800002003A00D722A90001003700D722A80073
:10469000D322A900050020000500780030040200A4
:1046A000000000000040B3004220AF0005003700CA
:1046B0008502E800ACE9B700AE0702000000000088
:1046C000F5FF37006C09F8009C09F90004962000FA
:1046D000F44C880044962000044D88002410020009
:1046E00000000000C05D20000A050200000000007C
:1046F000004B80001080B200050032002080B20024
:10470000330032001080B20032003200380037002F
:104710006C09F8009C09F90004992000F44C880009
:1047200028120200000000006C09F8009C09F90042
:1047300064992000F44C88008C13020000000000F3
:104740008BC9BF009349E3000D003A0094C9BF0034
:10475000644C80000024E10009003900A44C800072
:10476000614242000440780000E0B700644C8000E1
:104770000024E10002003E0014002000144B8800D9
:104780008BC9BF009949E3000C003A009AC9BF00E9
:10479000644C80000024E10008003900D44C800003
:1047A000614242000440780000E0B700644C8000A1
:1047B0000024E10001003E006229EF006209F800D8
:1047C0006809F9006209F8006A09F9000900370070
:1047D000080037006409F8006209F9006209F8006E
:1047E0006809F9006209F8006A09F9000100370058
:1047F000000037006809E20002003A00CAE2A9009E
:1048000001003700CAE2A800E4072000341688003F
:104810006A09E20002003A00CB02A9000100370059
:10482000CB02A800E4072000341688000500200011
:104830000500780010010200000000000040B300F5
:104840004220AF00050037008502E800ACE9B70060
:10485000AE07020000000000F5FF37000500200051
:104860000500780018040200000000000040B300BA
:104870004220AF00050037008502E800ACE9B70030
:10488000AE07020000000000F5FF370070C8B3005B
:10489000A0E9B700F806020000000000804278009E
:1048A000A209F800E5FF9F00A209F900F614020032
:1048B0000000000088E9B70090C8B300A0E9B70085
:1048C000F80602000000000080427800A209F8000B
:1048D000E5FF9F00A209F900F614020000000000A5
:1048E00089E9B700D0C8B300A0E9B700F806020014
:1048F0000000000080427800A209F800E5FF9F0058
:10490000A209F900F6140200000000008AE9B700CD
:10491000B0C8B300A0E9B700F8060200000000002C
:1049200080427800A209F800E5FF9F00A209F90083
:10493000F6140200000000008EE9B70050C8B30072
:10494000A0E9B700F80602000000000080427800ED
:10495000A209F800E5FF9F00A209F900F614020081
:10496000000000008BE9B70030C8B300A0E9B70031
:10497000F80602000000000080427800A209F8005A
:10498000E5FF9F00A209F900F614020000000000F4
:104990008CE9B70010C8B300A0E9B700F806020020
:1049A0000000000080427800A209F800E5FF9F00A7
:1049B000A209F900F6140200000000008DE9B7001A
:1049C00088C9BF000000FB00040020002A0F02007D
:1049D00000000000F0C2B300ACE9B700AE0702006F
:1049E0000000000089C9BF000000FB000400200097
:1049F0002A0F020000000000F0C2B300ACE9B700CB
:104A0000AE0702000000000020C3B300ACE9B7000D
:104A1000AE0702000000000000C3B300ACE9B7001D
:104A2000AE070200000000008AC9BF000000FB00C2
:104A3000040020002A0F02000000000000C2B300A2
:104A4000ACE9B700AE070200000000008BC9BF0050
:104A50000000FB00240028002A0F020000000000D4
:104A6000A0C3B300ACE9B700AE070200000000002D
:104A70008CC9BF000000FB00240028002A0F0200A0
:104A800000000000007D20000A0502000000000078
:104A90000500200005007800100102000000000061
:104AA0000040B3004220AF00050037008502E80057
:104AB000ACE9B700AE07020000000000F5FF3700C8
:104AC00001002000010078005A04020000000000EC
:104AD0008100E800811F7800ACE9B700AE07020052
:104AE00000000000CF007800500020000008E60021
:104AF000F4FF3700004B8000040020002A0F020062
:104B00000000000081002000010078005A0402002B
:104B1000000000008100E800811F7800ACE9B700C8
:104B2000AE07020000000000CF0078000001200066
:104B30000008E600F4FF3700104B8000040020005E
:104B40002A0F020000000000007D20000A0502007C
:104B5000000000009C29EF0044062000F44C88006F
:104B6000A4002000044D88002E1502000000000063
:104B70006615020000000000C04B8800D14B880081
:104B800014002000E44C880044062000F44C880007
:104B9000A4002000044D88002E1502000000000033
:104BA0006615020000000000804B8800914B8800D1
:104BB00034002000E44C880044062000F44C8800B7
:104BC000A4002000044D88002E1502000000000003
:104BD0006615020000000000E04B8800F14B8800E1
:104BE00044002000E44C880044062000F44C880077
:104BF000A4002000044D88002E15020000000000D3
:104C00006615020000000000004C8800114C88006E
:104C100064002000E44C880044062000F44C880026
:104C2000A4002000044D88002E15020000000000A2
:104C30006615020000000000204C8800314C8800FE
:104C400054002000E44C880044062000F44C880006
:104C5000A4002000044D88002E1502000000000072
:104C60006615020000000000A04B8800B14B8800D0
:104C7000A01A2F0021ED2300224C8000334C80002D
:104C8000B015020000000000204C8800314C880064
:104C9000C04B8000D14B8000224C8000334C800000
:104CA0007A160200000000008002780001037800FC
:104CB000050078008600780002002000A347240049
:104CC0007A16020000000000C04B8800D14B88001B
:104CD000804B8000914B8000224C8000334C800040
:104CE0007A160200000000008002780001037800BC
:104CF000050078008600780002002000A347240009
:104D00007A16020000000000804B8800914B88005A
:104D1000A04B8000B14B8000224C8000334C8000BF
:104D20007A1602000000000080027800010378007B
:104D30000500780086007800D2A3200073042400C8
:104D40007A16020000000000A04B8800B14B8800DA
:104D5000E04B8000F14B8000224C8000334C8000FF
:104D60007A1602000000000080027800010378003B
:104D70000500780086007800325C2F0083E2230073
:104D8000B015020000000000E04B8800F14B8800E5
:104D9000004C8000114C8000224C8000334C80007D
:104DA0007A160200000000008002780001037800FB
:104DB0000500780086007800325C2F0083E2230033
:104DC000B015020000000000004C8800114C880063
:104DD000050020000500780010010200000000001E
:104DE0000040B3004220AF00050037008502E80014
:104DF000ACE9B700AE07020000000000F5FF370085
:104E000001002000010078007A0402000000000088
:104E10008100E800811F7800ACE9B700AE0702000E
:104E200000000000CF007800800020000008E600AD
:104E3000F4FF3700B24B8000A14B8000000020003F
:104E40003817020000000000390020005A0020003E
:104E5000761902000000000060C7B300ACE9B7009B
:104E6000AE07020000000000007D20000A050200DD
:104E7000000000000500200005007800100102007D
:104E8000000000000040B3004220AF0005003700E2
:104E90008502E800ACE9B700AE07020000000000A0
:104EA000F5FF3700010020000100780096040200A1
:104EB000000000008100E800811F7800ACE9B70025
:104EC000AE07020000000000CF0078008000200044
:104ED0000008E600F4FF3700924B8000814B800011
:104EE00000002000381702000000000039002000F8
:104EF0005A0020007619020000000000E1002000A6
:104F00000100780096040200000000008100E80023
:104F1000811F7800ACE9B700AE0702000000000076
:104F2000CF007800D00120000008E600F4FF370031
:104F3000D24B8000C14B80000000200038170200D7
:104F400000000000390020005A00200076190200FD
:104F500000000000D0C6B300ACE9B700AE07020005
:104F60000000000060C5B300ACE9B700AE07020066
:104F700000000000007D20000A0502000000000083
:104F8000050020000500780010010200000000006C
:104F90000040B3004220AF00050037008502E80062
:104FA000ACE9B700AE07020000000000F5FF3700D3
:104FB0000100200001007800C80402000000000089
:104FC0008100E800811F7800ACE9B700AE0702005D
:104FD00000000000CF007800A00020000008E600DC
:104FE000F4FF3700324C8000214C8000000020008C
:104FF0003817020000000000390020005A0020008D
:105000007619020000000000007D20000A05020061
:1050100000000000050020000500780010010200DB
:10502000000000000040B3004220AF000500370040
:105030008502E800ACE9B700AE07020000000000FE
:10504000F5FF37000100200001007800E6040200AF
:10505000000000008100E800811F7800ACE9B70083
:10506000AE07020000000000CF00780030002000F2
:105070000008E600F4FF3700F24B8000E14B8000AF
:105080000000200038170200000000003900200056
:105090005A00200076190200000000009100200054
:1050A00001007800E6040200000000008100E80032
:1050B000811F7800ACE9B700AE07020000000000D5
:1050C000CF007800F00020000008E600F4FF370071
:1050D000124C8000014C80000000200038170200B4
:1050E00000000000390020005A002000761902005C
:1050F00000000000D0C6B300ACE9B700AE07020064
:105100000000000010C4B300ACE9B700AE07020015
:1051100000000000007D20000A05020000000000E1
:10512000A04B8000B14B8000A2992900930C240071
:10513000F81A0200000000000300390014002000EB
:10514000344B8800010037006629EF006E29EC001F
:1051500047FD37004300A900804B8000914B800041
:1051600002002000832C2400601B020000000000CD
:1051700080027800010378004300A900A04B800062
:10518000B14B800002002000832C2400601B020031
:105190000000000080037800010478006C09F8002A
:1051A000A609F9006209F800A809F900554D880020
:1051B000664D8800774D8800884D8800821E020069
:0C51C0000000000029FD37000040FE0048
:0200000401F009
:1000000001C700003F000000330700000F3100006F
:0C0010000F3300000700000003C00000D8
:00000001FF
;DSPIC30F5015
;CRC=234B  CREATED="05-Aug-15 22:41"
