:08000000822A04000000000048
:100200003220EF00C3102000008041001040BA00EF
:100210000160EF0000000600280C0000010600004D
:100220003220EF00C3112000008041001040BA00CE
:100230000160EF00000006000C0000003220EF001B
:10024000A3122000008041001040BA000160EF00BE
:1002500000000600415400002B43000050490000FC
:100260004E3F00000D0A0000000000003220EF00A9
:1002700023142000008041001040BA000160EF000C
:10028000000006000C4300004D440000204F000019
:100290004B0000003220EF00631520000080410079
:1002A0001040BA000160EF00000006000C4300009F
:1002B0004D440000204200004144000000000000C6
:1002C0003220EF008302200083015000050031003E
:1002D000C3172000008041001040BA000160EF0009
:1002E00000000600C017200083814100808141008A
:1002F0001380BA0000000600415473002B417400C3
:1003000049506100444372004F4E2200543D2C007E
:10031000226922006E746D0065726F006E65760052
:10032000742E69006D6F73007669740073746100D8
:10033000617272002E6D220078220D002C220A00BC
:100340006D6F0000766900003220EF00031B200073
:10035000008041001040BA000160EF00000006007C
:10036000415400002B41000049500000413D000075
:10037000310D00000A0000003220EF0023022000AF
:100380008301500005003100831D200000804100E2
:100390001040BA000160EF0000000600801D200040
:1003A00083814100808141001380BA000000060073
:1003B00041546F002B416D00495022004F3D2C00ED
:1003C000312C38002C22300077772C00772E30002B
:1003D00073652C0072762C006572310064652C0008
:1003E000757332002E730D006F6D0A006565000095
:1003F0002E6300003220EF006320200000804100C7
:100400001040BA000160EF000000060041540000F7
:100410002B41000049500000433D000025640000CE
:100420000D0A0000000000003220EF00030320004E
:1004300083015000050031000323200000804100AB
:100440001040BA000160EF00000006000023200009
:1004500083814100808141001380BA0000000600C2
:1004600047457600542065002F547200494D6400C2
:100470004547650050527500532F73004E4F2E00B4
:1004800057547300494D6F00452F6D00256465007A
:100490002048650054542E00502F6300312E6F0009
:1004A000310D6D000A480D006F730A00743A0D009B
:1004B00020770A00777700002E7300006572000035
:1004C0003220EF00E30220008301500005003100DC
:1004D000C3272000008041001040BA000160EF00F7
:1004E00000000600C0272000838141008081410078
:1004F0001380BA00000006004745720054207600C1
:100500002F546500494D7200454764005052650004
:10051000532F75004F4E730054492E004D45730004
:100520002F256F0064206D0048546500545065000D
:100530002F312E002E3163000D0A6F00486F6D00C1
:1005400073740D003A200A0077770D00772E0A00A9
:10055000736500003220EF00030320008301500088
:1005600005003100632C2000008041001040BA00DB
:100570000160EF0000000600602C20008381410034
:10058000808141001380BA000000060047457600D4
:10059000542065002F547200494D640045476500A2
:1005A00050527500532F73004F462E00465473006F
:1005B000494D6F00452F6D0025646500204865009A
:1005C00054542E00502F6300312E6F00310D6D00FA
:1005D0000A480D006F730A00743A0D0020770A0074
:1005E000777700002E730000657200003220EF0064
:1005F0000303200083015000050031002331200057
:10060000008041001040BA000160EF0000000600C9
:100610002031200083814100808141001380BA0095
:100620000000060047456500542072002F44760004
:1006300045566500494372004547640050526500C5
:10064000532F750047457300544D2E004F447300DF
:10065000452F6F0025646D002048650054546500E7
:10066000502F2E00312E6300310D6F000A486D00AF
:100670006F730D00743A0A0020770D0077770A0037
:100680002E7300003220EF0023032000830150006E
:1006900005003100E3352000008041001040BA0021
:1006A0000160EF0000000600E0352000838141007A
:1006B000808141001380BA000000060047456500B4
:1006C000542072002F44760045566500494372005D
:1006D0004547640050526500532F7500474573002D
:1006E00054532E005441730054556F00532F6D0026
:1006F000256465002048650054542E00502F630087
:10070000312E6F00310D6D000A480D006F730A0025
:10071000743A0D0020770A00777700002E730000EE
:100720003220EF0043032000830150000500310018
:10073000C33A2000008041001040BA000160EF0081
:1007400000000600C03A2000838141008081410002
:100750001380BA000000060047456500542072006F
:100760002F447600455665004943720045476400B2
:1007700050526500532F75004745730054532E00A7
:1007800045547300504F6F00494E6D00542F650063
:100790002564650020482E0054546300502F6F00DC
:1007A000312E6D00310D0D000A480A006F730D00E7
:1007B000743A0A0020770000777700002E7300005B
:1007C0003220EF00030320008301500005003100B8
:1007D000C33F2000008041001040BA000160EF00DC
:1007E00000000600C03F200083814100808141005D
:1007F0001380BA00000006004745650054207200CF
:100800002F44760045566500494372004547640011
:1008100050526500532F75004745730054482E0011
:1008200049537300542F6F0025646D002048650004
:1008300054546500502F2E00312E6300310D6F008F
:100840000A486D006F730D00743A0A0020770D009E
:1008500077770A002E7300003220EF002303200078
:1008600083015000050031008344200000804100D6
:100870001040BA000160EF00000006008044200034
:1008800083814100808141001380BA00000006008E
:1008900047456500542072002F4476004556650098
:1008A000494372004547640050526500532F75005C
:1008B0004745730054502E004F527300544F6F0041
:1008C0004E2F6D00256465002048650054542E00AD
:1008D000502F6300312E6F00310D6D000A480D005E
:1008E0006F730A00743A0D0020770A0077770000D2
:1008F0002E7300003220EF002303200083015000FC
:100900000500310063492000008041001040BA001A
:100910000160EF0000000600604920008381410073
:10092000808141001380BA00000006004745730033
:10093000542065002F4472004556760049436500F7
:100940004547720050526400532F650047457500BB
:10095000545073004F522E00544F730046466F00A0
:100960002F256D00642065004854650054502E000A
:100970002F3163002E316F000D0A6D00486F0D009E
:1009800073740A003A200D0077770A00772E000072
:100990003220EF00230320008301500005003100C6
:1009A000434E2000008041001040BA000160EF007B
:1009B00000000600404E20008381410080814100FC
:1009C0001380BA00000006004745650054207200FD
:1009D0002F44760045566500494372004547640040
:1009E00050526500532F75004745730054502E0038
:1009F0004F52730054496F004E2F6D0025646500FF
:100A00002048650054542E00502F6300312E6F0093
:100A1000310D6D000A480D006F730A00743A0D0025
:100A200020770A00777700002E7300003220EF0055
:100A3000E301200083015000050031002353200012
:100A4000008041001040BA000160EF000000060085
:100A50002053200083814100808141001380BA002F
:100A60000000060047453D00542025002F4D64003E
:100A70004F4E2600495453004F525400494E4100F6
:100A80004747540050525500532F530043523D00E6
:100A90004541250054456400323F000049440000B0
:100AA0003220EF00C3552000008041001040BA0002
:100AB0000160EF00000006002643000055520000D0
:100AC000524500004E5400003D2500006600000025
:100AD0003220EF0043572000008041001040BA0050
:100AE0000160EF0000000600265600004F4C000099
:100AF00054410000474500003D2500002E32000013
:100B0000660000003220EF00E35820000080410022
:100B10001040BA000160EF000000060026560000F9
:100B200041520000313D0000256600000000000039
:100B30003220EF0043022000830150000500310005
:100B4000435B2000008041001040BA000160EF00CC
:100B500000000600405B200083814100808141004D
:100B60001380BA0000000600265665004152750049
:100B7000323D730025662E002048730054546F00E8
:100B8000502F6D00312E6500310D65000A482E0092
:100B90006F736300743A6F0020776D0077770D00F4
:100BA0002E730A0065720D0076650A0072640000FB
:100BB0003220EF0063032000830150000500310064
:100BC000435F2000008041001040BA000160EF0048
:100BD00000000600405F20008381410080814100C9
:100BE0001380BA00000006004745770054202E000D
:100BF0002F4173004C4565005254720047507600F7
:100C0000525365002F437200524564004154650001
:100C1000453F7500494473003D252E00642673004E
:100C200054596F0050456D003D25650064206500F6
:100C300048542E00545063002F316F002E316D0048
:100C40000D0A0D00486F0A0073740D003A200A0067
:100C5000777700003220EF006363200000804100BE
:100C60001040BA000160EF00000006002B2B0000CE
:100C70002B0D00000A0000003220EF0083642000EA
:100C8000008041001040BA000160EF000000060043
:100C90000C540000656C000065670000657300007F
:100CA000746900006F6E000020550000544300007E
:100CB000480000003220EF00636620000080410001
:100CC0001040BA000160EF0000000600446100001F
:100CD00074650000746900006D6500003A0A000048
:100CE000000000003220EF00E36720000080410098
:100CF0001040BA000160EF00000006000C47000041
:100D000065740000746900006E67000020640000D4
:100D100061740000610A0000667200006F6D0000DF
:100D2000207300006572000076650000722E0000DE
:100D30002B2E0000000000003220EF00836A20000C
:100D4000008041001040BA000160EF000000060082
:100D50004D6F0000646500003A200000256400002B
:100D60000A5300007461000074750000733A0000BB
:100D700020250000640000003220EF00836C20007A
:100D8000008041001040BA000160EF000000060042
:100D9000426100007474000065720000793D00003B
:100DA00020250000362E00003366000056000000AB
:100DB0003220EF00436E2000008041001040BA0056
:100DC0000160EF0000000600437500007272000031
:100DD000656E0000743A000020250000362E0000E9
:100DE00033660000410A0000546500006D70000089
:100DF000657200006174000075720000653A0000C1
:100E000020250000362E0000336600006D560000DD
:100E1000000000003220EF006371200000804100DC
:100E20001040BA000160EF000000060052650000AB
:100E300066650000726500006E630000653D00009D
:100E4000200A0000253600002E330000666D0000E9
:100E5000560000003220EF00637320000080410044
:100E60001040BA000160EF0000000600533100009E
:100E70003A200000253600002E330000666D000089
:100E8000410A0000533200003A20000025360000DD
:100E90002E330000666D0000410000000000E000FD
:100EA0004220AF0004003700C31C0900000000000E
:100EB0000000E900F9FF370000000600CA09AF0092
:100EC00002003700D602A90001003700D602A800B0
:100ED000D202A900CA29AF0002003700D622A90019
:100EE00001003700D622A800D222A900CA49AF00CB
:100EF00002003700D642A90001003700D642A80000
:100F0000D242A900CA69AF0002003700D662A90028
:100F100001003700D662A800D262A90000000000DC
:100F2000CB82A800E4072000341688000C000900DA
:100F300000000000CB82A900E407200034168800DE
:100F400000000600851F7800CA69EF00D202A800E1
:100F50000040EB00D402AF000000E800CA69B7000F
:100F6000D222A8000040EB00D422AF000000E8002D
:100F70004100DD00CA69B700D242A8000040EB0082
:100F8000D442AF000000E8004200DD00CA69B700AB
:100F9000D262A8000040EB00D462AF000000E8007D
:100FA0004300DD00CA69B700CAC9BF0000E0B7004E
:100FB000CF02780000000600851F7800D202A8004A
:100FC000D222A800D242A800D262A800CB62A80018
:100FD000E40720003416880000000000CB82A8003F
:100FE000E40720003416880000000000A207020079
:100FF00000000000C9E9B700CB82A900E407200087
:101000003416880000000000CB82A800E40720000E
:10101000341688000500090000000000A207020045
:1010200000000000C8E9B700CB82A900E407200057
:1010300034168800D202A900D222A900D242A90007
:10104000D262A900C9C9BF004400DD00C849B70089
:10105000CF02780000000600851F7800CB42A9006F
:10106000E407200034168800DC07020000000000BE
:10107000804278000570A700FBFF3700C449E200FA
:1010800002003A00CB42A90001003700CB42A80081
:10109000E40720003416880000000000CB62A9009D
:1010A000E40720003416880000000000CB82A9006D
:1010B000E407200034168800254E8000C82ADE0090
:1010C0000B60EF00C42ADE00CA09F800E5FF9F00AC
:1010D000CA09F9005E07020000000000C5C9BF0090
:1010E000EF426000CA09F800E5FF9F00CA09F90055
:1010F0005E07020000000000CF027800000006003A
:10110000851F7800D202A900D222A900D242A900EC
:10111000D262A900E407200034168800E40720000A
:1011200034168800E407200034168800CB42A9005A
:10113000E407200034168800CB62A900E4072000F1
:1011400034168800CB82A900E407200034168800FA
:10115000F00020004E0702000000000010C0B300A5
:10116000A6E9B700344D80006324E1000C003E0086
:1011700030C0B300CAE9B7005E07020000000000FB
:10118000F00F090000000000FF3F09000000000010
:10119000FF3F090000000000A669EC00F1FF3700E6
:1011A00020C0B300CAE9B7005E07020000000000DB
:1011B000A669EF00344D80006324E1000C003E007E
:1011C000A6C9BF000160EF0000010200000000009E
:1011D00080427800C469EF0005407800C5E9B70097
:1011E0002C08020000000000A669EC00F1FF3700A7
:1011F000CF02780000000600B969EF00C44D8000FE
:101200004822DE006724E1000D003E004200A900F4
:10121000B8E9D70002003100D6C2A90001003700AA
:10122000D6C2A800D2C2A900D2A2A900D6A2A80004
:10123000D2A2A900D6A2A900B969EC00EFFF37003D
:1012400000000600D282A900D682A800B4C9BF005F
:10125000B8E9B700FC08020000000000B5C9BF00F3
:10126000B8E9B700FC08020000000000D282A90023
:10127000D682A90000000600D282A900D682A8006A
:10128000AAC9BF00B8E9B700FC08020000000000CE
:10129000D2C2A8000500090000000000AB69EF0001
:1012A000544D80004822DE006724E10011003E001A
:1012B000D2C2A800D4C2AF00020037004200A90089
:1012C000010037004200A800ACE9D700D2A2A90073
:1012D000D6A2A8000C00090000000000D2A2A900BC
:1012E000D6A2A9000C00090000000000AB69EC00C8
:1012F000EBFF3700D282A900D682A900ACC9BF009B
:1013000000E0B70000000600851F7800D282A90027
:10131000D682A9000C00090000000000D2A2A9009A
:10132000D6A2A900E0C8B300B4E9B700B569EF00E0
:10133000220902000000000000C9B300B4E9B700B0
:1013400040CAB300B5E9B70022090200000000005E
:1013500010C8B300AAE9B7003C0902000000000071
:10136000A6E9B700A6C9BF000048B2000004E0002B
:101370000500320000C8B300B4E9B700B569EF005A
:101380002209020000000000CF02780000000600E1
:10139000851F7800F44D80004822DE006124E100C2
:1013A0000300320000C4B300C0E9B70001003700F9
:1013B000C069EF00F44D800061405200C069B40084
:1013C000054E80000548B300C469EF000540780071
:1013D000C5E9B7002C08020000000000CF02780029
:1013E00000000600BCC9BF000160EF00C080B20071
:1013F000050032006080B2000B0032002080B20095
:101400001000320015003700C469EF0010C0B300AF
:10141000C5E9B7002C08020000000000923909005D
:10142000000000001400370010C0B300BEE9B70090
:1014300020C0B300BFE9B700C809020000000000E7
:101440000D003700C469EF0000C1B300C5E9B70063
:101450002C080200000000000700370010C0B30095
:10146000C4E9B700BCC9BF00C5E9B7002C08020039
:10147000000000000000370000000600851F780013
:10148000C429EF00C429EF00204E8000044E8000E4
:101490000020E10007003400F04D8000C409B400D2
:1014A00080027800C2C9BF0080429800C429EC00C5
:1014B000F5FF3700CF02780000000600851F780096
:1014C000C029EF0000C1B3000EE2B7000E02AE006B
:1014D000FEFF3700901080006A04E100FBFF3A0035
:1014E000F04D8000C009B400800278000E02AE000A
:1014F000FEFF370090108000804A7800C029EC0081
:10150000044E8000E31520000418E10007003400B9
:10151000F04D8000C009B400800278006180520064
:10152000104278006D24E100EDFF3A00800C2000AD
:101530004E0702000000000000C1B3000EE2B70039
:10154000CF02780000000600851F7800050020000B
:101550000500780010010200000000000040B30008
:101560004220AF00050037008502E800BCE9B70063
:10157000F209020000000000F5FF3700814D8000F5
:101580001104E00008003200811F78000140900043
:10159000BCE9B700F209020000000000CF007800AB
:1015A0008100E800F6FF3700904D80004E070200F2
:1015B00000000000CF02780000000600851F7800C0
:1015C000BE29EF0014002000044E8800BE29EF0061
:1015D000F04D8000E44D80000020E1001000340058
:1015E000D04D8000BE09B4001042780054C4B2004F
:1015F00009003A00F44D80006102420004007800C6
:10160000D44D8000040040001042780024C5B20090
:1016100001003A00C029EF00BE29EC00ECFF3700C2
:10162000C009F8000000F900CF02780000000600B1
:10163000851F7800A629EF00A829EF00A609E2007F
:1016400022013A00444D80006520E1001F013D0069
:10165000C269EF0084812000F44D8800E415200069
:10166000044E88003E0A0200000000000100200035
:10167000010078001E010200000000008100E80067
:10168000811F78000F22AF00FEFF37008010880016
:10169000CF007800900020000008E600F4FF37003B
:1016A00084812000F44D88005E0A020000000000E2
:1016B00044062000944D880084812000844D8800D9
:1016C000A40A020000000000E4012000E44D8800AC
:1016D00084812000D44D8800DE0A02000000000052
:1016E000304D8800344D80006120E1000D003A004B
:1016F000050020000500780036010200000000000F
:101700000040B3004220AF00050037008502E8002A
:10171000BCE9B700F209020000000000F5FF370045
:101720000D00370005002000050078004A01020086
:10173000000000000040B3004220AF000500370069
:101740008502E800BCE9B700F209020000000000D1
:10175000F5FF3700A629EF00802520004E07020084
:1017600000000000344D80006120E10045003A0097
:10177000C269EF0084812000F44D8800E415200048
:10178000044E88003E0A0200000000000100200014
:101790000100780060010200000000008100E80004
:1017A000811F78000F22AF00FEFF370080108800F5
:1017B000CF007800900320000008E600F4FF370017
:1017C00084812000F44D88005E0A020000000000C1
:1017D00084812000844D8800843E2000944D880040
:1017E000A40A020000000000E4012000E44D88008B
:1017F00084812000D44D8800DE0A02000000000031
:10180000304D8800344D80006120E1000D003A0029
:1018100005002000050078003601020000000000ED
:101820000040B3004220AF00050037008502E80009
:10183000BCE9B700F209020000000000F5FF370024
:101840000D00370005002000050078004A01020065
:10185000000000000040B3004220AF000500370048
:101860008502E800BCE9B700F209020000000000B0
:10187000F5FF3700A629EF00802520004E07020063
:1018800000000000344D80006120E10045003A0076
:10189000C269EF0084812000F44D8800E415200027
:1018A000044E88003E0A02000000000001002000F3
:1018B00001007800A4010200000000008100E8009F
:1018C000811F78000F22AF00FEFF370080108800D4
:1018D000CF007800A00020000008E600F4FF3700E9
:1018E00084812000F44D88005E0A020000000000A0
:1018F00084812000844D8800843E2000944D88001F
:10190000A40A020000000000E4012000E44D880069
:1019100084812000D44D8800DE0A0200000000000F
:10192000304D8800344D80006120E1000D003A0008
:1019300005002000050078003601020000000000CC
:101940000040B3004220AF00050037008502E800E8
:10195000BCE9B700F209020000000000F5FF370003
:101960000D00370005002000050078004A01020044
:10197000000000000040B3004220AF000500370027
:101980008502E800BCE9B700F2090200000000008F
:10199000F5FF3700A629EF00401F20004E07020088
:1019A00000000000344D80006120E10045003A0055
:1019B000C269EF0084812000F44D8800E415200006
:1019C000044E88003E0A02000000000001002000D2
:1019D00001007800BC010200000000008100E80066
:1019E000811F78000F22AF00FEFF370080108800B3
:1019F000CF007800000320000008E600F4FF370065
:101A000084812000F44D88005E0A0200000000007E
:101A100084812000844D8800843E2000944D8800FD
:101A2000A40A020000000000E4012000E44D880048
:101A300084812000D44D8800DE0A020000000000EE
:101A4000304D8800344D80006120E1000D003A00E7
:101A500005002000050078003601020000000000AB
:101A60000040B3004220AF00050037008502E800C7
:101A7000BCE9B700F209020000000000F5FF3700E2
:101A80000D00370005002000050078004A01020023
:101A9000000000000040B3004220AF000500370006
:101AA0008502E800BCE9B700F2090200000000006E
:101AB000F5FF3700A629EF00401F20004E07020067
:101AC00000000000A829EC00DCFE3700CF027800FF
:101AD00000000600851F7800C500200003000900F3
:101AE000B51F780000F0A6000C0037000000EA00E7
:101AF0000480A00004F0A60008003700801F7800D2
:101B0000D00220000F22AF00FEFF370080108800B7
:101B10004F0078000480A1000860ED008002EB0017
:101B2000800378008404780004F0A1000404E0003D
:101B300006003A0009F0A700020037000500200067
:101B40000F003700050020000D003700E64252006C
:101B50000A0039000003200009F0A600000220005E
:101B60000F22AF00FEFF3700801088008502E900D9
:101B7000FBFF3B0055002000010037008402780085
:101B8000640020000580A7000402E80005E0A00032
:101B900009F0A70005F0A00008712200110009005B
:101BA0008883D800160E0200000000008103780030
:101BB000883E2000110009008883D800160E02001C
:101BC0000000000081037800480620001100090091
:101BD0008883D800160E0200000000008103780000
:101BE000A8002000110009008883D800160E02000A
:101BF000000000000980A60005003700D002200088
:101C00000F22AF00FEFF3700801088000980A1007E
:101C10000003200000C04000500188000F22AF00E8
:101C2000FEFF3700801088002200370006032000E6
:101C30000000E0000E003A0005E0A60016003700A4
:101C40000402E9000524E100020032004200AF0076
:101C5000000006000000E00005003A0005E0A600D4
:101C60000D00370005F0A600060220000A0037002C
:101C700005E0A1000980A6000700370000057800F4
:101C8000D00220000F22AF00FEFF37008010880036
:101C90000980A1000A00780000404300811F7800FD
:101CA0000F22AF00FEFF370080108800CF007800C1
:101CB000000006002501200003000900CF12780073
:101CC000CF02780000000600851F7800C429EF00CD
:101CD000C6A9EF00204E8000044E80000020E100E5
:101CE00030003400F04D8000C409B4001042780088
:101CF00044C2B2002B003200F04D8000C409B40091
:101D000010407800C249E30024003A00244E8000CD
:101D10006102420004007800F44D8000040040009D
:101D200010407800C349E3001C003A00244E8000B4
:101D300062024200244E8800C629EF00F04D800068
:101D4000C409B400F40220001024E10013003100A3
:101D5000F04D8000C409B40010427800A3032000B5
:101D6000041CE1000D003600344E80006A20B800EB
:101D7000304E8800F04D8000C409B4001042780055
:101D80000443B1000440780000E0B7000080FB008D
:101D9000C629B400C429EC00E8FF3700C429EC00D0
:101DA000CCFF3700C609F8000000F900CF02780028
:101DB00000000600C269EF0084812000F44D880015
:101DC000E4152000044E88003E0A020000000000D6
:101DD0000100200001007800FA010200000000006C
:101DE0008100E800811F78000F22AF00FEFF37005E
:101DF00080108800CF007800700020000008E60006
:101E0000F4FF3700D04D8000040020006A0D02006E
:101E1000000000000F22AF00FEFF3700D4002000BA
:101E2000841088000F22AF00FEFF3700A4002000BE
:101E30008410880084812000F44D88005E0A02002E
:101E40000000000000000600851F7800861F780053
:101E5000AA29EF00AC29EF00C269EF0084812000BD
:101E6000F44D8800E4152000044E88003E0A02006C
:101E700000000000010020000100780014020200B0
:101E8000000000008100E800811F78000F22AF00F1
:101E9000FEFF370080108800CF007800500120003E
:101EA0000008E600F4FF3700304D800004002000F9
:101EB0006A0D02000000000081012000010078008E
:101EC00014020200000000008100E800811F780079
:101ED0000F22AF00FEFF370080108800CF0078008F
:101EE000400420000008E600F4FF37008481200051
:101EF000634D8000848241000E02AE00FEFF370079
:101F000090108000804A7800AC29EC00644D80007D
:101F1000E31520000418E10007003400644D800040
:101F2000E1025200848120000480420010427800C7
:101F300044C2B200EDFF3A0084812000D44D8800F5
:101F4000AC09F800BC09F900DE0A0200000000003C
:101F5000800278006128E1005D003A000500200061
:101F60000500780036010200000000000040B300C8
:101F70004220AF00050037008502E800BCE9B70049
:101F8000F209020000000000F5FF3700B04B8000AE
:101F90004E07020000000000454D800040C6B3001F
:101FA000C2E9B70090C7B300C3E9B700848120003D
:101FB000F44D8800AC09F800C009F900640E020075
:101FC00000000000804A7800444D80006102420019
:101FD0000400780080027800D0C6B300C2E9B700E0
:101FE00040C7B300C3E9B70084812000F44D8800E6
:101FF000AC09F800C009F900640E020000000000FE
:10200000804A7800444D800062024200040078005B
:102010008002780090C7B300C2E9B70020C7B300C0
:10202000C3E9B70084812000F44D8800AC09F800B2
:10203000C009F900640E02000000000000037800EF
:10204000047D200004005300804A7800444D800045
:1020500063024200040078008002780080C6B3006A
:10206000C2E9B70020C7B300C3E9B70084812000EC
:10207000F44D8800AC09F800C009F900640E0200B4
:1020800000000000804A7800444D80006402420055
:102090000400780080027800D0C6B300C2E9B7001F
:1020A000E0C6B300C3E9B70084812000F44D880086
:1020B000AC09F800C009F900640E0200000000003D
:1020C000804A780014002000544D88000100370039
:1020D000AA29EF00200320004E07020000000000A4
:1020E0000F22AF00FEFF3700B402200084108800EA
:1020F0000F22AF00FEFF3700B402200084108800DA
:102100000F22AF00FEFF3700B402200084108800C9
:1021100000C1B3000EE2B70084812000F44D8800B6
:102120005E0A020000000000200320004E070200AB
:102130000000000014002000D44D8800DA0E0200D8
:1021400000000000AA09F8000000F9004F03780021
:10215000CF02780000000600851F7800944D8000B3
:102160000960EF00A3002000110009000382D800DD
:10217000B3E9B700944D80004822DE006A20B80021
:10218000944D800000405200B4E9B700B3C9BF00CD
:102190004400DD00B449B700CF027800000006001B
:1021A000851F7800A6C9BF00B2E9B700AC100200D5
:1021B000000000008042780060C8B300B4E9B700B6
:1021C00005407800B5E9B7002209020000000000D0
:1021D000A7C9BF00B2E9B700AC10020000000000C0
:1021E0008042780080C8B300B4E9B70005407800A9
:1021F000B5E9B7002209020000000000A8C9BF002D
:10220000B2E9B700AC100200000000008042780084
:10221000C0C8B300B4E9B70005407800B5E9B7001D
:102220002209020000000000A9C9BF00B2E9B700FE
:10223000AC1002000000000080427800A0C8B3008B
:10224000B4E9B70005407800B5E9B70022090200FB
:1022500000000000AAC9BF00B2E9B700AC1002003C
:10226000000000008042780040C8B300B4E9B70025
:1022700005407800B5E9B70022090200000000001F
:10228000ABC9BF00B2E9B700AC100200000000000B
:102290008042780020C8B300B4E9B7000540780058
:1022A000B5E9B7002209020000000000B269EF00A2
:1022B000AC100200000000008042780000C8B300AB
:1022C000B4E9B70005407800B5E9B700220902007B
:1022D00000000000CF02780000000600851F780093
:1022E000C500200003000900B51F780000F0A6001B
:1022F0000C0037000000EA000480A00004F0A600F3
:1023000008003700801F7800D0022000BCE9B70029
:10231000F2090200000000004F0078000480A100D4
:102320000860ED008002EB008003780084047800F0
:1023300004F0A1000404E00006003A0009F0A70040
:1023400002003700050020000F00370005002000C4
:102350000D003700E64252000A0039000003200059
:1023600009F0A60000022000BCE9B700F209020053
:10237000000000008502E900FBFF3B005500200043
:102380000100370084027800640020000580A70067
:102390000402E80005E0A00009F0A70005F0A00095
:1023A00008712200110009008883D8001A12020067
:1023B0000000000081037800883E20001100090021
:1023C0008883D8001A120200000000008103780000
:1023D00048062000110009008883D8001A12020064
:1023E0000000000081037800A8002000110009000F
:1023F0008883D8001A120200000000000980A6009D
:1024000005003700D0022000BCE9B700F209020045
:10241000000000000980A1000003200000C040006F
:1024200050018800BCE9B700F2090200000000007A
:1024300022003700060320000000E0000E003A00F2
:1024400005E0A600160037000402E9000524E100BB
:10245000020032004200AF00000006000000E00071
:1024600005003A0005E0A6000D00370005F0A600C3
:10247000060220000A00370005E0A1000980A6003E
:102480000700370000057800D0022000BCE9B70043
:10249000F2090200000000000980A1000A00780093
:1024A00000404300811F7800BCE9B700F209020038
:1024B00000000000CF007800000006002501200089
:1024C00003000900CF127800CF0278000000060058
:1024D000851F7800AC29EF00AE29EF00C269EF003C
:1024E00084812000F44D8800E4152000044E88000B
:1024F0003E0A0200000000000100200001007800F8
:10250000A4010200000000008100E800811F7800A3
:102510000F22AF00FEFF370080108800CF00780048
:10252000A00020000008E600F4FF370084812000AE
:10253000F44D88005E0A020000000000B04B8000ED
:102540004E07020000000000C269EF0084812000F5
:10255000F44D8800E4152000044E88003E0A020075
:10256000000000000100200001007800BC01020012
:10257000000000008100E800811F78000F22AF00FA
:10258000FEFF370080108800CF0078000003200095
:102590000008E600F4FF370084812000F44D880035
:1025A0005E0A020000000000B04B80004E070200EF
:1025B00000000000C269EF0084812000F44D880013
:1025C000E4152000044E88003E0A020000000000CE
:1025D0000100200001007800F60202000000000067
:1025E0008100E800811F78000F22AF00FEFF370056
:1025F00080108800CF007800700120000008E600FD
:10260000F4FF3700304D8000040020006A0D020006
:1026100000000000A101200001007800F602020085
:10262000000000008100E800811F78000F22AF0049
:10263000FEFF370080108800CF0078006004200083
:102640000008E600F4FF37000E02AE00FEFF370080
:10265000901080006A04E100FBFF3A0084812000B2
:10266000734D8000848241000E02AE00FEFF3700F1
:1026700090108000804A7800AE29EC00744D8000F4
:10268000E31520000418E10007003400744D8000B9
:10269000E102520084812000048042001042780050
:1026A00044C2B200EDFF3A0000C1B3000EE2B70031
:1026B00084812000D44D8800AE09F800BC09F900DF
:1026C000DE0A020000000000800278006128E100BC
:1026D0000E003A00454D8000D0C6B300C2E9B700F5
:1026E00040C6B300C3E9B70084812000F44D8800E0
:1026F000AE09F800C009F900640E020000000000F5
:10270000800A780014002000644D8800C269EF0040
:1027100084812000F44D8800E4152000044E8800D8
:102720003E0A020000000000AE29EF000100200078
:102730000100780042030200000000008100E80070
:10274000811F78000F22AF00FEFF37008010880045
:10275000CF007800900120000008E600F4FF370069
:10276000304D8000040020006A0D020000000000CF
:10277000C1012000010078004203020000000000B7
:102780008100E800811F78000F22AF00FEFF3700B4
:1027900080108800CF007800800420000008E60048
:1027A000F4FF37000E02AE00FEFF370090108000ED
:1027B0006A04E100FBFF3A0084812000734D800031
:1027C000848241000E02AE00FEFF370090108000B0
:1027D000804A7800AE29EC00744D8000E31520009B
:1027E0000418E10007003400744D8000E10252003B
:1027F00084812000048042001042780044C2B2006C
:10280000EDFF3A0084812000D44D8800AE09F80025
:10281000BC09F900DE0A0200000000008002780016
:102820006128E1000E003A00554D800030C7B3002A
:10283000C2E9B70040C7B300C3E9B70084812000F4
:10284000F44D8800AE09F800C009F900640E0200DA
:1028500000000000804A780014002000644D8800C9
:10286000200320004E070200000000000F22AF00EE
:10287000FEFF3700B4022000841088000F22AF0052
:10288000FEFF3700B4022000841088000F22AF0042
:10289000FEFF3700B40220008410880000C1B3009E
:1028A0000EE2B70084812000F44D88005E0A020029
:1028B00000000000200320004E070200000000007E
:1028C00014002000D44D8800DA0E02000000000041
:1028D000CF02780000000600851F7800AA29EF00CB
:1028E000C269EF0084812000F44D8800E4152000C7
:1028F000044E88003E0A0200000000000100200093
:1029000001007800A4010200000000008100E8003E
:10291000811F78000F22AF00FEFF37008010880073
:10292000CF007800A00020000008E600F4FF370088
:1029300084812000F44D88005E0A0200000000003F
:10294000B04B80004E07020000000000C269EF009B
:1029500084812000F44D8800E4152000044E880096
:102960003E0A020000000000010020000100780083
:10297000BC010200000000008100E800811F780017
:102980000F22AF00FEFF370080108800CF007800D4
:10299000000320000008E600F4FF370084812000D7
:1029A000F44D88005E0A020000000000B04B800079
:1029B0004E07020000000000C269EF008481200081
:1029C000F44D8800E4152000044E88003E0A020001
:1029D00000000000010020000100780060020200F9
:1029E000000000008100E800811F78000F22AF0086
:1029F000FEFF370080108800CF00780040012000E3
:102A00000008E600F4FF3700304D8000040020008D
:102A10006A0D020000000000710120000100780032
:102A200060020200000000008100E800811F7800C1
:102A30000F22AF00FEFF370080108800CF00780023
:102A4000300420000008E600F4FF370084812000F5
:102A5000534D8000848241000E02AE00FEFF37001D
:102A600090108000804A7800AA29EC00544D800024
:102A7000E31520000418E10007003400544D8000E5
:102A8000E10252008481200004804200104278005C
:102A900044C2B200EDFF3A0084812000D44D88008A
:102AA000AA09F800BC09F900DE0A020000000000D3
:102AB000800278006128E1001E003A00444D800049
:102AC00063024200040078008002780080C6B300F0
:102AD000C2E9B70020C7B300C3E9B7008481200072
:102AE000F44D8800AA09F800C009F900640E02003C
:102AF00000000000804A7800444D800064024200DB
:102B00000400780080027800D0C6B300C2E9B700A4
:102B1000E0C6B300C3E9B70084812000F44D88000B
:102B2000AA09F800C009F900640E020000000000C4
:102B3000804A7800200320004E07020000000000B9
:102B40000F22AF00FEFF3700B4022000841088007F
:102B50000F22AF00FEFF3700B4022000841088006F
:102B60000F22AF00FEFF3700B4022000841088005F
:102B700000C1B3000EE2B70084812000F44D88004C
:102B80005E0A02000000000014002000D44D8800FE
:102B9000DA0E020000000000CF02780000000600FC
:102BA000851F7800AA29EF00C269EF008481200008
:102BB000F44D8800E4152000044E88003E0A02000F
:102BC000000000000100200001007800A4010200C4
:102BD000000000008100E800811F78000F22AF0094
:102BE000FEFF370080108800CF007800A000200092
:102BF0000008E600F4FF370084812000F44D8800CF
:102C00005E0A020000000000B04B80004E07020088
:102C100000000000C269EF0084812000F44D8800AC
:102C2000E4152000044E88003E0A02000000000067
:102C30000100200001007800BC010200000000003B
:102C40008100E800811F78000F22AF00FEFF3700EF
:102C500080108800CF007800000320000008E60004
:102C6000F4FF370084812000F44D88005E0A0200E2
:102C700000000000B04B80004E0702000000000082
:102C8000C269EF0084812000F44D8800E415200023
:102C9000044E88003E0A02000000000001002000EF
:102CA00001007800AA020200000000008100E80094
:102CB000811F78000F22AF00FEFF370080108800D0
:102CC000CF007800500120000008E600F4FF370034
:102CD000304D8000040020006A0D0200000000005A
:102CE0008101200001007800AA020200000000001B
:102CF0008100E800811F78000F22AF00FEFF37003F
:102D000080108800CF007800400420000008E60012
:102D1000F4FF370084812000534D800084824100FD
:102D20000E02AE00FEFF370090108000804A78004F
:102D3000AA29EC00544D8000E31520000418E1009E
:102D400007003400544D8000E102520084812000CD
:102D5000048042001042780044C2B200EDFF3A0005
:102D600084812000D44D8800AA09F800BC09F9002C
:102D7000DE0A020000000000800278006128E10005
:102D80001E003A00444D80006302420004007800B7
:102D90008002780080C6B300C2E9B70020C7B30044
:102DA000C3E9B70084812000F44D8800AA09F80027
:102DB000C009F900640E020000000000804A78009B
:102DC000444D8000640242000400780080027800D4
:102DD000D0C6B300C2E9B700E0C6B300C3E9B7008C
:102DE00084812000F44D8800AA09F800C009F90088
:102DF000640E020000000000804A780020032000DA
:102E00004E070200000000000F22AF00FEFF370057
:102E1000B4022000841088000F22AF00FEFF3700AC
:102E2000B4022000841088000F22AF00FEFF37009C
:102E3000B40220008410880000C1B3000EE2B70085
:102E400084812000F44D88005E0A0200000000002A
:102E5000200320004E0702000000000014002000A4
:102E6000D44D8800DA0E020000000000CF02780086
:102E700000000600851F7800AE29EF00B029EF00A2
:102E8000C269EF0084812000F44D8800E415200021
:102E9000044E88003E0A02000000000001002000ED
:102EA00001007800A4010200000000008100E80099
:102EB000811F78000F22AF00FEFF370080108800CE
:102EC000CF007800A00020000008E600F4FF3700E3
:102ED00084812000F44D88005E0A0200000000009A
:102EE000B04B80004E07020000000000C269EF00F6
:102EF00084812000F44D8800E4152000044E8800F1
:102F00003E0A0200000000000100200001007800DD
:102F1000BC010200000000008100E800811F780071
:102F20000F22AF00FEFF370080108800CF0078002E
:102F3000000320000008E600F4FF37008481200031
:102F4000F44D88005E0A020000000000B04B8000D3
:102F50004E07020000000000C269EF0084812000DB
:102F6000F44D8800E4152000044E88003E0A02005B
:102F70000000000001002000010078002C04020085
:102F8000000000008100E800811F78000F22AF00E0
:102F9000FEFF370080108800CF00780090012000ED
:102FA0000008E600F4FF3700304D800004002000E8
:102FB0006A0D020000000000C1012000010078003D
:102FC0002C040200000000008100E800811F78004E
:102FD0000F22AF00FEFF370080108800CF0078007E
:102FE000800420000008E600F4FF37000E02AE0067
:102FF000FEFF3700901080006A04E100FBFF3A00FA
:1030000084812000834D8000848241000E02AE0046
:10301000FEFF370090108000804A7800B029EC0055
:10302000844D8000E31520000418E10007003400FF
:10303000844D8000E102520084812000048042001F
:103040001042780044C2B200EDFF3A0000C1B30064
:103050000EE2B70084812000D44D8800B009F8004A
:10306000BC09F900DE0A02000000000080027800BE
:103070006128E1000E003A00454D800030C7B300E2
:10308000C2E9B70040C7B300C3E9B700848120009C
:10309000F44D8800B009F800C009F900640E020080
:1030A00000000000800A780014002000744D8800A1
:1030B000C269EF0084812000F44D8800E4152000EF
:1030C000044E88003E0A020000000000B029EF0014
:1030D00001002000010078007A04020000000000D6
:1030E0008100E800811F78000F22AF00FEFF37004B
:1030F00080108800CF007800A00120000008E600C2
:10310000F4FF3700304D8000040020006A0D0200FB
:1031100000000000D1012000010078007A040200C4
:10312000000000008100E800811F78000F22AF003E
:10313000FEFF370080108800CF0078009004200048
:103140000008E600F4FF37000E02AE00FEFF370075
:10315000901080006A04E100FBFF3A0084812000A7
:10316000834D8000848241000E02AE00FEFF3700D6
:1031700090108000804A7800B029EC00844D8000D7
:10318000E31520000418E10007003400844D80009E
:10319000E102520084812000048042001042780045
:1031A00044C2B200EDFF3A0084812000D44D880073
:1031B000B009F800BC09F900DE0A020000000000B6
:1031C000800278006128E1000E003A00554D800031
:1031D00030C7B300C2E9B70040C7B300C3E9B700C6
:1031E00084812000F44D8800B009F800C009F9007E
:1031F000640E020000000000800A78001400200025
:10320000744D8800C269EF0084812000F44D88006D
:10321000E4152000044E88003E0A02000000000071
:10322000B029EF000100200001007800C80402006E
:10323000000000008100E800811F78000F22AF002D
:10324000FEFF370080108800CF007800900120003A
:103250000008E600F4FF3700304D80000400200035
:103260006A0D020000000000C1012000010078008A
:10327000C8040200000000008100E800811F7800FF
:103280000F22AF00FEFF370080108800CF007800CB
:10329000800420000008E600F4FF37000E02AE00B4
:1032A000FEFF3700901080006A04E100FBFF3A0047
:1032B00084812000834D8000848241000E02AE0094
:1032C000FEFF370090108000804A7800B029EC00A3
:1032D000844D8000E31520000418E100070034004D
:1032E000844D8000E102520084812000048042006D
:1032F0001042780044C2B200EDFF3A008481200001
:10330000D44D8800B009F800BC09F900DE0A0200BB
:1033100000000000800278006128E1000E003A0001
:10332000654D800030C7B300C2E9B70040C7B300A5
:10333000C3E9B70084812000F44D8800B009F8008B
:10334000C009F900640E020000000000800A780045
:1033500014002000744D8800200320004E07020056
:10336000000000000F22AF00FEFF3700B402200073
:10337000841088000F22AF00FEFF3700B402200047
:10338000841088000F22AF00FEFF3700B402200037
:103390008410880000C1B3000EE2B70084812000D1
:1033A000F44D88005E0A02000000000020032000A7
:1033B0004E0702000000000014002000D44D8800D9
:1033C000DA0E020000000000CF02780000000600C4
:1033D000851F7800AC29EF00AE29EF00C269EF002D
:1033E00084812000F44D8800E4152000044E8800FC
:1033F0003E0A0200000000000100200001007800E9
:10340000A4010200000000008100E800811F780094
:103410000F22AF00FEFF370080108800CF00780039
:10342000A00020000008E600F4FF3700848120009F
:10343000F44D88005E0A020000000000B04B8000DE
:103440004E07020000000000C269EF0084812000E6
:10345000F44D8800E4152000044E88003E0A020066
:10346000000000000100200001007800BC01020003
:10347000000000008100E800811F78000F22AF00EB
:10348000FEFF370080108800CF0078000003200086
:103490000008E600F4FF370084812000F44D880026
:1034A0005E0A020000000000B04B80004E070200E0
:1034B00000000000C269EF0084812000F44D880004
:1034C000E4152000044E88003E0A020000000000BF
:1034D00001002000010078009003020000000000BD
:1034E0008100E800811F78000F22AF00FEFF370047
:1034F00080108800CF007800B00120000008E600AE
:10350000F4FF3700304D8000040020006A0D0200F7
:1035100000000000E101200001007800900302009B
:10352000000000008100E800811F78000F22AF003A
:10353000FEFF370080108800CF007800A004200034
:103540000008E600F4FF37000E02AE00FEFF370071
:10355000901080006A04E100FBFF3A0084812000A3
:10356000734D8000848241000E02AE00FEFF3700E2
:1035700090108000804A7800AE29EC00744D8000E5
:10358000E31520000418E10007003400744D8000AA
:10359000E102520084812000048042001042780041
:1035A00044C2B200EDFF3A0000C1B3000EE2B70022
:1035B00084812000D44D8800AE09F800BC09F900D0
:1035C000DE0A020000000000800278006128E100AD
:1035D0000E003A00454D800030C7B300C2E9B70085
:1035E00040C7B300C3E9B70084812000F44D8800D0
:1035F000AE09F800C009F900640E020000000000E6
:10360000800A780014002000644D8800C269EF0031
:1036100084812000F44D8800E4152000044E8800C9
:103620003E0A020000000000AE29EF000100200069
:1036300001007800E0030200000000008100E800C3
:10364000811F78000F22AF00FEFF37008010880036
:10365000CF007800700120000008E600F4FF37007A
:10366000304D8000040020006A0D020000000000C0
:10367000A101200001007800E0030200000000002A
:103680008100E800811F78000F22AF00FEFF3700A5
:1036900080108800CF007800600420000008E60059
:1036A000F4FF37000E02AE00FEFF370090108000DE
:1036B0006A04E100FBFF3A0084812000734D800022
:1036C000848241000E02AE00FEFF370090108000A1
:1036D000804A7800AE29EC00744D8000E31520008C
:1036E0000418E10007003400744D8000E10252002C
:1036F00084812000048042001042780044C2B2005D
:10370000EDFF3A0084812000D44D8800AE09F80016
:10371000BC09F900DE0A0200000000008002780007
:103720006128E1000E003A00554D800030C7B3001B
:10373000C2E9B70040C7B300C3E9B70084812000E5
:10374000F44D8800AE09F800C009F900640E0200CB
:1037500000000000800A780014002000644D8800FA
:10376000200320004E070200000000000F22AF00DF
:10377000FEFF3700B4022000841088000F22AF0043
:10378000FEFF3700B4022000841088000F22AF0033
:10379000FEFF3700B40220008410880000C1B3008F
:1037A0000EE2B70084812000F44D88005E0A02001A
:1037B00000000000200320004E070200000000006F
:1037C00014002000D44D8800DA0E02000000000032
:1037D000CF02780000000600851F7800861F780061
:1037E000E10820000600A10000F0A6000300370059
:1037F0000600A0000000EA00000037000000E00022
:103800001400320000F0A700040037004200A900B5
:103810000080D2008100E900FAFF37000180FD003E
:103820004200A9008180D30000F0A1000080FD00CB
:10383000814068000040B2000600A70001F0A0002F
:1038400007003700014078000170A0000140B2007D
:10385000030037000000EB008000EB0000003700A1
:103860004F037800CF02780000000600851F780023
:10387000861F7800871F78000382680004F0A60086
:10388000060037004200A9004220A90001F0A6006E
:10389000260037004200A80024003700010278000B
:1038A0008002780003037800820378008180D200D0
:1038B0000180FD008381D2000380FD0081C05100A2
:1038C0000500320004F0A6001800370010002000A8
:1038D00042E0B60015003700844078008641780049
:1038E0000170A1000370A10081C0510005003200E9
:1038F00004F0A6000D0037001000200042E0B600E2
:103900000A003700858053000500320004F0A6004D
:10391000060037001000200042E0B6000300370028
:103920004200A9000100370000003700CF037800F3
:103930004F037800CF02780000000600851F780052
:10394000C500200003000900B51F780000027800C0
:103950008102780002037800830378000000EB0006
:103960008000EB000001EB008001EB000800A100EB
:1039700007F0A600050037000800A0000402EA00D6
:103980008582EA000683EA008783EA0085047200E4
:1039900002003A0087047300150032003947200006
:1039A0000340A7000B0037004200A9000482D200A8
:1039B0008582D2000683D2008783D2000080D200A5
:1039C0008180D2000281D2008381D2008904E90083
:1039D000F3FF3A00C44CDD004200A90009F0A10049
:1039E0000340A10083816C000800A70003F0A00041
:1039F0002501200003000900CF127800CF027800D3
:103A000000000600881F780028012000040009003B
:103A1000B81F7800080028004300AF0087036C003F
:103A2000030578008A856B0003047800870478001A
:103A300007067800FD7F20004220A9004200A9006F
:103A400044C4DE00088466000800E000BC003200C8
:103A50004220A9004200A900C4CCDE00898466008F
:103A60000900E000BE0032008006EB004220A90001
:103A70004200A9000848E100BA003200C10033004A
:103A80000D00A1000D10A00008845400F300B20046
:103A90000340A000F700B2000740A0004803B100B7
:103AA00016003B004803B0004220A9004200A900D4
:103AB0008381D3000281D3008180D3000080D300B2
:103AC0000804E900F8FF3A00140037004803B10089
:103AD0000F003B004803B0004220A9004200A900AB
:103AE0008783D3000683D3008582D3000482D3006A
:103AF0000804E900F8FF3A001B00370004007800D2
:103B00008500780006017800870178000C866D003A
:103B10000CF0A7000BF0A200790037000BF0A60014
:103B20001F0037000D40A7008C0578000080EA00D8
:103B30008180EA000281EA0083C1EA00F341B20019
:103B40000000E80005003A008100E80003003A00A8
:103B50000201E80001003A008341E8000D40A7009F
:103B6000320037000E0037000BF0A6000C003700C3
:103B70000482EA008582EA000683EA0087C3EA003D
:103B8000F741B2000402E80005003A008502E800AF
:103B900003003A000603E80001003A008743E8000A
:103BA0004220A9004200A90004004000858048008E
:103BB0000601490087C149000350A7000D30A0004D
:103BC0000D00A700090037000D10A7000100370005
:103BD0000B0037000BF0A700140037000D30A700D2
:103BE000290037000D60A000210037000BF0A7006E
:103BF0000E0037000D30A700230037001C003700EF
:103C00000BF0A700040037008A0578000D30A700EC
:103C10001D0037003A0037000D40A00003C1B2007C
:103C20000340A700BFFF37008A057800F301B20008
:103C30000284710002003A00008470000C0032001F
:103C40000340A7000A0037004220A9004200A90053
:103C50000080D2008180D2000281D2008381D20014
:103C60008904E9004220AF0032003700F4FF37003A
:103C70000D00A7008A0578000D10A7008C057800BC
:103C80000D50A6001E0037004200A90083C1D300DA
:103C90000281D3008180D3000080D3004200AF00B6
:103CA0000D50A0008904E8004220AF002100370039
:103CB0000D50A6000E0037000000E8000C003A008E
:103CC0008100E8000A003A000201E80008003A001A
:103CD0008301E80006003A0083C1D3000281D300CB
:103CE0008180D3000080D3008904E80011003200F5
:103CF0000D00A7008A0578000D10A7008C0578003C
:103D00000102700002003A00030271002600320036
:103D10000340A1004220A9004200A900C44CDD00DC
:103D200083816C0003F0A0000BF0A60003F0A1005B
:103D30001D0037006000B8006011B8001A0037009D
:103D4000080028000AF0A70087036C0085007800AF
:103D5000040078000601780087017800120037001F
:103D600011003700F700B2000740A000F300B200D6
:103D70000340A0000BF0A7000740A1000D20A00009
:103D800079FF3700F300B2000340A000F700B20053
:103D90000740A00009045400890444000D10A1004C
:103DA0000D00A00049FF3700A80120000400090011
:103DB0004F1478004F04780000000600881F780038
:103DC000891F78008A1F78008784690009F0A6009F
:103DD000060037004200A9004220A90003F0A60017
:103DE000340037004200A80032003700FA7F20007C
:103DF000030478008704780044C4DE0008046500EA
:103E0000C4CCDE008904650008855400050032003A
:103E100003F0A600270037001000200042E0B600A3
:103E2000240037000304780087047800F301B2000F
:103E3000F701B2000340A1000740A10003C55300F1
:103E40000500320008F0A6001A003700100020001C
:103E500042E0B600170037000205530005003200AB
:103E600008F0A600130037001000200042E0B60062
:103E700010003700018552000500320008F0A6004E
:103E80000C0037001000200042E0B60009003700A7
:103E9000000552000500320008F0A60005003700BA
:103EA0001000200042E0B600020037004200A900E6
:103EB000000037004F057800CF0478004F047800E9
:103EC00000000600851F7800ACC9BF00ADE9B7004F
:103ED000ADC9BF000160EF004400DE000042780081
:103EE0000960EF006A20B800ACE9B700ADC9BF00B7
:103EF0004400DD000160EF004400DE00AC69B40066
:103F0000ACC9BF0000E0B700CF0278000000060097
:103F10004000DE000000E0004220AF000400370057
:103F200034000900000000000000E900F9FF37003C
:103F300000000600AC29EF00AE29EF00A609F8004A
:103F4000A602F900AC29EF00604D8000544D8000BE
:103F50000020E1000B003400A002A900A022A8006C
:103F6000A002AE00FEFF370000148000AE29B400AE
:103F7000404D8000881F020000000000AC29EC00CA
:103F8000F1FF3700744D8000534D8000110009008F
:103F90000302D800704D8800AE09F8000000F90057
:103FA00000000600851F7800C500200004000900FD
:103FB000B51F78008004EB0083846800010378005B
:103FC0008002780003047800820378008180D200A8
:103FD0000180FD008180FB000100E0004E00320006
:103FE0008381D2000380FD008381FB000300E00099
:103FF000490032000000EB0003C05000030039000C
:10400000F047B00044003100030037001048B10011
:104010004100390040003200850078000601780038
:104020000270A000F20FB200F80FB2000870A000FA
:104030009A0120008001EB000002EB008780500015
:1040400008015900020033000400310004003A0066
:104050008780400008014900010037000400A000EB
:104060000A05E900070032004200A9008180D20061
:104070000281D2004200A9000482D2008381D200D2
:10408000EEFF37000005EB000380A70001003700BA
:10409000060037004200A9008381D3000370A1000D
:1040A0000482D3000A85D200020037000000E90034
:1040B000190032000AF0A700050039008180D20003
:1040C0000281D200878050000801590009003900A0
:1040D0000402E80007003A008301E80005003A0006
:1040E0000000E8000C003200020037000000E90088
:1040F000090032000080FD008080D30001F0A000A4
:1041000009F0A60001F0A1000370A10081C06900C0
:1041100004007800030037000000200001002000A8
:10412000000037004501200004000900CF1278008C
:10413000CF02780000000600851F7800C50020002F
:1041400004000900B51F78000002780081027800A1
:1041500083037800020378004200A9004220A900EE
:104160008180D2000180FD00F10FB2000100E0006B
:10417000480032004200A9004220A9008381D200F9
:104180000380FD00F30FB2000300E00041003200A5
:104190000080FB0001C0410004003100F007B100C5
:1041A0003C0032003B003900020037001048B000EC
:1041B0003800310007856A004200A9004220A900AA
:1041C000F50FB2000570A0004200A900F70FB20081
:1041D0000770A0000621B800062CB80083014C002F
:1041E00089007800043CB80083014C0081804C00B9
:1041F000072CB80081004C000000E8000100E0003E
:104200004220AF0001003700030037000300E00048
:104210004220AF000500370001F0A700030037007F
:104220008381D2008180D2000000E9000101780082
:104230004200A9000370A6000900370007F02F0014
:10424000878161000310B000600149000200E000B6
:1042500003003A000300E00001003A000000E8001B
:104260000080FD004200A9004220A9008080D30008
:104270000AF0A70001F0A00002F0A1000280FD00FA
:10428000814069000380FD0003417800020078004E
:10429000030037000000200001002000000037006C
:1042A0004501200004000900CF127800CF027800F9
:1042B00000000600851F78008201780082027800E5
:1042C0004200A9008381D2000380FD00F30FB200F9
:1042D00003003A006000B8006011B8001600370013
:1042E0000338B000F207B200360020000002EB00F5
:1042F0004200A9000281D3008180D3000080D30056
:104300004200AF000402E8000603E900F8FF3A00AB
:104310000270A100C419DD0003F0A10005F0A700A0
:1043200003F0A0008301690001017800800078009B
:10433000810042000000EB00CF0278000000060080
:10434000881F78002801200004000900B81F7800A9
:104350008005EB006066B8000304780087047800ED
:10436000FA7F20004200A9004220A90044C4DE00D8
:10437000080465000800E000700032004200A90057
:104380004220A900C4CCDE00890465000900E000D9
:104390006A0032000884440009B0A7000400370016
:1043A000F83FB100650032006400390003003700B7
:1043B0001A40200085424500600031008786690070
:1043C0004200A9004220A900F300B2000340A0006F
:1043D000F700B2000740A000881F78000124B80051
:1043E000002DB8000A0544008B854C000C80B000FD
:1043F0000224B8008B0544000C864C00012CB80048
:104400008B0544000C864C000034B8000005EB001E
:104410008B0544000C864C000A80B0008005EB0040
:104420000324B8000C0644000A854C000B80B00041
:10443000022CB8000C0644000A854C000B80B0002A
:104440000134B8000C0644000A854C000B80B00013
:10445000003CB8000C0644000A854C000B80B000FC
:104460000C0078000006EB00032CB8000A0544009D
:104470008B854C000C80B0000234B8000A05440063
:104480008B854C000C80B0000334B8008B054400D1
:104490000C864C00013CB8000A0544008B854C009A
:1044A0000C80B000023CB8008B0544000C864C0028
:1044B000033CB8000C0644008A0078000B01780029
:1044C0008C017800540020004200A9008381D300B1
:1044D0000281D3008180D3000080D3000402E90070
:1044E000F9FF3A004F0478000804E8000103700067
:1044F000010032000200370003037100080032009F
:104500000340A700060037004200A9000080D20047
:104510008180D2000281D2008381D2000804E900A8
:104520004444DD0003F0A1000DF0A70003F0A0005B
:104530000340A10083016C00030037006000B80055
:104540006001B80000003700A80120000400090045
:104550004F1478004F04780000000600851F780093
:10456000C500200005000900B51F7800030478008D
:1045700082037800010378008002780083047800C9
:104580003B472000C499DE00FA7F200083016500CC
:1045900083855500F801B2000840A0000000EB0040
:1045A0008000EB000001EB008001EB004200A9005D
:1045B0000884D3008783D3000683D3008582D30089
:1045C0008381D3000281D3008180D3000080D30097
:1045D0008B05E900F5FF3A0009F0A6000500370059
:1045E0000000EA008180EA000281EA008381EA009B
:1045F000000037006501200005000900CF12780097
:10460000CF027800000006008C1F78008D1F780014
:104610000004EB008004EB000005EB008005EB00DC
:104620000006EB008006EB00E800200009002000F7
:104630001000FA000C377C000884E900FDFF3B0005
:1046400005046A0002003A0007046B002F003200E4
:104650000004EB000D0420000D0420004200A9001E
:104660000080D2008180D2000281D2008381D200FA
:104670000884D2008984D2000A85D2008B85D200BA
:104680000758E10005003A0006D0E10003003A00B7
:1046900005C8E10001003A0004C0E100050039004E
:1046A0000404540085845C0006055D0087855D0078
:1046B0004200A800080F7800190798002A07980000
:1046C0003B0798004E049000DE0490006E059000B9
:1046D000FE0590000884D2008984D2000A85D200A9
:1046E0008B85D20048079800590798006A07980000
:1046F0007B0798001E0478009E0490002E05900011
:10470000BE0590008D06E900D4FF3A004E009000EF
:10471000DE0090006E019000FE0190000080FA0023
:1047200000003700CF0678004F0678000000060032
:10473000851F7800C500200007000900B51F78001C
:104740002A00FA00880220000006EB000C377C00EB
:104750000884E900FDFF3B000900E0000E00320084
:10476000391798004A179800470224000003EB000D
:104770006022B80029179800470224000003EB00CC
:104780006022B800A021020000000000AE149000DA
:104790008904E900F7FF3A00BE14900040012000B0
:1047A00020179800D71C240056D62C006022B80091
:1047B000000F9800110F9800220F9800330F9800F7
:1047C000480120000817980004002000859E28005A
:1047D0004630220077AC2800440F9800550F98000F
:1047E000660F9800770F980003F0A60004003700CA
:1047F0004E1490000804E90008D0A0004817980063
:1048000003F0A100AE220200000000004E14900050
:10481000BE1490000900E0004220AF000844E80008
:10482000481798009E1490008004EB001917980018
:104830004E0A9000DE0A90006E0B9000FE0B900076
:1048400004230200000000009E1690000D00A70047
:1048500062003700080F9800190F98002A0F98007F
:104860003B0F98009E1690000D00A2001D179800A7
:104870000000E00012003A00BE1490008904E80035
:104880002E159000090455000D003200CE15900041
:104890000B00E0000E0032007F8465000804550024
:1048A00001003200410031000BF0A7003F0037004B
:1048B0000BE0A70006003700000220003700370099
:1048C000CE1590000C0022008B0566004B17980057
:1048D000CE1590000BD0A6000F0037000BD0A10022
:1048E000BE1490000900E0004220AE008B05E900F4
:1048F0008005EB004B17980000057800D0C2B3008C
:10490000BCE9B700F2090200000000000A007800CC
:104910008005EB004B179800BE1490002E159000F8
:10492000090455000C003A008005EB004B17980075
:1049300000057800E0C2B300BCE9B700F20902004C
:1049400000000000CE1590000C0022008B056600D0
:104950004B1798000A00780001032000CE15900044
:104960000BD0A6000D0037000BD0A100BE149000A4
:104970000900E0004220AE008B05E9008005EB0055
:104980004B179800D0C2B300BCE9B700F20902008F
:10499000000000000000EB00010320000080400048
:1049A000BCE9B700F209020000000000AE1690005A
:1049B0008D06E900190032002D1798004E0890006E
:1049C000DE0890006E099000FE099000A40020000F
:1049D0008002EB006033B80099FF3700400F980069
:1049E000510F9800620F9800730F98000002780032
:1049F0008102780002037800830378000E0890009B
:104A00009E0890002E099000BE0990009E1690000E
:104A10000D00A2001D17980089FF37000080FA00E2
:104A2000A501200007000900CF127800CF0278000E
:104A300000000600851F7800AA29EF00C269EF0078
:104A400084812000F44D8800E4152000044E880085
:104A50003E0A020000000000010020000100780072
:104A6000A4010200000000008100E800811F78001E
:104A70000F22AF00FEFF370080108800CF007800C3
:104A8000A00020000008E600F4FF37008481200029
:104A9000F44D88005E0A02000000000084812000BE
:104AA000844D88007609F800B209F900A40A0200D2
:104AB00000000000E4012000E44D88008481200013
:104AC000D44D8800DE0A0200000000008002780059
:104AD0006128E1000D003A00050020000500780083
:104AE00036010200000000000040B3004220AF0089
:104AF000050037008502E800BCE9B700F2090200B2
:104B000000000000F5FF37000C0037000500200012
:104B1000050078004A010200000000000040B300D8
:104B20004220AF00050037008502E800BCE9B7006D
:104B3000F209020000000000F5FF3700B04B8000D2
:104B40004E07020000000000C269EF0084812000CF
:104B5000F44D8800E4152000044E88003E0A02004F
:104B6000000000000100200001007800BC010200EC
:104B7000000000008100E800811F78000F22AF00D4
:104B8000FEFF370080108800CF007800000320006F
:104B90000008E600F4FF370084812000F44D88000F
:104BA0005E0A02000000000084812000844D88001D
:104BB0007609F800B209F900A40A0200000000001A
:104BC000E4012000E44D880084812000D44D880059
:104BD000DE0A020000000000800278006128E10087
:104BE0000D003A00050020000500780036010200A3
:104BF000000000000040B3004220AF000500370075
:104C00008502E800BCE9B700F209020000000000DC
:104C1000F5FF37000C003700050020000500780084
:104C20004A010200000000000040B3004220AF0033
:104C3000050037008502E800BCE9B700F209020070
:104C400000000000F5FF3700B04B80004E07020067
:104C500000000000C269EF0084812000F44D88004C
:104C6000E4152000044E88003E0A02000000000007
:104C70000100200001007800D805020000000000BB
:104C80008100E800811F78000F22AF00FEFF37008F
:104C900080108800CF007800800120000008E60026
:104CA000F4FF3700304D8000040020006A0D020040
:104CB00000000000B101200001007800D8050200CA
:104CC000000000008100E800811F78000F22AF0083
:104CD000FEFF370080108800CF007800000220001F
:104CE0000008E600F4FF3700404D8000040020007B
:104CF0006A0D02000000000031022000010078006F
:104D0000D8050200000000008100E800811F780043
:104D10000F22AF00FEFF370080108800CF00780020
:104D2000F00420000008E600F4FF37000E02AE0099
:104D3000FEFF3700901080006A04E100FBFF3A009C
:104D400084812000534D8000848241000E02AE0019
:104D5000FEFF370090108000804A7800AA29EC00FE
:104D6000544D8000E31520000418E10007003400D2
:104D7000544D8000E10252008481200004804200F2
:104D80001042780044C2B200EDFF3A002003200038
:104D90004E07020000000000010020000100780022
:104DA0002A060200000000008100E800811F780050
:104DB0000F22AF00FEFF370080108800CF00780080
:104DC000400020000008E600F4FF370000C1B300F7
:104DD0000EE2B70084812000844D8800843E2000CC
:104DE000944D8800A40A0200000000001400200076
:104DF000D44D8800DA0E020000000000CF027800D7
:104E000000000600851F7800C5002000070009008B
:104E1000B51F78002A00FA00880220000006EB0087
:104E20000C377C000884E900FDFF3B000900E0002E
:104E30000E003200391798004A17980047022400E4
:104E40000003EB006022B8002917980047022400F5
:104E50000003EB006022B800A02102000000000067
:104E6000AE1490008904E900F7FF3A00BE149000E8
:104E70004001200020179800D71C240056D62C0093
:104E80006022B800000F9800110F9800220F9800C0
:104E9000330F9800480120000817980004002000F4
:104EA000859E28004630220077AC2800440F9800E9
:104EB000550F9800660F9800770F980003F0A60032
:104EC000040037004E1490000804E90008D0A00048
:104ED0004817980003F0A100AE2202000000000075
:104EE0004E149000BE1490000900E0004220AF0074
:104EF0000844E800481798009E1490008004EB00D6
:104F0000191798004E0A9000DE0A90006E0B900070
:104F1000FE0B900004230200000000009E1690008B
:104F20000D00A70062003700080F9800190F9800C5
:104F30002A0F98003B0F98009E1690000D00A200CB
:104F40001D1798000000E00012003A00BE14900007
:104F50008904E8002E159000090455000D00320068
:104F6000CE1590000B00E0000E0032007F8465003B
:104F70000804550001003200410031000BF0A70089
:104F80003F0037000BE0A7000600370000022000BA
:104F900037003700CE1590000C0022008B0566000C
:104FA0004B179800CE1590000BD0A6000F003700CD
:104FB0000BD0A100BE1490000900E0004220AE001A
:104FC0008B05E9008005EB004B1798000005780081
:104FD0000F22AF00FEFF3700D402200084108800AB
:104FE0000A0078008005EB004B179800BE14900073
:104FF0002E159000090455000C003A008005EB00C6
:105000004B179800000578000F22AF00FEFF370015
:10501000E402200084108800CE1590000C002200CD
:105020008B0566004B1798000A00780001032000EA
:10503000CE1590000BD0A6000D0037000BD0A100BC
:10504000BE1490000900E0004220AE008B05E9008C
:105050008005EB004B1798000F22AF00FEFF3700D2
:10506000D4022000841088000000EB00010320001F
:10507000008040000F22AF00FEFF37008010880044
:10508000AE1690008D06E90063EC32002D179800F3
:105090004E089000DE0890006E099000FE09900016
:1050A000A40020008002EB006033B80099FF3700B5
:1050B000400F9800510F9800620F9800730F9800EE
:1050C00000027800810278000203780083037800F0
:1050D0000E0890009E0890002E099000BE099000D6
:1050E0009E1690000D00A2001D17980089FF370042
:1050F0000080FA00A501200007000900CF12780007
:10510000CF02780000000600851F7800AA29EF0072
:10511000C269EF0084812000F44D8800E41520006E
:10512000044E88003E0A020000000000010020003A
:1051300001007800A4010200000000008100E800E6
:10514000811F78000F22AF00FEFF3700801088001B
:10515000CF007800A00020000008E600F4FF370030
:1051600084812000F44D88005E0A020000000000E7
:10517000B04B80004E07020000000000C269EF0043
:1051800084812000F44D8800E4152000044E88003E
:105190003E0A02000000000001002000010078002B
:1051A000BC010200000000008100E800811F7800BF
:1051B0000F22AF00FEFF370080108800CF0078007C
:1051C000000320000008E600F4FF3700848120007F
:1051D000F44D88005E0A020000000000B04B800021
:1051E0004E07020000000000C269EF008481200029
:1051F000F44D8800E4152000044E88003E0A0200A9
:1052000000000000010020000100780016050200E7
:10521000000000008100E800811F78000F22AF002D
:10522000FEFF370080108800CF007800E0012000EA
:105230000008E600F4FF3700304D80000400200035
:105240006A0D020000000000110220000100780039
:1052500016050200000000008100E800811F7800B0
:105260000F22AF00FEFF370080108800CF007800CB
:10527000800220000008E600F4FF3700404D800067
:10528000040020006A0D0200000000000100200060
:105290000100780050050200000000008100E800D5
:1052A000811F78000F22AF00FEFF370080108800BA
:1052B000CF007800800020000008E600F4FF3700EF
:1052C0001240800001408000000020005A210200AE
:1052D00000000000290020008A00280002270200A8
:1052E00000000000010020000100780068050200B5
:1052F000000000008100E800811F78000F22AF004D
:10530000FEFF370080108800CF007800800020006A
:105310000008E600F4FF37003240800021408000A2
:10532000000020005A210200000000002900200097
:105330009A0028000227020000000000010020005F
:105340000100780082050200000000008100E800F2
:10535000811F78000F22AF00FEFF37008010880009
:10536000CF007800500020000008E600F4FF37006E
:105370007240800061408000000020005A2102003D
:1053800000000000290020008A00280002270200F7
:1053900000000000010020000100780098050200D4
:1053A000000000008100E800811F78000F22AF009C
:1053B000FEFF370080108800CF00780050002000EA
:1053C0000008E600F4FF3700924080008140800032
:1053D000000020005A2102000000000029002000E7
:1053E0008A0028000227020000000000810020003F
:1053F0000100780098050200000000008100E8002C
:10540000811F78000F22AF00FEFF37008010880058
:10541000CF007800400320000008E600F4FF3700CA
:105420000E02AE00FEFF3700901080006A04E1001B
:10543000FBFF3A0084812000534D800084824100AC
:105440000E02AE00FEFF370090108000804A780008
:10545000AA29EC00544D8000E31520000418E10057
:1054600007003400544D8000E10252008481200086
:10547000048042001042780044C2B200EDFF3A00BE
:10548000200320004E070200000000000F22AF00A2
:10549000FEFF3700B4022000841088000F22AF0006
:1054A000FEFF3700B4022000841088000F22AF00F6
:1054B000FEFF3700B40220008410880000C1B30052
:1054C0000EE2B70084812000F44D88005E0A0200DD
:1054D00000000000200320004E0702000000000032
:1054E00014002000D44D8800DA0E020000000000F5
:1054F000803821004E07020000000000CF02780033
:105500000000060081E0A800040028006410880064
:10551000044020007410880034002000A41088008B
:1055200044062000B44B88007829EF007A29EF0068
:105530007C29EF007E29EF008029EF008229EF000F
:105540008429EF008629EF008829EF008A29EF00DF
:105550008C29EF0054012000744C88009029EF0042
:105560000028EF000228EF000428EF000628EF00D3
:105570000828EF000A28EF000C28EF000E28EF00A3
:105580001028EF001228EF001428EF001628EF0073
:105590009869EF00A8A2EF000FF82000F0FF2000AC
:1055A00020A0B700000000001828EF001A28EF0024
:1055B0001C28EF001E28EF002028EF002228EF0013
:1055C0002428EF002628EF002828EF002A28EF00E3
:1055D0002C28EF002E28EF003028EF003228EF00B3
:1055E0003428EF003628EF003828EF003A28EF0083
:1055F0003C28EF003E28EF004028EF004228EF0053
:105600004428EF004628EF004828EF004A28EF0022
:105610004C28EF004E28EF005028EF005228EF00F2
:105620005428EF005628EF005828EF005A28EF00C2
:105630005C28EF005E28EF006028EF006228EF0092
:105640006428EF006628EF006828EF006A28EF0062
:105650006C28EF006E28EF007028EF007228EF0032
:105660007428EF007628EF007828EF007A28EF0002
:105670007C28EF007E28EF008028EF008228EF00D2
:105680008428EF008628EF008828EF008A28EF00A2
:105690008C28EF008E28EF009028EF009228EF0072
:1056A0009428EF009628EF009828EF009A28EF0042
:1056B0009C28EF009E28EF00A028EF00A228EF0012
:1056C000A428EF00A628EF00A828EF00AA28EF00E2
:1056D000AC28EF00AE28EF00B028EF00B228EF00B2
:1056E000B428EF00B628EF00B828EF00BA28EF0082
:1056F000BC28EF00BE28EF00C028EF00C228EF0052
:10570000C428EF00C628EF00C828EF00CA28EF0021
:10571000CC28EF00CE28EF00D028EF00D228EF00F1
:10572000D428EF00D628EF00D828EF00DA28EF00C1
:10573000DC28EF00DE28EF00E028EF00E228EF0091
:10574000E428EF00E628EF00E828EF00EA28EF0061
:10575000EC28EF00EE28EF00F028EF00F228EF0031
:10576000F428EF00F628EF00F828EF00FA28EF0001
:10577000FC28EF00FE28EF000029EF000229EF00CF
:105780000429EF000629EF000829EF000A29EF009D
:105790000C29EF000E29EF001029EF001229EF006D
:1057A0001429EF001629EF001829EF001A29EF003D
:1057B0001C29EF001E29EF002029EF002229EF000D
:1057C0002429EF002629EF002829EF002A29EF00DD
:1057D0002C29EF002E29EF003029EF003229EF00AD
:1057E0003429EF003629EF003829EF003A29EF007D
:1057F0003C29EF003E29EF004029EF004229EF004D
:105800004429EF004629EF004829EF004A29EF001C
:105810004C29EF004E29EF005029EF005229EF00EC
:105820005429EF005629EF005829EF005A29EF00BC
:105830005C29EF005E29EF006029EF006229EF008C
:105840006429EF006629EF006829EF006A29EF005C
:105850006C29EF006E29EF007029EF007229EF002C
:105860007429EF0004202000944C8800D48020008C
:10587000A44C8800E4012000B44C8800942120004E
:10588000D44C8800D4302100E44C8800B4012000BE
:10589000F44C880094212000044D8800D43021006D
:1058A000144D8800D4012000244D88008008020097
:1058B0000000000084090200000000000500200034
:1058C000050078003C060200000000000040B30024
:1058D0004220AF00050037008502E800BCE9B700B0
:1058E000F209020000000000F5FF3700400620002A
:1058F0004E0702000000000004F82F004415880045
:10590000A222EF000408200024158800040E2800BD
:1059100004158800F40720003416880000C1B30085
:105920000EE2B700180B0200000000008E09F8001C
:10593000A609F90024992000444D8800240F020094
:10594000000000000080B200030032001080B200AE
:105950000E003200680037000500200005007800C6
:105960004A010200000000000040B3004220AF00E6
:10597000050037008502E800BCE9B700F209020023
:1059800000000000F5FF37006800370092C9BF0033
:10599000A6E9B70093C9BF00A7E9B70094C9BF0043
:1059A000A8E9B70098C9BF00A9E9B70095C9BF0029
:1059B000AAE9B70096C9BF00ABE9B700D010020052
:1059C0000000000005002000050078001001020022
:1059D000000000000040B3004220AF000500370087
:1059E0008502E800BCE9B700F209020000000000EF
:1059F000F5FF370005002000050078005A06020078
:105A0000000000000040B3004220AF000500370056
:105A10008502E800BCE9B700F209020000000000BE
:105A2000F5FF370092C9BF000000FB000400200012
:105A30006E11020000000000F0C2B300BCE9B70024
:105A4000F20902000000000093C9BF000000FB0043
:105A5000040020006E11020000000000F0C2B3003C
:105A6000BCE9B700F20902000000000020C3B30047
:105A7000BCE9B700F20902000000000000C3B30057
:105A8000BCE9B700F20902000000000094C9BF00A1
:105A90000000FB00040020006E1102000000000066
:105AA00000C2B300BCE9B700F20902000000000028
:105AB00095C9BF000000FB00240028006E11020001
:105AC00000000000A0C3B300BCE9B700F209020067
:105AD0000000000096C9BF000000FB002400280061
:105AE0006E11020000000000803E20004E07020000
:105AF000000000000D0037000500200005007800C0
:105B00004A010200000000000040B3004220AF0044
:105B1000050037008502E800BCE9B700F209020081
:105B200000000000F5FF3700000037009029EF006B
:105B3000844C80006220E1005C033D007E09E200AD
:105B400002003A00D722A90001003700D722A8009E
:105B5000D322A9000500200005007800720602008B
:105B6000000000000040B3004220AF0005003700F5
:105B70008502E800BCE9B700F2090200000000005D
:105B8000F5FF37008E09F800A609F9008497200078
:105B9000444D8800C4972000544D880068120200CC
:105BA00000000000C05D20004E0702000000000061
:105BB000C04B80001080B200050032002080B2008F
:105BC000440032001080B200BF003200C80037002D
:105BD0008E09F800A609F900A4992000444D880018
:105BE0006C140200000000008E09F800A609F900FC
:105BF000049A2000444D8800D015020000000000E7
:105C00008E09F800A609F90004982000444D880088
:105C100024982000544D880044982000644D88004A
:105C20003A1702000000000095C9BF009D49E3003B
:105C30000F003A00F44C800061405200B44C8000E8
:105C40000024E1000A003900F44C80006142420067
:105C50000440780000E0B700B44C80000024E1006C
:105C600003003E008009F8007A09F90011003700AE
:105C700095C9BF00A349E3000E003A00244D8000FF
:105C800061405200B44C80000024E100090039005A
:105C9000244D8000614242000440780000E0B700DB
:105CA000B44C80000024E10002003E008209F800AC
:105CB0007A09F900D04B800061006000304C880008
:105CC000D04B8000E2026000454C88008829D50056
