:08000000C01C04000000000018
:100200003220EF00C3102000008041001040BA00EF
:100210000160EF0000000600280C0000010600004D
:100220003220EF00C3112000008041001040BA00CE
:100230000160EF00000006000C0000003220EF001B
:10024000A3122000008041001040BA000160EF00BE
:1002500000000600415400002B43000050490000FC
:100260004E3F00000D0A0000000000003220EF00A9
:1002700023142000008041001040BA000160EF000C
:10028000000006000C4300004D440000204F000019
:100290004B0000003220EF00631520000080410079
:1002A0001040BA000160EF00000006000C4300009F
:1002B0004D440000204200004144000000000000C6
:1002C0003220EF008302200083015000050031003E
:1002D000C3172000008041001040BA000160EF0009
:1002E00000000600C017200083814100808141008A
:1002F0001380BA0000000600415473002B417400C3
:1003000049506100444372004F4E2200543D2C007E
:10031000226922006E746D0065726F006E65760052
:10032000742E69006D6F73007669740073746100D8
:10033000617272002E6D220078220D002C220A00BC
:100340006D6F0000766900003220EF00031B200073
:10035000008041001040BA000160EF00000006007C
:10036000415400002B41000049500000413D000075
:10037000310D00000A0000003220EF0023022000AF
:100380008301500005003100831D200000804100E2
:100390001040BA000160EF0000000600801D200040
:1003A00083814100808141001380BA000000060073
:1003B00041546F002B416D00495022004F3D2C00ED
:1003C000312C38002C22300077772C00772E30002B
:1003D00073652C0072762C006572310064652C0008
:1003E000757332002E730D006F6D0A006565000095
:1003F0002E6300003220EF006320200000804100C7
:100400001040BA000160EF000000060041540000F7
:100410002B41000049500000433D000025640000CE
:100420000D0A0000000000003220EF00030320004E
:1004300083015000050031000323200000804100AB
:100440001040BA000160EF00000006000023200009
:1004500083814100808141001380BA0000000600C2
:1004600047457600542065002F547200494D6400C2
:100470004547650050527500532F73004E4F2E00B4
:1004800057547300494D6F00452F6D00256465007A
:100490002048650054542E00502F6300312E6F0009
:1004A000310D6D000A480D006F730A00743A0D009B
:1004B00020770A00777700002E7300006572000035
:1004C0003220EF00C3262000008041001040BA0017
:1004D0000160EF00000006002B2B00002B0D000038
:1004E0000A0000003220EF002303200083015000A7
:1004F00005003100E3282000008041001040BA00D0
:100500000160EF0000000600E02820008381410028
:10051000808141001380BA00000006004745720048
:10052000542076002F546500494D72004547640001
:1005300050526500532F75004745730054532E00E9
:10054000554E730052496F0053456D002F256500CD
:100550006420650048542E00545063002F316F0012
:100560002E316D000D0A0D00486F0A0073740D00E6
:100570003A200A0077770000772E000073650000AC
:100580003220EF00030320008301500005003100FA
:10059000C32D2000008041001040BA000160EF0030
:1005A00000000600C02D20008381410080814100B1
:1005B0001380BA0000000600474565005420720011
:1005C0002F547600494D6500454772005052640033
:1005D000532F65004745750054537300554E2E0048
:1005E00053457300542F6F0025646D00204865004B
:1005F00054546500502F2E00312E6300310D6F00D2
:100600000A486D006F730D00743A0A0020770D00E0
:1006100077770A002E7300003220EF0003032000DA
:10062000830150000500310083322000008041002A
:100630001040BA000160EF00000006008032200088
:1006400083814100808141001380BA0000000600D0
:1006500047456500542072002F44760045566500DA
:10066000494372004547640050526500532F75009E
:1006700047457300544D2E004F447300452F6F00C3
:1006800025646D002048650054546500502F2E00ED
:10069000312E6300310D6F000A486D006F730D003D
:1006A000743A0A0020770D0077770A002E73000055
:1006B0003220EF00230320008301500005003100A9
:1006C00043372000008041001040BA000160EF0075
:1006D00000000600403720008381410080814100F6
:1006E0001380BA00000006004745650054207200E0
:1006F0002F44760045566500494372004547640023
:1007000050526500532F75004745730054532E0017
:100710005441730054556F00532F6D0025646500DC
:100720002048650054542E00502F6300312E6F0076
:10073000310D6D000A480D006F730A00743A0D0008
:1007400020770A00777700002E7300003220EF0038
:10075000E30420008301500005003100233C200009
:10076000008041001040BA000160EF000000060068
:10077000203C200083814100808141001380BA0029
:10078000000006004745310054200D002F4D0A009F
:100790004F4E480049546F004F527300494E740049
:1007A00047473A0050522000532F770043527700BA
:1007B0004541770054452E003F497300443D650094
:1007C000256472002653760054416500545572002A
:1007D000533D64002564650026437500555273003F
:1007E00052452E004E5473003D256F00332E6D0090
:1007F00032666500265665004F4C2E00544163005A
:1008000047456F003D256D00332E0D0032660A000E
:1008100020480D0054540A00502F0000312E0000D3
:100820003220EF00C3412000008041001040BA0098
:100830000160EF00000006000C540000656C000031
:100840006567000065730000746900006F6E00004A
:100850002055000054430000480000003220EF0003
:10086000A3432000008041001040BA000160EF0067
:100870000000060044610000746500007469000017
:100880006D6500003A0A0000000000003220EF0011
:1008900023452000008041001040BA000160EF00B5
:1008A000000006000C470000657400007469000039
:1008B0006E6700002064000061740000610A00009F
:1008C000667200006F6D000020730000657200000A
:1008D00076650000722E00002B2E00000000000044
:1008E0003220EF00C3472000008041001040BA00D2
:1008F0000160EF00000006004D6F0000646500001D
:100900003A200000256400000A53000074610000D2
:1009100074750000733A0000202500006400000098
:100920003220EF00C3492000008041001040BA008F
:100930000160EF00000006004375000072720000C5
:10094000656E0000743A000020250000362E00007D
:10095000336600000A5600006F6C000074610000EE
:10096000676500003A200000253600002E330000A5
:10097000660000003220EF00634C20000080410040
:100980001040BA000160EF00000006004261000064
:100990007474000065720000793D0000202500009D
:1009A000362E000033660000000000000000E0006A
:1009B0004220AF0004003700C31C09000000000003
:1009C0000000E900F9FF370000000600CA09AF0087
:1009D00002003700D602A90001003700D602A800A5
:1009E000D202A900CA29AF0002003700D622A9000E
:1009F00001003700D622A800D222A900CA49AF00C0
:100A000002003700D642A90001003700D642A800F4
:100A1000D242A900CA69AF0002003700D662A9001D
:100A200001003700D662A800D262A90000000000D1
:100A3000CB82A800340E2000341688000C00090078
:100A400000000000CB82A900340E2000341688007C
:100A500000000600851F7800CA69EF00D202A800D6
:100A60000040EB00D402AF000000E800CA69B70004
:100A7000D222A8000040EB00D422AF000000E80022
:100A80004100DD00CA69B700D242A8000040EB0077
:100A9000D442AF000000E8004200DD00CA69B700A0
:100AA000D262A8000040EB00D462AF000000E80072
:100AB0004300DD00CA69B700CAC9BF0000E0B70043
:100AC000CF02780000000600851F7800D202A8003F
:100AD000D222A800D242A800D262A800CB62A8000D
:100AE000340E20003416880000000000CB82A800DD
:100AF000340E200034168800000000002A05020091
:100B000000000000C9E9B700CB82A900340E200024
:100B10003416880000000000CB82A800340E2000AC
:100B20003416880005000900000000002A050200B4
:100B300000000000C8E9B700CB82A900340E2000F5
:100B400034168800D202A900D222A900D242A900FC
:100B5000D262A900C9C9BF004400DD00C849B7007E
:100B6000CF02780000000600851F7800CB42A90064
:100B7000340E2000341688006405020000000000D6
:100B8000804278000570A700FBFF3700C449E200EF
:100B900002003A00CB42A90001003700CB42A80076
:100BA000340E20003416880000000000CB62A9003B
:100BB000340E20003416880000000000CB82A9000B
:100BC000340E200034168800254E8000C82ADE002E
:100BD0000B60EF00C42ADE00CA09F800E5FF9F00A1
:100BE000CA09F900E604020000000000C5C9BF0000
:100BF000EF426000CA09F800E5FF9F00CA09F9004A
:100C0000E604020000000000CF02780000000600A9
:100C1000851F7800D202A900D222A900D242A900E1
:100C2000D262A900340E200034168800340E200051
:100C300034168800340E200034168800CB42A900F8
:100C4000340E200034168800CB62A900340E200038
:100C500034168800CB82A900340E20003416880098
:100C6000F0002000D60402000000000010C0B30015
:100C700096E9B700B44C80006324E1000C003E000C
:100C800030C0B300CAE9B700E6040200000000006B
:100C9000F00F090000000000FF3F09000000000005
:100CA000FF3F0900000000009669EC00F1FF3700EB
:100CB00020C0B300CAE9B700E6040200000000004B
:100CC0009669EF00B44C80006324E1000C003E0004
:100CD00096C9BF000160EF000001020000000000A3
:100CE00080427800C469EF0005407800C5E9B7008C
:100CF000B4050200000000009669EC00F1FF370027
:100D0000CF02780000000600A969EF00444D800082
:100D10004822DE006724E1000D003E004200A900E9
:100D2000A8E9D70002003100D6C2A90001003700AF
:100D3000D6C2A800D2C2A900D2A2A900D6A2A800F9
:100D4000D2A2A900D6A2A900A969EC00EFFF370042
:100D500000000600D282A900D682A800A4C9BF0064
:100D6000A8E9B7008406020000000000A5C9BF0082
:100D7000A8E9B7008406020000000000D282A900A2
:100D8000D682A90000000600D282A900D682A8005F
:100D90009AC9BF00A8E9B70084060200000000005D
:100DA000D2C2A80005000900000000009B69EF0006
:100DB000D44C80004822DE006724E10011003E0090
:100DC000D2C2A800D4C2AF00020037004200A9007E
:100DD000010037004200A8009CE9D700D2A2A90078
:100DE000D6A2A8000C00090000000000D2A2A900B1
:100DF000D6A2A9000C000900000000009B69EC00CD
:100E0000EBFF3700D282A900D682A9009CC9BF009F
:100E100000E0B70000000600851F7800D282A9001C
:100E2000D682A9000C00090000000000D2A2A9008F
:100E3000D6A2A900E0C8B300A4E9B700A569EF00F5
:100E4000AA0602000000000000C9B300A4E9B70030
:100E500040CAB300A5E9B700AA06020000000000DE
:100E600010C8B3009AE9B700C406020000000000F1
:100E700096E9B70096C9BF000048B2000004E00040
:100E80000500320000C8B300A4E9B700A569EF006F
:100E9000AA06020000000000CF0278000000060051
:100EA000851F7800F44D80004822DE006124E100B7
:100EB0000300320000C4B300C0E9B70001003700EE
:100EC000C069EF00F44D800061405200C069B40079
:100ED000054E80000548B300C469EF000540780066
:100EE000C5E9B700B405020000000000CF02780099
:100EF00000000600BCC9BF000160EF00C080B20066
:100F0000050032006080B2000B0032002080B20089
:100F10001000320015003700C469EF0010C0B300A4
:100F2000C5E9B700B40502000000000092390900CD
:100F3000000000001400370010C0B300BEE9B70085
:100F400020C0B300BFE9B700500702000000000056
:100F50000D003700C469EF0000C1B300C5E9B70058
:100F6000B4050200000000000700370010C0B30005
:100F7000C4E9B700BCC9BF00C5E9B700B4050200A9
:100F8000000000000000370000000600851F780008
:100F9000BA29EF00BA29EF00D04D8000B44D80008F
:100FA0000020E10007003400A04D8000BA09B40021
:100FB00080027800B8C9BF0080429800BA29EC00CE
:100FC000F5FF3700CF027800000006000E02AE00E9
:100FD000FEFF37000E02F8000008F90090108000B4
:100FE0000E22A90000000600851F7800861F7800E9
:100FF000B629EF0000C1B3000EE2B700E607020019
:10100000000000006A04E100FCFF3A00A04D8000EF
:10101000B609B40080027800467F8000E60702002F
:1010200000000000467F8800804A7800B629EC0066
:10103000B44D8000E31520000418E10007003400DF
:10104000A04D8000B609B400800278006180520093
:10105000104278006D24E100ECFF3A00D722A8008E
:10106000D322A90040062000D604020000000000A0
:10107000D722A900D322A90000C1B3000EE2B70015
:101080004F037800CF02780000000600851F78002B
:10109000050020000500780010010200000000009B
:1010A0000040B3004220AF00050037008502E80091
:1010B000BCE9B7007A07020000000000F5FF370026
:1010C000814D80001104E00008003200811F78008B
:1010D00001409000BCE9B7007A0702000000000060
:1010E000CF0078008100E800F6FF3700904D8000C7
:1010F000D604020000000000CF02780000000600C5
:10110000851F7800B429EF0014002000B44D88003A
:10111000B429EF00A04D8000944D80000020E10034
:1011200010003400804D8000B409B40010427800F3
:1011300054C4B20009003A00A44D8000610242008C
:1011400004007800844D80000400400010427800C4
:1011500024C5B20001003A00B629EF00B429EC0022
:10116000ECFF3700B609F8000000F900CF02780064
:1011700000000600851F78009629EF009829EF00EF
:101180009609E20022013A00C44C80006520E1008B
:101190001F013D00B869EF0064832000A44D880062
:1011A000E4152000B44D8800C607020000000000CE
:1011B00001002000010078001E0102000000000074
:1011C0008100E800811F78000F22AF00FEFF37008A
:1011D00080108800CF007800900020000008E60012
:1011E000F4FF370064832000A44D8800F407020058
:1011F0000000000044062000944D88006483200015
:10120000844D88004608020000000000E401200030
:10121000944D880064832000844D8800800802007B
:1012200000000000B04C8800B44C80006120E10058
:101230000D003A000500200005007800360102008C
:10124000000000000040B3004220AF00050037005E
:101250008502E800BCE9B7007A0702000000000040
:10126000F5FF37000D00370005002000050078006D
:101270004A010200000000000040B3004220AF001D
:10128000050037008502E800BCE9B7007A070200D4
:1012900000000000F5FF37009629EF00401F2000F6
:1012A000D604020000000000B44C80006120E10080
:1012B00045003A00B869EF0064832000A44D88001F
:1012C000E4152000B44D8800C607020000000000AD
:1012D0000100200001007800600102000000000011
:1012E0008100E800811F78000F22AF00FEFF370069
:1012F00080108800CF007800900320000008E600EE
:10130000F4FF370064832000A44D8800F407020036
:101310000000000064832000844D8800843E20008B
:10132000944D88004608020000000000E4012000FF
:10133000944D880064832000844D8800800802005A
:1013400000000000B04C8800B44C80006120E10037
:101350000D003A000500200005007800360102006B
:10136000000000000040B3004220AF00050037003D
:101370008502E800BCE9B7007A070200000000001F
:10138000F5FF37000D00370005002000050078004C
:101390004A010200000000000040B3004220AF00FC
:1013A000050037008502E800BCE9B7007A070200B3
:1013B00000000000F5FF37009629EF00401F2000D5
:1013C000D604020000000000B44C80006120E1005F
:1013D00045003A00B869EF0064832000A44D8800FE
:1013E000E4152000B44D8800C6070200000000008C
:1013F0000100200001007800A401020000000000AC
:101400008100E800811F78000F22AF00FEFF370047
:1014100080108800CF007800A00020000008E600BF
:10142000F4FF370064832000A44D8800F407020015
:101430000000000064832000844D8800843E20006A
:10144000944D88004608020000000000E4012000DE
:10145000944D880064832000844D88008008020039
:1014600000000000B04C8800B44C80006120E10016
:101470000D003A000500200005007800360102004A
:10148000000000000040B3004220AF00050037001C
:101490008502E800BCE9B7007A07020000000000FE
:1014A000F5FF37000D00370005002000050078002B
:1014B0004A010200000000000040B3004220AF00DB
:1014C000050037008502E800BCE9B7007A07020092
:1014D00000000000F5FF37009629EF00401F2000B4
:1014E000D604020000000000B44C80006120E1003E
:1014F00045003A00B869EF0064832000A44D8800DD
:10150000E4152000B44D8800C6070200000000006A
:101510000100200001007800BC0102000000000072
:101520008100E800811F78000F22AF00FEFF370026
:1015300080108800CF007800000320000008E6003B
:10154000F4FF370064832000A44D8800F4070200F4
:101550000000000064832000844D8800843E200049
:10156000944D88004608020000000000E4012000BD
:10157000944D880064832000844D88008008020018
:1015800000000000B04C8800B44C80006120E100F5
:101590000D003A0005002000050078003601020029
:1015A000000000000040B3004220AF0005003700FB
:1015B0008502E800BCE9B7007A07020000000000DD
:1015C000F5FF37000D00370005002000050078000A
:1015D0004A010200000000000040B3004220AF00BA
:1015E000050037008502E800BCE9B7007A07020071
:1015F00000000000F5FF37009629EF00401F200093
:10160000D6040200000000009829EC00DCFE370040
:10161000CF02780000000600851F7800C50020007A
:1016200003000900B51F780000F0A6000C00370089
:101630000000EA000480A00004F0A60008003700C3
:10164000801F7800D00220000F22AF00FEFF37007D
:10165000801088004F0078000480A1000860ED0031
:101660008002EB00800378008404780004F0A1007D
:101670000404E00006003A0009F0A7000200370069
:10168000050020000F003700050020000D00370086
:10169000E64252000A0039000003200009F0A600CB
:1016A000000220000F22AF00FEFF370080108800EC
:1016B0008502E900FBFF3B005500200001003700D8
:1016C00084027800640020000580A7000402E8007E
:1016D00005E0A00009F0A70005F0A00008712200B5
:1016E000110009008883D800B80B02000000000038
:1016F00081037800883E2000110009008883D8000B
:10170000B80B0200000000008103780048062000AA
:10171000110009008883D800B80B02000000000007
:1017200081037800A8002000110009008883D800F8
:10173000B80B0200000000000980A6000500370079
:10174000D00220000F22AF00FEFF3700801088007B
:101750000980A1000003200000C040005001880063
:101760000F22AF00FEFF37008010880022003700F4
:10177000060320000000E0000E003A0005E0A6008D
:10178000160037000402E9000524E10002003200DF
:101790004200AF00000006000000E00005003A0033
:1017A00005E0A6000D00370005F0A60006022000A7
:1017B0000A00370005E0A1000980A60007003700F5
:1017C00000057800D00220000F22AF00FEFF370096
:1017D000801088000980A1000A00780000404300C2
:1017E000811F78000F22AF00FEFF370080108800B5
:1017F000CF0078000000060025012000030009004A
:10180000CF127800CF02780000000600851F780014
:10181000B029EF00B2A9EF00804D8000644D800038
:101820000020E10030003400504D8000B009B400C9
:101830001042780044C2B2002B003200504D8000AC
:10184000B009B40010407800AE49E30024003A002B
:10185000844D80006102420004007800544D8000F5
:101860000400400010407800AF49E3001C003A003B
:10187000844D800062024200844D8800B229EF004E
:10188000504D8000B009B400F40220001024E100A3
:1018900013003100504D8000B009B40010427800B0
:1018A000A3032000041CE1000D003600944D8000CD
:1018B0006A20B800904D8800504D8000B009B400F7
:1018C000104278000443B1000440780000E0B70003
:1018D0000080FB00B229B400B029EC00E8FF37001B
:1018E000B029EC00CCFF3700B209F8000000F90085
:1018F000CF02780000000600851F7800861F780060
:101900009A29EF009C29EF00B869EF00648320005A
:10191000A44D8800E4152000B44D8800C6070200DD
:101920000000000001002000010078001402020005
:10193000000000008100E800811F78000F22AF0046
:10194000FEFF370080108800CF0078005001200093
:101950000008E600F4FF3700B04C800004002000CF
:101960000C0B020000000000810120000100780043
:1019700014020200000000008100E800811F7800CE
:101980000F22AF00FEFF370080108800CF007800E4
:10199000400420000008E600F4FF370064832000C4
:1019A000E34C800084824100467F8000E60702000D
:1019B00000000000467F8800804A78009C29EC00E7
:1019C000E44C8000E31520000418E1000700340017
:1019D000E44C8000E1025200648320000480420055
:1019E0001042780044C2B200ECFF3A00200320000D
:1019F000D604020000000000010020000100780071
:101A000060020200000000008100E800811F7800F1
:101A10000F22AF00FEFF370080108800CF00780053
:101A2000400020000008E600F4FF370000C1B300CA
:101A30000EE2B70064832000844D88009C09F80002
:101A4000B209F9008008020000000000800278005E
:101A50006128E1005D003A000500200005007800E3
:101A600036010200000000000040B3004220AF0039
:101A7000050037008502E800BCE9B7007A070200DC
:101A800000000000F5FF3700A04C8000D6040200E3
:101A900000000000C54C800040C6B300AEE9B700AE
:101AA00090C7B300AFE9B70064832000544D8800AD
:101AB0009C09F800AC09F900060C020000000000C7
:101AC000804A7800C44C8000610242000400780023
:101AD00080027800D0C6B300AEE9B70040C7B300BB
:101AE000AFE9B70064832000544D88009C09F800DA
:101AF000AC09F900060C020000000000804A7800E2
:101B0000C44C800062024200040078008002780029
:101B100090C7B300AEE9B70020C7B300AFE9B70084
:101B200064832000544D88009C09F800AC09F9003A
:101B3000060C02000000000000037800047D200075
:101B400004005300804A7800C44C800063024200C5
:101B5000040078008002780080C6B300AEE9B700C8
:101B600020C7B300AFE9B70064832000544D88005C
:101B70009C09F800AC09F900060C02000000000006
:101B8000804A7800C44C800064024200040078005F
:101B900080027800D0C6B300AEE9B700E0C6B3005B
:101BA000AFE9B70064832000544D88009C09F80019
:101BB000AC09F900060C020000000000804A780021
:101BC00014002000D44C8800010037009A29EF004F
:101BD0009A09F8000000F9004F037800CF0278005E
:101BE00000000600851F7800144D80000960EF009A
:101BF000A3002000110009000382D800A3E9B70068
:101C0000144D80004822DE006A20B800144D800088
:101C100000405200A4E9B700A3C9BF004400DD00A2
:101C2000A449B700CF02780000000600851F7800A5
:101C300096C9BF00A2E9B700F20D02000000000043
:101C40008042780060C8B300A4E9B700054078007E
:101C5000A5E9B700AA0602000000000097C9BF006E
:101C6000A2E9B700F20D02000000000080427800F7
:101C700080C8B300A4E9B70005407800A5E9B70023
:101C8000AA0602000000000098C9BF00A2E9B70040
:101C9000F20D02000000000080427800C0C8B300CE
:101CA000A4E9B70005407800A5E9B700AA0602003C
:101CB0000000000099C9BF00A2E9B700F20D0200C0
:101CC0000000000080427800A0C8B300A4E9B7007B
:101CD00005407800A5E9B700AA0602000000000050
:101CE0009AC9BF00A2E9B700F20D0200000000008F
:101CF0008042780040C8B300A4E9B70005407800EE
:101D0000A5E9B700AA060200000000009BC9BF00B9
:101D1000A2E9B700F20D0200000000008042780046
:101D200020C8B300A4E9B70005407800A5E9B700D2
:101D3000AA06020000000000A269EF00F20D0200F6
:101D4000000000008042780000C8B300A4E9B7009A
:101D500005407800A5E9B700AA06020000000000CF
:101D6000CF02780000000600851F7800C500200023
:101D700003000900B51F780000F0A6000C00370032
:101D80000000EA000480A00004F0A600080037006C
:101D9000801F7800D0022000BCE9B7007A0702005B
:101DA000000000004F0078000480A1000860ED00F2
:101DB0008002EB00800378008404780004F0A10026
:101DC0000404E00006003A0009F0A7000200370012
:101DD000050020000F003700050020000D0037002F
:101DE000E64252000A0039000003200009F0A60074
:101DF00000022000BCE9B7007A07020000000000E2
:101E00008502E900FBFF3B00550020000100370080
:101E100084027800640020000580A7000402E80026
:101E200005E0A00009F0A70005F0A000087122005D
:101E3000110009008883D800600F02000000000034
:101E400081037800883E2000110009008883D800B3
:101E5000600F0200000000008103780048062000A7
:101E6000110009008883D800600F02000000000004
:101E700081037800A8002000110009008883D800A1
:101E8000600F0200000000000980A6000500370076
:101E9000D0022000BCE9B7007A0702000000000071
:101EA0000980A1000003200000C04000500188000C
:101EB000BCE9B7007A0702000000000022003700EA
:101EC000060320000000E0000E003A0005E0A60036
:101ED000160037000402E9000524E1000200320088
:101EE0004200AF00000006000000E00005003A00DC
:101EF00005E0A6000D00370005F0A6000602200050
:101F00000A00370005E0A1000980A600070037009D
:101F100000057800D0022000BCE9B7007A07020073
:101F2000000000000980A1000A0078000040430082
:101F3000811F7800BCE9B7007A07020000000000AA
:101F4000CF007800000006002501200003000900F2
:101F5000CF127800CF02780000000600B869EF00C9
:101F600064832000A44D8800E4152000B44D88004F
:101F7000C6070200000000000100200001007800F8
:101F8000FA010200000000008100E800811F7800D3
:101F90000F22AF00FEFF370080108800CF007800CE
:101FA000700020000008E600F4FF3700804D80003C
:101FB000040020000C0B0200000000000F22AF0004
:101FC000FEFF3700D4002000841088000F22AF00ED
:101FD000FEFF3700A40020008410880064832000E6
:101FE000A44D8800F4070200000000000000060075
:101FF000851F7800861F78009C29EF009E29EF003E
:10200000B869EF0064832000A44D8800E415200027
:10201000B44D8800C6070200000000000100200047
:1020200001007800A4010200000000008100E80027
:10203000811F78000F22AF00FEFF3700801088005C
:10204000CF007800A00020000008E600F4FF370071
:1020500064832000A44D8800F40702000000000003
:10206000A04C8000D604020000000000B869EF0018
:1020700064832000A44D8800E4152000B44D88003E
:10208000C6070200000000000100200001007800E7
:10209000BC010200000000008100E800811F780000
:1020A0000F22AF00FEFF370080108800CF007800BD
:1020B000000320000008E600F4FF370064832000DE
:1020C000A44D8800F407020000000000A04C80002E
:1020D000D604020000000000B869EF00648320000D
:1020E000A44D8800E4152000B44D8800C607020006
:1020F0000000000001002000010078000C03020035
:10210000000000008100E800811F78000F22AF006E
:10211000FEFF370080108800CF007800700120009B
:102120000008E600F4FF3700B04C800004002000F7
:102130000C0B020000000000A1012000010078004B
:102140000C030200000000008100E800811F7800FD
:102150000F22AF00FEFF370080108800CF0078000C
:10216000600420000008E600F4FF3700E6070200E4
:10217000000000006A04E100FCFF3A0064832000D4
:10218000F34C800084824100467F8000E607020015
:1021900000000000467F8800804A78009E29EC00FD
:1021A000F44C8000E31520000418E100070034001F
:1021B000F44C8000E102520064832000048042005D
:1021C0001042780044C2B200ECFF3A0000C1B300F4
:1021D0000EE2B70064832000844D88009E09F80059
:1021E000B209F900800802000000000080027800B7
:1021F0006128E1000E003A00C54C8000D0C6B30053
:10220000AEE9B70040C6B300AFE9B7006483200071
:10221000544D88009E09F800AC09F900060C020034
:1022200000000000800A780014002000E44C8800C0
:10223000B869EF0064832000A44D8800E4152000F5
:10224000B44D8800C6070200000000009E29EF0080
:102250000100200001007800580302000000000087
:102260008100E800811F78000F22AF00FEFF3700D9
:1022700080108800CF007800900120000008E60060
:10228000F4FF3700B04C8000040020000C0B02006B
:1022900000000000C1012000010078005803020086
:1022A000000000008100E800811F78000F22AF00CD
:1022B000FEFF370080108800CF00780080042000E7
:1022C0000008E600F4FF3700E60702000000000007
:1022D0006A04E100FCFF3A0064832000F34C8000B4
:1022E00084824100467F8000E60702000000000073
:1022F000467F8800804A78009E29EC00F44C8000DC
:10230000E31520000418E10007003400F44C8000BD
:10231000E1025200648320000480420010427800F1
:1023200044C2B200ECFF3A0064832000844D880070
:102330009E09F800B209F9008008020000000000C0
:10234000800278006128E1000E003A00D54C800040
:1023500030C7B300AEE9B70040C7B300AFE9B7007C
:1023600064832000544D88009E09F800AC09F900F0
:10237000060C020000000000804A780014002000D3
:10238000E44C880020032000D60402000000000076
:102390000F22AF00FEFF3700B40220008410880037
:1023A0000F22AF00FEFF3700B40220008410880027
:1023B0000F22AF00FEFF3700B40220008410880017
:1023C00000C1B3000EE2B70064832000A44D880072
:1023D000F40702000000000020032000D6040200E1
:1023E0000000000014002000844D8800AE0F0200A1
:1023F000000000004F037800CF02780000000600C4
:10240000851F7800861F78009A29EF00B869EF00D1
:1024100064832000A44D8800E4152000B44D88009A
:10242000C607020000000000010020000100780043
:10243000A4010200000000008100E800811F780074
:102440000F22AF00FEFF370080108800CF00780019
:10245000A00020000008E600F4FF3700648320009D
:10246000A44D8800F407020000000000A04C80008A
:10247000D604020000000000B869EF006483200069
:10248000A44D8800E4152000B44D8800C607020062
:10249000000000000100200001007800BC010200E3
:1024A000000000008100E800811F78000F22AF00CB
:1024B000FEFF370080108800CF0078000003200066
:1024C0000008E600F4FF370064832000A44D880074
:1024D000F407020000000000A04C8000D6040200B7
:1024E00000000000B869EF0064832000A44D88005C
:1024F000E4152000B44D8800C6070200000000006B
:1025000001002000010078007202020000000000BB
:102510008100E800811F78000F22AF00FEFF370026
:1025200080108800CF007800800120000008E600BD
:10253000F4FF3700B04C8000040020000C0B0200B8
:1025400000000000B10120000100780072020200CA
:10255000000000008100E800811F78000F22AF001A
:10256000FEFF370080108800CF0078007004200044
:102570000008E600F4FF370064832000D34C80009D
:1025800084824100467F8000E607020000000000D0
:10259000467F8800804A78009A29EC00D44C80005D
:1025A000E31520000418E10007003400D44C80003B
:1025B000E10252006483200004804200104278004F
:1025C00044C2B200ECFF3A0064832000844D8800CE
:1025D0009A09F800B209F900800802000000000022
:1025E000800278006128E1001E003A00C44C80009F
:1025F00063024200040078008002780080C6B300C5
:10260000AEE9B70020C7B300AFE9B700648320008C
:10261000544D88009A09F800AC09F900060C020034
:1026200000000000804A7800C44C80006402420030
:102630000400780080027800D0C6B300AEE9B7008D
:10264000E0C6B300AFE9B70064832000544D8800B2
:102650009A09F800AC09F900060C0200000000001D
:10266000804A780020032000D60402000000000009
:102670000F22AF00FEFF3700B40220008410880054
:102680000F22AF00FEFF3700B40220008410880044
:102690000F22AF00FEFF3700B40220008410880034
:1026A00000C1B3000EE2B70064832000A44D88008F
:1026B000F40702000000000014002000844D880090
:1026C000AE0F0200000000004F037800CF02780038
:1026D00000000600851F7800861F78009A29EF0009
:1026E000B869EF0064832000A44D8800E415200041
:1026F000B44D8800C6070200000000000100200061
:1027000001007800A4010200000000008100E80040
:10271000811F78000F22AF00FEFF37008010880075
:10272000CF007800A00020000008E600F4FF37008A
:1027300064832000A44D8800F4070200000000001C
:10274000A04C8000D604020000000000B869EF0031
:1027500064832000A44D8800E4152000B44D880057
:10276000C607020000000000010020000100780000
:10277000BC010200000000008100E800811F780019
:102780000F22AF00FEFF370080108800CF007800D6
:10279000000320000008E600F4FF370064832000F7
:1027A000A44D8800F407020000000000A04C800047
:1027B000D604020000000000B869EF006483200026
:1027C000A44D8800E4152000B44D8800C60702001F
:1027D000000000000100200001007800C00202009B
:1027E000000000008100E800811F78000F22AF0088
:1027F000FEFF370080108800CF00780070012000B5
:102800000008E600F4FF3700B04C80000400200010
:102810000C0B020000000000A10120000100780064
:10282000C0020200000000008100E800811F780063
:102830000F22AF00FEFF370080108800CF00780025
:10284000600420000008E600F4FF370064832000E5
:10285000D34C800084824100467F8000E60702005E
:1028600000000000467F8800804A78009A29EC002A
:10287000D44C8000E31520000418E1000700340068
:10288000D44C8000E10252006483200004804200A6
:102890001042780044C2B200ECFF3A00648320008A
:1028A000844D88009A09F800B209F90080080200F6
:1028B00000000000800278006128E1001E003A005C
:1028C000C44C80006302420004007800800278005B
:1028D00080C6B300AEE9B70020C7B300AFE9B700C8
:1028E00064832000544D88009A09F800AC09F9006F
:1028F000060C020000000000804A7800C44C8000F2
:10290000640242000400780080027800D0C6B30060
:10291000AEE9B700E0C6B300AFE9B70064832000BA
:10292000544D88009A09F800AC09F900060C020021
:1029300000000000804A780020032000D604020036
:10294000000000000F22AF00FEFF3700B40220009D
:10295000841088000F22AF00FEFF3700B402200071
:10296000841088000F22AF00FEFF3700B402200061
:102970008410880000C1B3000EE2B7006483200019
:10298000A44D8800F407020000000000200320008E
:10299000D60402000000000014002000844D8800CE
:1029A000AE0F0200000000004F037800CF02780055
:1029B00000000600851F78009CC9BF009DE9B70094
:1029C0009DC9BF000160EF004400DE0000427800B6
:1029D0000960EF006A20B8009CE9B7009DC9BF00FC
:1029E0004400DD000160EF004400DE009C69B4009B
:1029F0009CC9BF0000E0B700CF02780000000600CD
:102A0000851F7800861F7800E10820000000E000A4
:102A10001200320000F0A700040037004200A900B5
:102A20000080D2008100E900FAFF37000180FD003C
:102A30004200A9008180D30000F0A1000080FD00C9
:102A4000814068000040B200070037000140780074
:102A50000170A0000140B200030037000000EB004D
:102A60008000EB00000037004F037800CF027800B1
:102A700000000600851F780082017800820278003D
:102A80004200A9008381D2000380FD00F30FB20051
:102A900003003A006000B8006011B800160037006B
:102AA0000338B000F207B200360020000002EB004D
:102AB0004200A9000281D3008180D3000080D300AE
:102AC0004200AF000402E8000603E900F8FF3A0004
:102AD0000270A100C419DD0003F0A10005F0A700F9
:102AE00003F0A000830169000101780080007800F4
:102AF000810042000000EB00CF02780000000600D9
:102B0000881F78002801200004000900B81F780001
:102B10008005EB006066B800030478008704780045
:102B2000FA7F20004200A9004220A90044C4DE0030
:102B3000080465000800E000700032004200A900AF
:102B40004220A900C4CCDE00890465000900E00031
:102B50006A0032000884440009B0A700040037006E
:102B6000F83FB1006500320064003900030037000F
:102B70001A402000854245006000310087866900C8
:102B80004200A9004220A900F300B2000340A000C7
:102B9000F700B2000740A000881F78000124B800A9
:102BA000002DB8000A0544008B854C000C80B00055
:102BB0000224B8008B0544000C864C00012CB800A0
:102BC0008B0544000C864C000034B8000005EB0077
:102BD0008B0544000C864C000A80B0008005EB0099
:102BE0000324B8000C0644000A854C000B80B0009A
:102BF000022CB8000C0644000A854C000B80B00083
:102C00000134B8000C0644000A854C000B80B0006B
:102C1000003CB8000C0644000A854C000B80B00054
:102C20000C0078000006EB00032CB8000A054400F5
:102C30008B854C000C80B0000234B8000A054400BB
:102C40008B854C000C80B0000334B8008B05440029
:102C50000C864C00013CB8000A0544008B854C00F2
:102C60000C80B000023CB8008B0544000C864C0080
:102C7000033CB8000C0644008A0078000B01780081
:102C80008C017800540020004200A9008381D30009
:102C90000281D3008180D3000080D3000402E900C8
:102CA000F9FF3A004F0478000804E80001037000BF
:102CB00001003200020037000303710008003200F7
:102CC0000340A700060037004200A9000080D200A0
:102CD0008180D2000281D2008381D2000804E90001
:102CE0004444DD0003F0A1000DF0A70003F0A000B4
:102CF0000340A10083016C00030037006000B800AE
:102D00006001B80000003700A8012000040009009D
:102D10004F1478004F04780000000600851F7800EB
:102D2000C500200005000900B51F780003047800E5
:102D30008203780001037800800278008304780021
:102D40003B472000C499DE00FA7F20008301650024
:102D500083855500F801B2000840A0000000EB0098
:102D60008000EB000001EB008001EB004200A900B5
:102D70000884D3008783D3000683D3008582D300E1
:102D80008381D3000281D3008180D3000080D300EF
:102D90008B05E900F5FF3A0009F0A60005003700B1
:102DA0000000EA008180EA000281EA008381EA00F3
:102DB000000037006501200005000900CF127800EF
:102DC000CF027800000006008C1F78008D1F78006D
:102DD0000004EB008004EB000005EB008005EB0035
:102DE0000006EB008006EB00E80020000900200050
:102DF0001000FA000C377C000884E900FDFF3B005E
:102E000005046A0002003A0007046B002F0032003C
:102E10000004EB000D0420000D0420004200A90076
:102E20000080D2008180D2000281D2008381D20052
:102E30000884D2008984D2000A85D2008B85D20012
:102E40000758E10005003A0006D0E10003003A000F
:102E500005C8E10001003A0004C0E10005003900A6
:102E60000404540085845C0006055D0087855D00D0
:102E70004200A800080F7800190798002A07980058
:102E80003B0798004E049000DE0490006E05900011
:102E9000FE0590000884D2008984D2000A85D20001
:102EA0008B85D20048079800590798006A07980058
:102EB0007B0798001E0478009E0490002E05900069
:102EC000BE0590008D06E900D4FF3A004E00900048
:102ED000DE0090006E019000FE0190000080FA007C
:102EE00000003700CF0678004F067800000006008B
:102EF000851F7800C500200007000900B51F780075
:102F00002A00FA00880220000006EB000C377C0043
:102F10000884E900FDFF3B000900E0000E003200DC
:102F2000391798004A179800470224000003EB0065
:102F30006022B80029179800470224000003EB0024
:102F40006022B8008015020000000000AE1490005E
:102F50008904E900F7FF3A00BE1490004001200008
:102F600020179800D71C240056D62C006022B800E9
:102F7000000F9800110F9800220F9800330F98004F
:102F8000480120000817980004002000859E2800B2
:102F90004630220077AC2800440F9800550F980067
:102FA000660F9800770F980003F0A6000400370022
:102FB0004E1490000804E90008D0A00048179800BB
:102FC00003F0A1008E160200000000004E149000D5
:102FD000BE1490000900E0004220AF000844E80061
:102FE000481798009E1490008004EB001917980071
:102FF0004E0A9000DE0A90006E0B9000FE0B9000CF
:10300000E4160200000000009E1690000D00A700CC
:1030100062003700080F9800190F98002A0F9800D7
:103020003B0F98009E1690000D00A2001D179800FF
:103030000000E00012003A00BE1490008904E8008D
:103040002E159000090455000D003200CE15900099
:103050000B00E0000E0032007F846500080455007C
:1030600001003200410031000BF0A7003F003700A3
:103070000BE0A700060037000002200037003700F1
:10308000CE1590000C0022008B0566004B179800AF
:10309000CE1590000BD0A6000F0037000BD0A1007A
:1030A000BE1490000900E0004220AE008B05E9004C
:1030B0008005EB004B17980000057800D0C2B300E4
:1030C000BCE9B7007A070200000000000A0078009F
:1030D0008005EB004B179800BE1490002E15900051
:1030E000090455000C003A008005EB004B179800CE
:1030F00000057800E0C2B300BCE9B7007A0702001F
:1031000000000000CE1590000C0022008B05660028
:103110004B1798000A00780001032000CE1590009C
:103120000BD0A6000D0037000BD0A100BE149000FC
:103130000900E0004220AE008B05E9008005EB00AD
:103140004B179800D0C2B300BCE9B7007A07020061
:10315000000000000000EB000103200000804000A0
:10316000BCE9B7007A07020000000000AE1690002C
:103170008D06E900190032002D1798004E089000C6
:10318000DE0890006E099000FE099000A400200067
:103190008002EB006033B80099FF3700400F9800C1
:1031A000510F9800620F9800730F9800000278008A
:1031B0008102780002037800830378000E089000F3
:1031C0009E0890002E099000BE0990009E16900067
:1031D0000D00A2001D17980089FF37000080FA003B
:1031E000A501200007000900CF127800CF02780067
:1031F00000000600851F7800C500200007000900B8
:10320000B51F78002A00FA00880220000006EB00B3
:103210000C377C000884E900FDFF3B000900E0005A
:103220000E003200391798004A1798004702240010
:103230000003EB006022B800291798004702240021
:103240000003EB006022B8008015020000000000BF
:10325000AE1490008904E900F7FF3A00BE14900014
:103260004001200020179800D71C240056D62C00BF
:103270006022B800000F9800110F9800220F9800EC
:10328000330F980048012000081798000400200020
:10329000859E28004630220077AC2800440F980015
:1032A000550F9800660F9800770F980003F0A6005E
:1032B000040037004E1490000804E90008D0A00074
:1032C0004817980003F0A1008E16020000000000CD
:1032D0004E149000BE1490000900E0004220AF00A0
:1032E0000844E800481798009E1490008004EB0002
:1032F000191798004E0A9000DE0A90006E0B90009D
:10330000FE0B9000E4160200000000009E169000E4
:103310000D00A70062003700080F9800190F9800F1
:103320002A0F98003B0F98009E1690000D00A200F7
:103330001D1798000000E00012003A00BE14900033
:103340008904E8002E159000090455000D00320094
:10335000CE1590000B00E0000E0032007F84650067
:103360000804550001003200410031000BF0A700B5
:103370003F0037000BE0A7000600370000022000E6
:1033800037003700CE1590000C0022008B05660038
:103390004B179800CE1590000BD0A6000F003700F9
:1033A0000BD0A100BE1490000900E0004220AE0046
:1033B0008B05E9008005EB004B17980000057800AD
:1033C0000F22AF00FEFF3700D402200084108800D7
:1033D0000A0078008005EB004B179800BE1490009F
:1033E0002E159000090455000C003A008005EB00F2
:1033F0004B179800000578000F22AF00FEFF370042
:10340000E402200084108800CE1590000C002200F9
:103410008B0566004B1798000A0078000103200016
:10342000CE1590000BD0A6000D0037000BD0A100E8
:10343000BE1490000900E0004220AE008B05E900B8
:103440008005EB004B1798000F22AF00FEFF3700FE
:10345000D4022000841088000000EB00010320004B
:10346000008040000F22AF00FEFF37008010880070
:10347000AE1690008D06E900190032002D17980055
:103480004E089000DE0890006E099000FE09900042
:10349000A40020008002EB006033B80099FF3700E1
:1034A000400F9800510F9800620F9800730F98001A
:1034B000000278008102780002037800830378001C
:1034C0000E0890009E0890002E099000BE09900002
:1034D0009E1690000D00A2001D17980089FF37006E
:1034E0000080FA00A501200007000900CF12780033
:1034F000CF02780000000600851F7800861F780044
:10350000A229EF00B869EF0064832000A44D880071
:10351000E4152000B44D8800C6070200000000003A
:103520000100200001007800A4010200000000005A
:103530008100E800811F78000F22AF00FEFF3700F6
:1035400080108800CF007800A00020000008E6006E
:10355000F4FF370064832000A44D8800F4070200C4
:103560000000000064832000844D88009409F80066
:10357000B209F9004608020000000000E401200042
:10358000944D880064832000844D880080080200E8
:1035900000000000800278006128E1000D003A0080
:1035A0000500200005007800360102000000000040
:1035B0000040B3004220AF00050037008502E8005C
:1035C000BCE9B7007A07020000000000F5FF3700F1
:1035D0000C00370005002000050078004A010200B9
:1035E000000000000040B3004220AF00050037009B
:1035F0008502E800BCE9B7007A070200000000007D
:10360000F5FF3700A04C8000D60402000000000047
:10361000B869EF0064832000A44D8800E415200001
:10362000B44D8800C6070200000000000100200021
:1036300001007800BC010200000000008100E800E9
:10364000811F78000F22AF00FEFF37008010880036
:10365000CF007800000320000008E600F4FF3700E8
:1036600064832000A44D8800F407020000000000DD
:1036700064832000844D88009409F800B209F900A1
:103680004608020000000000E4012000944D88007C
:1036900064832000844D8800800802000000000040
:1036A000800278006128E100DBF23A00050020008A
:1036B0000500780036010200000000000040B30061
:1036C0004220AF00050037008502E800BCE9B700E2
:1036D0007A07020000000000F5FF37000C003700F9
:1036E00005002000050078004A01020000000000EB
:1036F0000040B3004220AF00050037008502E8001B
:10370000BCE9B7007A07020000000000F5FF3700AF
:10371000A04C8000D604020000000000B869EF0051
:1037200064832000A44D8800E4152000B44D880077
:10373000C607020000000000010020000100780020
:10374000A6030200000000008100E800811F78004D
:103750000F22AF00FEFF370080108800CF007800F6
:10376000D00120000008E600F4FF3700B04C8000D4
:10377000040020000C0B02000000000001022000E9
:1037800001007800A6030200000000008100E800AC
:10379000811F78000F22AF00FEFF370080108800E5
:1037A000CF007800700220000008E600F4FF370028
:1037B000C04C8000040020000C0B02000000000040
:1037C000A102200001007800A60302000000000012
:1037D0008100E800811F78000F22AF00FEFF370054
:1037E00080108800CF007800200320000008E60049
:1037F000F4FF3700E24C8000D14C80000000200034
:103800003A15020000000000290020002A002000D4
:10381000FA18020000000000810320000100780077
:10382000A6030200000000008100E800811F78006C
:103830000F22AF00FEFF370080108800CF00780015
:10384000000420000008E600F4FF3700024D80006D
:10385000F14C8000000020003A150200000000003A
:10386000290020002A002000FA18020000000000B1
:103870006104200001007800A6030200000000009F
:103880008100E800811F78000F22AF00FEFF3700A3
:1038900080108800CF007800200720000008E60094
:1038A000F4FF3700E6070200000000006A04E100B0
:1038B000FCFF3A0064832000134D800084824100A5
:1038C000467F8000E607020000000000467F880077
:1038D000804A7800A229EC00144D8000E3152000F6
:1038E0000418E10007003400144D8000E10252008A
:1038F00064832000048042001042780044C2B20079
:10390000ECFF3A0020032000D60402000000000073
:1039100001002000010078006002020000000000A9
:103920008100E800811F78000F22AF00FEFF370002
:1039300080108800CF007800400020000008E600DA
:10394000F4FF370000C1B3000EE2B700648320002B
:10395000844D8800843E2000944D88004608020073
:103960000000000014002000844D8800AE0F02000B
:10397000000000004F037800CF027800000006002E
:1039800081E0A800040028006410880004402000A2
:103990007410880034002000A41088000228EF0072
:1039A00014002000244088001400200034408800C7
:1039B0000828EF000C28EF000E28EF001028EF0079
:1039C000E4002000944088001428EF001628EF003F
:1039D0001828EF001A28EF001C28EF001E28EF001F
:1039E0002028EF003468EF0044062000A44C880033
:1039F000A8A2EF000FF82000F0FF200020A0B700E1
:103A0000000000000028EF0004202000144188007E
:103A1000D480200024418800E40120003441880043
:103A20009421200044418800D43021005441880072
:103A3000B401200064418800942120007441880072
:103A4000D430210084418800D401200094418800B2
:103A50003628EF003828EF003A28EF003C28EF0026
:103A60003E28EF004028EF004228EF004428EF00F6
:103A70004628EF004828EF004A28EF004C28EF00C6
:103A80004E28EF005028EF005228EF005428EF0096
:103A90005628EF005828EF005A28EF005C28EF0066
:103AA0005E28EF006028EF006228EF006428EF0036
:103AB0006628EF006828EF006A28EF006C28EF0006
:103AC0006E28EF007028EF007228EF007428EF00D6
:103AD0007628EF007828EF007A28EF007C28EF00A6
:103AE0007E28EF008028EF008228EF008428EF0076
:103AF0008628EF008828EF008A28EF008C28EF0046
:103B00008E28EF009028EF009228EF009428EF0015
:103B10009628EF009828EF009A28EF009C28EF00E5
:103B20009E28EF00A028EF00A228EF00A428EF00B5
:103B3000A628EF00A828EF00AA28EF00AC28EF0085
:103B4000AE28EF00B028EF00B228EF00B428EF0055
:103B5000B628EF00B828EF00BA28EF00BC28EF0025
:103B6000BE28EF00C028EF00C228EF00C428EF00F5
:103B7000C628EF00C828EF00CA28EF00CC28EF00C5
:103B8000CE28EF00D028EF00D228EF00D428EF0095
:103B9000D628EF00D828EF00DA28EF00DC28EF0065
:103BA000DE28EF00E028EF00E228EF00E428EF0035
:103BB000E628EF00E828EF00EA28EF00EC28EF0005
:103BC000EE28EF00F028EF00F228EF00F428EF00D5
:103BD000F628EF00F828EF00FA28EF00FC28EF00A5
:103BE000FE28EF000029EF000229EF000429EF0072
:103BF0000629EF000829EF000A29EF000C29EF0041
:103C00000E29EF001029EF001229EF001429EF0010
:103C10001629EF001829EF001A29EF001C29EF00E0
:103C20001E29EF002029EF002229EF002429EF00B0
:103C30002629EF002829EF002A29EF002C29EF0080
:103C40002E29EF003029EF003229EF003429EF0050
:103C50003629EF003829EF003A29EF003C29EF0020
:103C60003E29EF004029EF004229EF004429EF00F0
:103C70004629EF004829EF004A29EF004C29EF00C0
:103C80004E29EF005029EF005229EF005429EF0090
:103C90005629EF005829EF005A29EF005C29EF0060
:103CA0005E29EF006029EF006229EF006429EF0030
:103CB0006629EF006829EF006A29EF006C29EF0000
:103CC0006E29EF007029EF007229EF007429EF00D0
:103CD0007629EF007829EF007A29EF007C29EF00A0
:103CE0007E29EF008029EF008229EF008429EF0070
:103CF0008629EF008829EF008A29EF008C29EF0040
:103D00008E29EF009029EF009229EF0008060200AB
:103D1000000000000C070200000000000500200069
:103D20000500780010040200000000000040B3000D
:103D30004220AF00050037008502E800BCE9B7006B
:103D40007A07020000000000F5FF3700400620005F
:103D5000D60402000000000084FF2F0044158800F4
:103D6000A222EF000408200024158800040E280079
:103D700004158800740020003416880000C1B300C8
:103D80000EE2B700BA080200000000001208F800B6
:103D90009609F90024822000C44C88007C0C0200A3
:103DA000000000000080B200030032001080B2006A
:103DB0000E00320068003700050020000500780082
:103DC0004A010200000000000040B3004220AF00A2
:103DD000050037008502E800BCE9B7007A07020059
:103DE00000000000F5FF37006800370022C8BF0060
:103DF00096E9B70023C8BF0097E9B70024C8BF0001
:103E000098E9B70034C8BF0099E9B70025C8BF00DA
:103E10009AE9B70026C8BF009BE9B700160E02005A
:103E200000000000050020000500780010010200DD
:103E3000000000000040B3004220AF000500370042
:103E40008502E800BCE9B7007A0702000000000024
:103E5000F5FF370005002000050078002E04020061
:103E6000000000000040B3004220AF000500370012
:103E70008502E800BCE9B7007A07020000000000F4
:103E8000F5FF370022C8BF000000FB00040020003F
:103E9000B40E020000000000F0C2B300BCE9B7009D
:103EA0007A0702000000000023C8BF000000FB00EA
:103EB00004002000B40E020000000000F0C2B300B5
:103EC000BCE9B7007A0702000000000020C3B3007D
:103ED000BCE9B7007A0702000000000000C3B3008D
:103EE000BCE9B7007A0702000000000024C8BF0048
:103EF0000000FB0004002000B40E020000000000DF
:103F000000C2B300BCE9B7007A070200000000005D
:103F100025C8BF000000FB0024002800B40E0200EA
:103F200000000000A0C3B300BCE9B7007A0702009C
:103F30000000000026C8BF000000FB00240028008D
:103F4000B40E020000000000803E2000D6040200F3
:103F5000000000000D00370005002000050078007B
:103F60004A010200000000000040B3004220AF0000
:103F7000050037008502E800BCE9B7007A070200B7
:103F800000000000F5FF370000003700140020009B
:103F9000844D8800AE0F0200000000001428EF00DE
:103FA000A44080007920E100DC013C000808E20028
:103FB00002003A00D722A90001003700D722A8004A
:103FC000D322A90005002000050078004604020065
:103FD000000000000040B3004220AF0005003700A1
:103FE0008502E800BCE9B7007A0702000000000083
:103FF000F5FF37001208F8009609F9002480200028
:10400000C44C880064802000D44C8800F80F020063
:104010000000000022C8BF002848E300080032006A
:104020001208F8009609F90084822000C44C880028
:10403000001202000000000022C8BF0028E8B700FC
:1040400022C8BF002E48E300080032001208F80022
:104050009609F900E4822000C44C88006A1302002B
:104060000000000022C8BF002EE8B700104080000A
:104070002080B200050032003080B2000A00320019
:104080001080B20024003200490037000608F80012
:104090000408F9000408F8000C08F9000408F80006
:1040A0000E08F9004300370022C8BF002848E3008B
:1040B00008003A0025C8BF002B48E30005003A007D
:1040C0002CC8BF00344180000024E1000100390009
:1040D0000428EF0022C8BF002E48E30009003A0080
:1040E00025C8BF003148E30006003A0032C8BF00CF
:1040F000344180000024E100020039001400200057
:10410000244088000408F8000C08F9000408F800AE
:104110000E08F9002700370022C8BF002848E30036
:1041200008003A0025C8BF002B48E30005003A000C
:104130002CC8BF00344180000024E1000100390098
:104140000428EF0022C8BF002E48E30009003A000F
:1041500025C8BF003148E30006003A0032C8BF005E
:10416000344180000024E1000200390014002000E6
:104170002440880022C8BF00614060000004E000C5
:1041800003003A000408F8000C08F9000E28EF00BC
:1041900022C8BF00614060006104E10003003A00F2
:1041A0000C28EF000408F8000E08F90001003700A1
:1041B000000037000C08E20002003A00CA62A900C1
:1041C00001003700CA62A800340E200034168800AF
:1041D0000E08E20002003A00CA82A900010037007E
:1041E000CA82A800340E2000341688000500200082
:1041F0000500780010010200000000000040B3003C
:104200004220AF00050037008502E800BCE9B70096
:104210007A07020000000000F5FF370005002000CB
:10422000050078002E040200000000000040B300EA
:104230004220AF00050037008502E800BCE9B70066
:104240007A07020000000000F5FF370070C8B300D5
:104250009AE9B700C406020000000000804278001E
:104260009C09F800E5FF9F009C09F900DA140200A0
:104270000000000022E8B70090C8B3009AE9B70038
:10428000C406020000000000804278009C09F8008B
:10429000E5FF9F009C09F900DA140200000000000D
:1042A00023E8B700D0C8B3009AE9B700C4060200FB
:1042B00000000000804278009C09F800E5FF9F00A4
:1042C0009C09F900DA1402000000000024E8B7009D
:1042D000B0C8B3009AE9B700C406020000000000AD
:1042E000804278009C09F800E5FF9F009C09F900D6
:1042F000DA1402000000000034E8B70050C8B30030
:104300009AE9B700C406020000000000804278006D
:104310009C09F800E5FF9F009C09F900DA140200EF
:104320000000000025E8B70030C8B3009AE9B700E4
:10433000C406020000000000804278009C09F800DA
:10434000E5FF9F009C09F900DA140200000000005C
:1043500026E8B70010C8B3009AE9B700C406020007
:1043600000000000804278009C09F800E5FF9F00F3
:104370009C09F900DA1402000000000027E8B700E9
:1043800022C8BF000000FB0004002000B40E0200A1
:1043900000000000F0C2B300BCE9B7007A070200D9
:1043A0000000000023C8BF000000FB000400200044
:1043B000B40E020000000000F0C2B300BCE9B70078
:1043C0007A0702000000000020C3B300BCE9B70078
:1043D0007A0702000000000000C3B300BCE9B70088
:1043E0007A0702000000000024C8BF000000FB00A4
:1043F00004002000B40E02000000000000C2B30060
:10440000BCE9B7007A0702000000000025C8BF0021
:104410000000FB0024002800B40E02000000000091
:10442000A0C3B300BCE9B7007A0702000000000097
:1044300026C8BF000000FB0024002800B40E0200C4
:1044400000000000007D2000D604020000000000F3
:1044500005002000050078001001020000000000A7
:104460000040B3004220AF00050037008502E8009D
:10447000BCE9B7007A07020000000000F5FF370032
:10448000010020000100780070040200000000001C
:104490008100E800811F7800BCE9B7007A070200BC
:1044A00000000000CF007800500020000008E60067
:1044B000F4FF37001040800004002000B40E02001A
:1044C000000000008100200001007800700402005C
:1044D000000000008100E800811F7800BCE9B700FF
:1044E0007A07020000000000CF00780000012000E1
:1044F0000008E600F4FF37002040800004002000A0
:10450000B40E020000000000007D2000D60402006E
:1045100000000000A622EF00A002A900A022A8002F
:10452000A002AE00FEFF370000148000001502005C
:1045300000000000B0408800C14088001400200046
:1045400034158800A002A900A022A800A002AE0095
:10455000FEFF37000014800000150200000000007C
:10456000D0408800E14088002400200034158800F5
:10457000A002A900A022A800A002AE00FEFF370002
:10458000001480000015020000000000F0408800C8
:10459000014188000500200005007800100102009C
:1045A000000000000040B3004220AF0005003700CB
:1045B0008502E800BCE9B7007A07020000000000AD
:1045C000F5FF370001002000010078009004020090
:1045D000000000008100E800811F7800BCE9B700FE
:1045E0007A07020000000000CF0078008000200061
:1045F0000008E600F4FF3700C2408000B1408000B0
:10460000000020003A1502000000000039002000E0
:104610005A0020007817020000000000E10020008E
:104620000100780090040200000000008100E80012
:10463000811F7800BCE9B7007A0702000000000083
:10464000CF007800700120000008E600F4FF37007A
:10465000E2408000D1408000000020003A150200B6
:1046600000000000390020005A00200078170200E6
:1046700000000000007D2000D604020000000000C1
:104680000500200005007800100102000000000075
:104690000040B3004220AF00050037008502E8006B
:1046A000BCE9B7007A07020000000000F5FF370000
:1046B0000100200001007800BA04020000000000A0
:1046C0008100E800811F7800BCE9B7007A0702008A
:1046D00000000000CF007800800020000008E60005
:1046E000F4FF370002418000F1408000000020000C
:1046F0003A15020000000000390020005A00200096
:104700007817020000000000007D2000D60402009F
:10471000000000001428EC0021FE37001208F80009
:104720009609F9000408F8009809F9001608F8003D
:104730009A09F9001808F8009C09F9001A08F8000D
:104740009E09F9001C08F800A009F9007C1A020073
:0C4750000000000011FE37000040FE00D9
:0200000401F009
:1000000001C700003F000000330700000F3100006F
:0C0010000F3300000700000003C00000D8
:00000001FF
;DSPIC30F5015
;CRC=9AE4  CREATED="06-Jul-15 13:00"
